{"abi":[{"type":"constructor","inputs":[{"name":"_owner","type":"address","internalType":"address"},{"name":"_threshold","type":"uint256","internalType":"uint256"},{"name":"_secret","type":"string","internalType":"string"}],"stateMutability":"nonpayable"},{"type":"fallback","stateMutability":"payable"},{"type":"receive","stateMutability":"payable"},{"type":"function","name":"getAccountStatus","inputs":[],"outputs":[{"name":"","type":"bool","internalType":"bool"}],"stateMutability":"view"},{"type":"function","name":"getBalance","inputs":[],"outputs":[{"name":"","type":"uint256","internalType":"uint256"}],"stateMutability":"view"},{"type":"function","name":"getThreshold","inputs":[],"outputs":[{"name":"","type":"uint256","internalType":"uint256"}],"stateMutability":"view"},{"type":"function","name":"isHashedMatch","inputs":[{"name":"_secret","type":"string","internalType":"string"}],"outputs":[{"name":"","type":"bool","internalType":"bool"}],"stateMutability":"view"},{"type":"function","name":"sendFunds","inputs":[{"name":"_to","type":"address","internalType":"address payable"},{"name":"_amount","type":"uint256","internalType":"uint256"}],"outputs":[{"name":"","type":"bool","internalType":"bool"}],"stateMutability":"payable"},{"type":"function","name":"setSecret","inputs":[{"name":"_secret","type":"string","internalType":"string"}],"outputs":[],"stateMutability":"nonpayable"},{"type":"function","name":"setThreshold","inputs":[{"name":"_newThreshold","type":"uint256","internalType":"uint256"}],"outputs":[],"stateMutability":"nonpayable"},{"type":"function","name":"unfreezeAccount","inputs":[{"name":"_secret","type":"string","internalType":"string"}],"outputs":[],"stateMutability":"nonpayable"},{"type":"event","name":"AccountFrozen","inputs":[{"name":"_text","type":"string","indexed":false,"internalType":"string"}],"anonymous":false},{"type":"event","name":"AccountUnfrozen","inputs":[{"name":"_text","type":"string","indexed":false,"internalType":"string"}],"anonymous":false},{"type":"event","name":"SuspiciousBehaviourDetected","inputs":[{"name":"user","type":"address","indexed":false,"internalType":"address"}],"anonymous":false},{"type":"event","name":"ThresholdExceeded","inputs":[{"name":"_transtionCount","type":"uint256","indexed":false,"internalType":"uint256"},{"name":"_totalValue","type":"uint256","indexed":false,"internalType":"uint256"}],"anonymous":false},{"type":"error","name":"ReentrancyGuardReentrantCall","inputs":[]},{"type":"error","name":"SecuredVault_AccountIsFrozen","inputs":[]},{"type":"error","name":"SecuredVault_InsufficientBalance","inputs":[]},{"type":"error","name":"SecuredVault_InvalidSecret","inputs":[]},{"type":"error","name":"SecuredVault_OnlyOwner","inputs":[]},{"type":"error","name":"SecuredVault_TransactionFailed","inputs":[]}],"bytecode":{"object":"0x608060405234801561001057600080fd5b50604051610aa6380380610aa683398101604081905261002f916100d6565b6001600081815581546001600160a01b0319166001600160a01b03861617909155600283905560048190556003556009805460ff191690556040516100789082906020016101ad565b60405160208183030381529060405280519060200120600a819055505050506101c9565b634e487b7160e01b600052604160045260246000fd5b60005b838110156100cd5781810151838201526020016100b5565b50506000910152565b6000806000606084860312156100eb57600080fd5b83516001600160a01b038116811461010257600080fd5b6020850151604086015191945092506001600160401b038082111561012657600080fd5b818601915086601f83011261013a57600080fd5b81518181111561014c5761014c61009c565b604051601f8201601f19908116603f011681019083821181831017156101745761017461009c565b8160405282815289602084870101111561018d57600080fd5b61019e8360208301602088016100b2565b80955050505050509250925092565b600082516101bf8184602087016100b2565b9190910192915050565b6108ce806101d86000396000f3fe60806040526004361061007f5760003560e01c806373d80b961161004e57806373d80b961461012d5780637ed6c9261461014d578063960bfe041461016d578063e75235b81461018d5761009e565b806312065fe0146100b05780631b7035ea146100d45780636e94d6a3146100f85780636f64234e1461011a5761009e565b3661009e5734600860008282546100969190610712565b925050819055005b34600860008282546100969190610712565b3480156100bc57600080fd5b506008545b6040519081526020015b60405180910390f35b3480156100e057600080fd5b5060095460ff165b60405190151581526020016100cb565b34801561010457600080fd5b5061011861011336600461073b565b6101a2565b005b6100e86101283660046107ec565b610299565b34801561013957600080fd5b506100e861014836600461073b565b610403565b34801561015957600080fd5b5061011861016836600461073b565b610463565b34801561017957600080fd5b50610118610188366004610824565b6104bd565b34801561019957600080fd5b506100c16104ed565b6001546001600160a01b031633146101cd5760405163401f871760e01b815260040160405180910390fd5b600a54816040516020016101e1919061083d565b60405160208183030381529060405280519060200120146102155760405163334fed4360e21b815260040160405180910390fd5b6009805460ff191690556040517fc79f37149002660c3e8d25010aaf6f5106567a7b1ed7ea280d6f7477d961f4f19061028e9060208082526026908201527f4163636f756e7420686173206265656e20756e66726f7a656e207375636365736040820152657366756c792160d01b606082015260800190565b60405180910390a150565b6001546000906001600160a01b031633146102c75760405163401f871760e01b815260040160405180910390fd5b60095460ff16156102eb57604051633cfd413b60e01b815260040160405180910390fd5b6102f3610522565b816008541015610316576040516303c2688f60e21b815260040160405180910390fd5b61031e61054c565b8160086000828254610330919061086c565b9091555050600380549060006103458361087f565b9190505550816004600082825461035c9190610712565b90915550506002546004541061037c57610374610669565b5060006103f3565b6000836001600160a01b03168360405160006040518083038185875af1925050503d80600081146103c9576040519150601f19603f3d011682016040523d82523d6000602084013e6103ce565b606091505b50509050806103f0576040516370a9014d60e01b815260040160405180910390fd5b90505b6103fd6001600055565b92915050565b6001546000906001600160a01b031633146104315760405163401f871760e01b815260040160405180910390fd5b81604051602001610442919061083d565b60405160208183030381529060405280519060200120600a54149050919050565b6001546001600160a01b0316331461048e5760405163401f871760e01b815260040160405180910390fd5b8060405160200161049f919061083d565b60408051601f198184030181529190528051602090910120600a5550565b6001546001600160a01b031633146104e85760405163401f871760e01b815260040160405180910390fd5b600255565b6001546000906001600160a01b0316331461051b5760405163401f871760e01b815260040160405180910390fd5b5060025490565b60026000540361054557604051633ee5aeb560e01b815260040160405180910390fd5b6002600055565b42600b54108015610560575060095460ff16155b1561056d5762015180600b555b426007541161059d57610581426005610712565b600760008282546105929190610712565b909155505060006006555b4260075411156105c0576001600660008282546105ba9190610712565b90915550505b60056006541115610667576009805460ff191660011790556040517f90b1237d8fe9263a5b067e54103ab2f16b62e30a422538c2454a63bde2bdc9f09061065e906020808252603f908201527f4163636f756e7420697320667265657a652064756520746f20746f6f206d616e60408201527f79207472616e73616374696f6e20696e20612073686f727420706572696f6400606082015260800190565b60405180910390a15b565b6009805460ff191660011790556040517f90b1237d8fe9263a5b067e54103ab2f16b62e30a422538c2454a63bde2bdc9f09061065e906020808252603c908201527f596f7572206163636f756e742069732066726f7a656e2064756520746f20736f60408201527f6d65207374616e6765206265686576696f757320646574656374656400000000606082015260800190565b634e487b7160e01b600052601160045260246000fd5b808201808211156103fd576103fd6106fc565b634e487b7160e01b600052604160045260246000fd5b60006020828403121561074d57600080fd5b813567ffffffffffffffff8082111561076557600080fd5b818401915084601f83011261077957600080fd5b81358181111561078b5761078b610725565b604051601f8201601f19908116603f011681019083821181831017156107b3576107b3610725565b816040528281528760208487010111156107cc57600080fd5b826020860160208301376000928101602001929092525095945050505050565b600080604083850312156107ff57600080fd5b82356001600160a01b038116811461081657600080fd5b946020939093013593505050565b60006020828403121561083657600080fd5b5035919050565b6000825160005b8181101561085e5760208186018101518583015201610844565b506000920191825250919050565b818103818111156103fd576103fd6106fc565b600060018201610891576108916106fc565b506001019056fea26469706673582212208002b85fc46fdfb6c761ab4f15143997cdd57a2257ce0714dcc27bd874283c3f64736f6c63430008180033","linkReferences":{}},"methodIdentifiers":{"getAccountStatus()":"1b7035ea","getBalance()":"12065fe0","getThreshold()":"e75235b8","isHashedMatch(string)":"73d80b96","sendFunds(address,uint256)":"6f64234e","setSecret(string)":"7ed6c926","setThreshold(uint256)":"960bfe04","unfreezeAccount(string)":"6e94d6a3"},"id":3}