{"abi":[{"type":"constructor","inputs":[{"name":"manageContract_","type":"address","internalType":"address"},{"name":"poolAddress_","type":"address","internalType":"address"},{"name":"paymentTokenAddress_","type":"address","internalType":"address"}],"stateMutability":"nonpayable"},{"type":"function","name":"DEFAULT_ADMIN_ROLE","inputs":[],"outputs":[{"name":"","type":"bytes32","internalType":"bytes32"}],"stateMutability":"view"},{"type":"function","name":"MANAGER_CONTRACT","inputs":[],"outputs":[{"name":"","type":"bytes32","internalType":"bytes32"}],"stateMutability":"view"},{"type":"function","name":"aTokenAddress","inputs":[],"outputs":[{"name":"","type":"address","internalType":"address"}],"stateMutability":"view"},{"type":"function","name":"deposit","inputs":[{"name":"amount_","type":"uint256","internalType":"uint256"}],"outputs":[],"stateMutability":"nonpayable"},{"type":"function","name":"getATokenAddress","inputs":[{"name":"paymentToken_","type":"address","internalType":"address"}],"outputs":[{"name":"","type":"address","internalType":"address"}],"stateMutability":"view"},{"type":"function","name":"getAvailableBalance","inputs":[],"outputs":[{"name":"","type":"uint256","internalType":"uint256"}],"stateMutability":"view"},{"type":"function","name":"getRoleAdmin","inputs":[{"name":"role","type":"bytes32","internalType":"bytes32"}],"outputs":[{"name":"","type":"bytes32","internalType":"bytes32"}],"stateMutability":"view"},{"type":"function","name":"getRoleMember","inputs":[{"name":"role","type":"bytes32","internalType":"bytes32"},{"name":"index","type":"uint256","internalType":"uint256"}],"outputs":[{"name":"","type":"address","internalType":"address"}],"stateMutability":"view"},{"type":"function","name":"getRoleMemberCount","inputs":[{"name":"role","type":"bytes32","internalType":"bytes32"}],"outputs":[{"name":"","type":"uint256","internalType":"uint256"}],"stateMutability":"view"},{"type":"function","name":"grantRole","inputs":[{"name":"role","type":"bytes32","internalType":"bytes32"},{"name":"account","type":"address","internalType":"address"}],"outputs":[],"stateMutability":"nonpayable"},{"type":"function","name":"hasRole","inputs":[{"name":"role","type":"bytes32","internalType":"bytes32"},{"name":"account","type":"address","internalType":"address"}],"outputs":[{"name":"","type":"bool","internalType":"bool"}],"stateMutability":"view"},{"type":"function","name":"managerContract","inputs":[],"outputs":[{"name":"","type":"address","internalType":"address"}],"stateMutability":"view"},{"type":"function","name":"paymentToken","inputs":[],"outputs":[{"name":"","type":"address","internalType":"contract IERC20"}],"stateMutability":"view"},{"type":"function","name":"pool","inputs":[],"outputs":[{"name":"","type":"address","internalType":"contract IPool"}],"stateMutability":"view"},{"type":"function","name":"renounceRole","inputs":[{"name":"role","type":"bytes32","internalType":"bytes32"},{"name":"callerConfirmation","type":"address","internalType":"address"}],"outputs":[],"stateMutability":"nonpayable"},{"type":"function","name":"revokeRole","inputs":[{"name":"role","type":"bytes32","internalType":"bytes32"},{"name":"account","type":"address","internalType":"address"}],"outputs":[],"stateMutability":"nonpayable"},{"type":"function","name":"supportsInterface","inputs":[{"name":"interfaceId","type":"bytes4","internalType":"bytes4"}],"outputs":[{"name":"","type":"bool","internalType":"bool"}],"stateMutability":"view"},{"type":"function","name":"withdraw","inputs":[{"name":"amount_","type":"uint256","internalType":"uint256"},{"name":"recipient_","type":"address","internalType":"address"}],"outputs":[{"name":"","type":"uint256","internalType":"uint256"}],"stateMutability":"nonpayable"},{"type":"event","name":"RoleAdminChanged","inputs":[{"name":"role","type":"bytes32","indexed":true,"internalType":"bytes32"},{"name":"previousAdminRole","type":"bytes32","indexed":true,"internalType":"bytes32"},{"name":"newAdminRole","type":"bytes32","indexed":true,"internalType":"bytes32"}],"anonymous":false},{"type":"event","name":"RoleGranted","inputs":[{"name":"role","type":"bytes32","indexed":true,"internalType":"bytes32"},{"name":"account","type":"address","indexed":true,"internalType":"address"},{"name":"sender","type":"address","indexed":true,"internalType":"address"}],"anonymous":false},{"type":"event","name":"RoleRevoked","inputs":[{"name":"role","type":"bytes32","indexed":true,"internalType":"bytes32"},{"name":"account","type":"address","indexed":true,"internalType":"address"},{"name":"sender","type":"address","indexed":true,"internalType":"address"}],"anonymous":false},{"type":"error","name":"AccessControlBadConfirmation","inputs":[]},{"type":"error","name":"AccessControlUnauthorizedAccount","inputs":[{"name":"account","type":"address","internalType":"address"},{"name":"neededRole","type":"bytes32","internalType":"bytes32"}]}],"bytecode":{"object":"0x60806040523480156200001157600080fd5b50604051620010f1380380620010f1833981016040819052620000349162000145565b600280546001600160a01b038085166001600160a01b0319928316179092556005805486841690831617905560038054928416929091169190911790556200007c81620000a6565b600480546001600160a01b0319166001600160a01b0392909216919091179055506200039d915050565b6002546040516335ea6a7560e01b81526001600160a01b03838116600483015260009283929116906335ea6a75906024016101e060405180830381865afa158015620000f6573d6000803e3d6000fd5b505050506040513d601f19601f820116820180604052508101906200011c919062000259565b61010001519392505050565b80516001600160a01b03811681146200014057600080fd5b919050565b6000806000606084860312156200015b57600080fd5b620001668462000128565b9250620001766020850162000128565b9150620001866040850162000128565b90509250925092565b6040516101e081016001600160401b0381118282101715620001c157634e487b7160e01b600052604160045260246000fd5b60405290565b600060208284031215620001da57600080fd5b604051602081016001600160401b03811182821017156200020b57634e487b7160e01b600052604160045260246000fd5b6040529151825250919050565b80516001600160801b03811681146200014057600080fd5b805164ffffffffff811681146200014057600080fd5b805161ffff811681146200014057600080fd5b60006101e082840312156200026d57600080fd5b620002776200018f565b620002838484620001c7565b8152620002936020840162000218565b6020820152620002a66040840162000218565b6040820152620002b96060840162000218565b6060820152620002cc6080840162000218565b6080820152620002df60a0840162000218565b60a0820152620002f260c0840162000230565b60c08201526200030560e0840162000246565b60e08201526101006200031a81850162000128565b908201526101206200032e84820162000128565b908201526101406200034284820162000128565b908201526101606200035684820162000128565b908201526101806200036a84820162000218565b908201526101a06200037e84820162000218565b908201526101c06200039284820162000218565b908201529392505050565b610d4480620003ad6000396000f3fe608060405234801561001057600080fd5b50600436106101155760003560e01c8063809dab6a116100a2578063b6b55f2511610071578063b6b55f2514610248578063ca15c8731461025b578063d547741f1461026e578063dcfc0ced14610281578063fd5690801461029457600080fd5b8063809dab6a146102125780639010d07c1461021a57806391d148541461022d578063a217fddf1461024057600080fd5b80632710ac80116100e95780632710ac80146101b15780632f2ff15d146101c45780633013ce29146101d957806336568abe146101ec578063711cc005146101ff57600080fd5b8062f714ce1461011a57806301ffc9a71461014057806316f0115b14610163578063248a9ca31461018e575b600080fd5b61012d6101283660046109d2565b6102bb565b6040519081526020015b60405180910390f35b61015361014e366004610a02565b61034a565b6040519015158152602001610137565b600254610176906001600160a01b031681565b6040516001600160a01b039091168152602001610137565b61012d61019c366004610a2c565b60009081526020819052604090206001015490565b600554610176906001600160a01b031681565b6101d76101d23660046109d2565b61036f565b005b600354610176906001600160a01b031681565b6101d76101fa3660046109d2565b61039a565b61017661020d366004610a45565b6103d2565b61012d610451565b610176610228366004610a62565b6104c8565b61015361023b3660046109d2565b6104e0565b61012d600081565b6101d7610256366004610a2c565b610509565b61012d610269366004610a2c565b6105fb565b6101d761027c3660046109d2565b610612565b600454610176906001600160a01b031681565b61012d7f0b86e3ab1ef8d51f0f6a0aa1032bd952fc0ac04bcdc6bfdb0715bf83bf26d29a81565b600254600354604051631a4ca37b60e21b81526001600160a01b03918216600482015260248101859052838216604482015260009291909116906369328dec906064016020604051808303816000875af115801561031d573d6000803e3d6000fd5b505050506040513d601f19601f820116820180604052508101906103419190610a84565b90505b92915050565b60006001600160e01b03198216635a05180f60e01b1480610344575061034482610637565b60008281526020819052604090206001015461038a8161066c565b6103948383610679565b50505050565b6001600160a01b03811633146103c35760405163334bd91960e11b815260040160405180910390fd5b6103cd82826106ae565b505050565b6002546040516335ea6a7560e01b81526001600160a01b03838116600483015260009283929116906335ea6a75906024016101e060405180830381865afa158015610421573d6000803e3d6000fd5b505050506040513d601f19601f820116820180604052508101906104459190610b7c565b61010001519392505050565b600480546040516370a0823160e01b815230928101929092526000916001600160a01b03909116906370a0823190602401602060405180830381865afa15801561049f573d6000803e3d6000fd5b505050506040513d601f19601f820116820180604052508101906104c39190610a84565b905090565b600082815260016020526040812061034190836106db565b6000918252602082815260408084206001600160a01b0393909316845291905290205460ff1690565b60035460025460405163095ea7b360e01b81526001600160a01b0391821660048201526024810184905291169063095ea7b3906044016020604051808303816000875af115801561055e573d6000803e3d6000fd5b505050506040513d601f19601f820116820180604052508101906105829190610c9f565b5060025460035460405163e8eda9df60e01b81526001600160a01b039182166004820152602481018490523060448201526000606482015291169063e8eda9df90608401600060405180830381600087803b1580156105e057600080fd5b505af11580156105f4573d6000803e3d6000fd5b5050505050565b6000818152600160205260408120610344906106e7565b60008281526020819052604090206001015461062d8161066c565b61039483836106ae565b60006001600160e01b03198216637965db0b60e01b148061034457506301ffc9a760e01b6001600160e01b0319831614610344565b61067681336106f1565b50565b6000806106868484610732565b905080156103415760008481526001602052604090206106a690846107c4565b509392505050565b6000806106bb84846107d9565b905080156103415760008481526001602052604090206106a69084610844565b60006103418383610859565b6000610344825490565b6106fb82826104e0565b61072e5760405163e2517d3f60e01b81526001600160a01b03821660048201526024810183905260440160405180910390fd5b5050565b600061073e83836104e0565b6107bc576000838152602081815260408083206001600160a01b03861684529091529020805460ff191660011790556107743390565b6001600160a01b0316826001600160a01b0316847f2f8788117e7eff1d82e926ec794901d17c78024a50270940304540a733656f0d60405160405180910390a4506001610344565b506000610344565b6000610341836001600160a01b038416610883565b60006107e583836104e0565b156107bc576000838152602081815260408083206001600160a01b0386168085529252808320805460ff1916905551339286917ff6391f5c32d9c69d2a47ea670b442974b53935d1edc7fd64eb21e047a839171b9190a4506001610344565b6000610341836001600160a01b0384166108ca565b600082600001828154811061087057610870610cc1565b9060005260206000200154905092915050565b60008181526001830160205260408120546107bc57508154600181810184556000848152602080822090930184905584548482528286019093526040902091909155610344565b600081815260018301602052604081205480156109b35760006108ee600183610cd7565b855490915060009061090290600190610cd7565b905080821461096757600086600001828154811061092257610922610cc1565b906000526020600020015490508087600001848154811061094557610945610cc1565b6000918252602080832090910192909255918252600188019052604090208390555b855486908061097857610978610cf8565b600190038181906000526020600020016000905590558560010160008681526020019081526020016000206000905560019350505050610344565b6000915050610344565b6001600160a01b038116811461067657600080fd5b600080604083850312156109e557600080fd5b8235915060208301356109f7816109bd565b809150509250929050565b600060208284031215610a1457600080fd5b81356001600160e01b03198116811461034157600080fd5b600060208284031215610a3e57600080fd5b5035919050565b600060208284031215610a5757600080fd5b8135610341816109bd565b60008060408385031215610a7557600080fd5b50508035926020909101359150565b600060208284031215610a9657600080fd5b5051919050565b6040516101e0810167ffffffffffffffff81118282101715610acf57634e487b7160e01b600052604160045260246000fd5b60405290565b600060208284031215610ae757600080fd5b6040516020810181811067ffffffffffffffff82111715610b1857634e487b7160e01b600052604160045260246000fd5b6040529151825250919050565b80516fffffffffffffffffffffffffffffffff81168114610b4557600080fd5b919050565b805164ffffffffff81168114610b4557600080fd5b805161ffff81168114610b4557600080fd5b8051610b45816109bd565b60006101e08284031215610b8f57600080fd5b610b97610a9d565b610ba18484610ad5565b8152610baf60208401610b25565b6020820152610bc060408401610b25565b6040820152610bd160608401610b25565b6060820152610be260808401610b25565b6080820152610bf360a08401610b25565b60a0820152610c0460c08401610b4a565b60c0820152610c1560e08401610b5f565b60e0820152610100610c28818501610b71565b90820152610120610c3a848201610b71565b90820152610140610c4c848201610b71565b90820152610160610c5e848201610b71565b90820152610180610c70848201610b25565b908201526101a0610c82848201610b25565b908201526101c0610c94848201610b25565b908201529392505050565b600060208284031215610cb157600080fd5b8151801515811461034157600080fd5b634e487b7160e01b600052603260045260246000fd5b8181038181111561034457634e487b7160e01b600052601160045260246000fd5b634e487b7160e01b600052603160045260246000fdfea264697066735822122007524a76b9faee017c53a3d85cb5af924b0614ae9f37340d162528e6335fa4a664736f6c63430008180033","linkReferences":{}},"methodIdentifiers":{"DEFAULT_ADMIN_ROLE()":"a217fddf","MANAGER_CONTRACT()":"fd569080","aTokenAddress()":"dcfc0ced","deposit(uint256)":"b6b55f25","getATokenAddress(address)":"711cc005","getAvailableBalance()":"809dab6a","getRoleAdmin(bytes32)":"248a9ca3","getRoleMember(bytes32,uint256)":"9010d07c","getRoleMemberCount(bytes32)":"ca15c873","grantRole(bytes32,address)":"2f2ff15d","hasRole(bytes32,address)":"91d14854","managerContract()":"2710ac80","paymentToken()":"3013ce29","pool()":"16f0115b","renounceRole(bytes32,address)":"36568abe","revokeRole(bytes32,address)":"d547741f","supportsInterface(bytes4)":"01ffc9a7","withdraw(uint256,address)":"00f714ce"},"id":3}