{"abi":[{"type":"constructor","inputs":[],"stateMutability":"nonpayable"},{"type":"function","name":"MAX_VALUE","inputs":[],"outputs":[{"name":"","type":"uint256","internalType":"uint256"}],"stateMutability":"view"},{"type":"function","name":"MIN_VALUE","inputs":[],"outputs":[{"name":"","type":"uint256","internalType":"uint256"}],"stateMutability":"view"},{"type":"function","name":"_approvePolicy","inputs":[{"name":"securedVault_","type":"address","internalType":"contract SecuredVault"},{"name":"policy_","type":"tuple","internalType":"struct InsuranceManager.Policy","components":[{"name":"id","type":"uint256","internalType":"uint256"},{"name":"owner","type":"address","internalType":"address"},{"name":"coverageAmount","type":"uint256","internalType":"uint256"},{"name":"premium","type":"uint256","internalType":"uint256"},{"name":"period","type":"uint256","internalType":"uint256"},{"name":"startTime","type":"uint256","internalType":"uint256"},{"name":"active","type":"bool","internalType":"bool"},{"name":"status","type":"uint8","internalType":"enum InsuranceManager.PolicyStatus"}]}],"outputs":[{"name":"","type":"uint256","internalType":"uint256"}],"stateMutability":"nonpayable"},{"type":"function","name":"cancelPolicy","inputs":[],"outputs":[],"stateMutability":"nonpayable"},{"type":"function","name":"checkPolicyValidity","inputs":[{"name":"_user","type":"address","internalType":"address"}],"outputs":[{"name":"","type":"bool","internalType":"bool"}],"stateMutability":"view"},{"type":"function","name":"claimPolicy","inputs":[{"name":"vaultAddress_","type":"address","internalType":"address"}],"outputs":[],"stateMutability":"nonpayable"},{"type":"function","name":"createPolicy","inputs":[{"name":"_coverageAmount","type":"uint256","internalType":"uint256"},{"name":"_period","type":"uint256","internalType":"uint256"}],"outputs":[{"name":"","type":"uint256","internalType":"uint256"}],"stateMutability":"payable"},{"type":"function","name":"currentUserPolicy","inputs":[{"name":"","type":"address","internalType":"address"}],"outputs":[{"name":"id","type":"uint256","internalType":"uint256"},{"name":"owner","type":"address","internalType":"address"},{"name":"coverageAmount","type":"uint256","internalType":"uint256"},{"name":"premium","type":"uint256","internalType":"uint256"},{"name":"period","type":"uint256","internalType":"uint256"},{"name":"startTime","type":"uint256","internalType":"uint256"},{"name":"active","type":"bool","internalType":"bool"},{"name":"status","type":"uint8","internalType":"enum InsuranceManager.PolicyStatus"}],"stateMutability":"view"},{"type":"function","name":"getPolicy","inputs":[{"name":"_user","type":"address","internalType":"address"}],"outputs":[{"name":"","type":"tuple","internalType":"struct InsuranceManager.Policy","components":[{"name":"id","type":"uint256","internalType":"uint256"},{"name":"owner","type":"address","internalType":"address"},{"name":"coverageAmount","type":"uint256","internalType":"uint256"},{"name":"premium","type":"uint256","internalType":"uint256"},{"name":"period","type":"uint256","internalType":"uint256"},{"name":"startTime","type":"uint256","internalType":"uint256"},{"name":"active","type":"bool","internalType":"bool"},{"name":"status","type":"uint8","internalType":"enum InsuranceManager.PolicyStatus"}]}],"stateMutability":"view"},{"type":"function","name":"getPremiumFee","inputs":[{"name":"coverageAmount_","type":"uint256","internalType":"uint256"},{"name":"period_","type":"uint256","internalType":"uint256"}],"outputs":[{"name":"","type":"uint256","internalType":"uint256"}],"stateMutability":"pure"},{"type":"function","name":"nextPolicyId","inputs":[],"outputs":[{"name":"","type":"uint256","internalType":"uint256"}],"stateMutability":"view"},{"type":"function","name":"setManager","inputs":[{"name":"_manager","type":"address","internalType":"contract Manager"}],"outputs":[],"stateMutability":"nonpayable"},{"type":"event","name":"PolicyActivated","inputs":[{"name":"policyId","type":"uint256","indexed":true,"internalType":"uint256"}],"anonymous":false},{"type":"event","name":"PolicyCancelled","inputs":[{"name":"user","type":"address","indexed":true,"internalType":"address"}],"anonymous":false},{"type":"event","name":"PolicyClaimed","inputs":[{"name":"policyId","type":"uint256","indexed":true,"internalType":"uint256"}],"anonymous":false},{"type":"event","name":"PolicyCreated","inputs":[{"name":"user","type":"address","indexed":true,"internalType":"address"},{"name":"insuredAmount","type":"uint256","indexed":false,"internalType":"uint256"},{"name":"premium","type":"uint256","indexed":false,"internalType":"uint256"}],"anonymous":false},{"type":"event","name":"PolicyReviewed","inputs":[{"name":"policyId","type":"uint256","indexed":true,"internalType":"uint256"},{"name":"status","type":"uint8","indexed":false,"internalType":"enum InsuranceManager.PolicyStatus"}],"anonymous":false},{"type":"error","name":"InsurancePolicy_ExistingPolicyIsActive","inputs":[]},{"type":"error","name":"InsurancePolicy_HackDetected","inputs":[]},{"type":"error","name":"InsurancePolicy_InsufficientFunds","inputs":[{"name":"_balance","type":"uint256","internalType":"uint256"}]},{"type":"error","name":"InsurancePolicy_InvalidPolicyStatus","inputs":[]},{"type":"error","name":"InsurancePolicy_InvalidValue","inputs":[{"name":"value","type":"uint256","internalType":"uint256"}]},{"type":"error","name":"InsurancePolicy_NoActivePolicy","inputs":[]},{"type":"error","name":"InsurancePolicy_NoHackDetected","inputs":[]},{"type":"error","name":"InsurancePolicy_NotApproved","inputs":[]},{"type":"error","name":"InsurancePolicy_OnlyPolicyOwnerIsAllowed","inputs":[]},{"type":"error","name":"InsurancePolicy_PaymentUnsuccessful","inputs":[]}],"bytecode":{"object":"0x608060405234801561001057600080fd5b50600280546001600160a01b03191633179055610e55806100326000396000f3fe6080604052600436106100a75760003560e01c80639aa3ec02116100645780639aa3ec02146101f0578063b1bd793114610210578063c7e2f28e14610230578063cad0b8db14610243578063cce267f614610259578063d0ebdbe71461027957600080fd5b8063063bde24146100ac5780633791dc6a146100dd5780634ef2cc001461010a57806367e6e2f9146101215780638072f956146101a4578063992c15fc146101d4575b600080fd5b3480156100b857600080fd5b506100ca69d3c21bcecceda100000081565b6040519081526020015b60405180910390f35b3480156100e957600080fd5b506100fd6100f8366004610b2e565b6102b6565b6040516100d49190610b83565b34801561011657600080fd5b5061011f610368565b005b34801561012d57600080fd5b5061019061013c366004610b2e565b6003602081905260009182526040909120805460018201546002830154938301546004840154600585015460069095015493956001600160a01b039093169492939192909160ff8082169161010090041688565b6040516100d4989796959493929190610bef565b3480156101b057600080fd5b506101c46101bf366004610b2e565b610415565b60405190151581526020016100d4565b3480156101e057600080fd5b506100ca670de0b6b3a764000081565b3480156101fc57600080fd5b506100ca61020b366004610c44565b6104ee565b34801561021c57600080fd5b506100ca61022b366004610c8e565b610503565b6100ca61023e366004610c44565b6105d7565b34801561024f57600080fd5b506100ca60005481565b34801561026557600080fd5b5061011f610274366004610b2e565b6107da565b34801561028557600080fd5b5061011f610294366004610b2e565b600180546001600160a01b0319166001600160a01b0392909216919091179055565b6102be610aa6565b6001600160a01b03808316600090815260036020818152604092839020835161010080820186528254825260018301549096169281019290925260028101549382019390935282820154606082015260048301546080820152600583015460a0820152600683015460ff808216151560c0840152919460e086019391049091169081111561034e5761034e610b4b565b600381111561035f5761035f610b4b565b90525092915050565b336000818152600360205260409020600101546001600160a01b0316146103a2576040516335bd836160e21b815260040160405180910390fd5b336000908152600360205260409020600681015460ff166103d65760405163459bcb2960e11b815260040160405180910390fd5b60068101805461ffff191661020017905560405133907f885d66cbf95119e71ee4d46cb5794b6cae8beb42d312eebf331c1a26f50396cd90600090a250565b6001600160a01b038082166000908152600360208181526040808420815161010080820184528254825260018301549097169381019390935260028101549183019190915280830154606083015260048101546080830152600581015460a0830152600681015460ff808216151560c0850152949586959394929360e086019391909204909116908111156104ac576104ac610b4b565b60038111156104bd576104bd610b4b565b8152505090508060c0015180156104e7575080608001518160a001516104e39190610d7e565b4211155b9392505050565b60006104fa8383610a74565b90505b92915050565b6000806000846001600160a01b0316634085c8426040518163ffffffff1660e01b815260040160408051808303816000875af1158015610547573d6000803e3d6000fd5b505050506040513d601f19601f8201168201806040525081019061056b9190610d91565b9150915081158061057a575080155b1561058a576000925050506104fd565b600160e085018190525083516040517f16680ce6b8020dad634b0439f5c1c499df7f834204c844f553eefffd4b0f85a8906105c790600190610dbf565b60405180910390a2949350505050565b6000670de0b6b3a76400008310806105f8575069d3c21bcecceda100000083115b1561061e576040516351a5d88960e01b8152600481018490526024015b60405180910390fd5b600061062a8484610a74565b9050348111156106505760405163d13f5cd760e01b815260048101829052602401610615565b3360009081526003602052604090206006015460ff161561068457604051632892758d60e01b815260040160405180910390fd5b604080516101008101825260008054825233602083015291810186905260608101839052608081016106b98662015180610dcd565b815242602082015260016040820152606001600090523360009081526003602081815260409283902084518155908401516001820180546001600160a01b0319166001600160a01b039092169190911790559183015160028301556060830151828201556080830151600483015560a0830151600583015560c083015160068301805460ff198116921515928317825560e0860151959650869593919261ffff1990911661ff0019909116179061010090849081111561077b5761077b610b4b565b0217905550506000805491508061079183610de4565b9091555050604080518681526020810184905233917f93aceb1c5e55aa194781a0423a101b97efa4a051e8d2fc2ba332ca75f4e4b6a7910160405180910390a251949350505050565b336000818152600360205260409020600101546001600160a01b031614610814576040516335bd836160e21b815260040160405180910390fd5b336000908152600360208181526040808420815161010080820184528254825260018301546001600160a01b03169482019490945260028201549281019290925280840154606083015260048101546080830152600581015460a0830152600681015460ff808216151560c08501529294919360e08601939104169081111561089f5761089f610b4b565b60038111156108b0576108b0610b4b565b90525060c081015190915082906108da5760405163459bcb2960e11b815260040160405180910390fd5b8060006108e78285610503565b905060018460e00151600381111561090157610901610b4b565b1461091f576040516371673a3560e11b815260040160405180910390fd5b604051600090339083908381818185875af1925050503d8060008114610961576040519150601f19603f3d011682016040523d82523d6000602084013e610966565b606091505b50509050806109885760405163da07749b60e01b815260040160405180910390fd5b600360e08601818152336000908152602083815260409182902089518155908901516001820180546001600160a01b0319166001600160a01b039092169190911790559088015160028201556060880151818401556080880151600482015560a0880151600582015560c088015160068201805460ff198116921515928317825593518a9593949093919261ffff1990911661ff00199091161790610100908490811115610a3857610a38610b4b565b02179055505085516040519091507f9b0b73791f0d79c0dc29e8d76b2a6068c41226b28a7947998fdf6213e6ce227290600090a2505050505050565b60006103e8816237b1d084610a898488610dcd565b610a939190610dcd565b610a9d9190610dfd565b95945050505050565b6040518061010001604052806000815260200160006001600160a01b031681526020016000815260200160008152602001600081526020016000815260200160001515815260200160006003811115610b0157610b01610b4b565b905290565b6001600160a01b0381168114610b1b57600080fd5b50565b8035610b2981610b06565b919050565b600060208284031215610b4057600080fd5b81356104e781610b06565b634e487b7160e01b600052602160045260246000fd5b60048110610b7f57634e487b7160e01b600052602160045260246000fd5b9052565b6000610100820190508251825260018060a01b03602084015116602083015260408301516040830152606083015160608301526080830151608083015260a083015160a083015260c0830151151560c083015260e0830151610be860e0840182610b61565b5092915050565b8881526001600160a01b038816602082015260408101879052606081018690526080810185905260a0810184905282151560c08201526101008101610c3760e0830184610b61565b9998505050505050505050565b60008060408385031215610c5757600080fd5b50508035926020909101359150565b8015158114610b1b57600080fd5b8035610b2981610c66565b803560048110610b2957600080fd5b600080828403610120811215610ca357600080fd5b8335610cae81610b06565b9250610100601f198201811315610cc457600080fd5b604051915080820182811067ffffffffffffffff82111715610cf657634e487b7160e01b600052604160045260246000fd5b806040525060208501358252610d0e60408601610b1e565b6020830152606085013560408301526080850135606083015260a0850135608083015260c085013560a0830152610d4760e08601610c74565b60c0830152610d57818601610c7f565b60e083015250809150509250929050565b634e487b7160e01b600052601160045260246000fd5b808201808211156104fd576104fd610d68565b60008060408385031215610da457600080fd5b8251610daf81610c66565b6020939093015192949293505050565b602081016104fd8284610b61565b80820281158282048414176104fd576104fd610d68565b600060018201610df657610df6610d68565b5060010190565b600082610e1a57634e487b7160e01b600052601260045260246000fd5b50049056fea264697066735822122047de856b043906730733efa820108f32037733e9abe1a923a213351e1bed2bfd64736f6c63430008180033","linkReferences":{}},"methodIdentifiers":{"MAX_VALUE()":"063bde24","MIN_VALUE()":"992c15fc","_approvePolicy(address,(uint256,address,uint256,uint256,uint256,uint256,bool,uint8))":"b1bd7931","cancelPolicy()":"4ef2cc00","checkPolicyValidity(address)":"8072f956","claimPolicy(address)":"cce267f6","createPolicy(uint256,uint256)":"c7e2f28e","currentUserPolicy(address)":"67e6e2f9","getPolicy(address)":"3791dc6a","getPremiumFee(uint256,uint256)":"9aa3ec02","nextPolicyId()":"cad0b8db","setManager(address)":"d0ebdbe7"},"id":0}