{"abi":[{"type":"constructor","inputs":[{"name":"paymentTokenAddress_","type":"address","internalType":"address"},{"name":"poolAddress_","type":"address","internalType":"address"}],"stateMutability":"nonpayable"},{"type":"function","name":"MAX_VALUE","inputs":[],"outputs":[{"name":"","type":"uint256","internalType":"uint256"}],"stateMutability":"view"},{"type":"function","name":"MIN_VALUE","inputs":[],"outputs":[{"name":"","type":"uint256","internalType":"uint256"}],"stateMutability":"view"},{"type":"function","name":"approvePolicy","inputs":[{"name":"_user","type":"address","internalType":"address"}],"outputs":[],"stateMutability":"nonpayable"},{"type":"function","name":"cancelPolicy","inputs":[],"outputs":[],"stateMutability":"nonpayable"},{"type":"function","name":"checkPolicyValidity","inputs":[{"name":"_user","type":"address","internalType":"address"}],"outputs":[{"name":"","type":"bool","internalType":"bool"}],"stateMutability":"view"},{"type":"function","name":"claimPolicy","inputs":[],"outputs":[],"stateMutability":"nonpayable"},{"type":"function","name":"createPolicy","inputs":[{"name":"_coverageAmount","type":"uint256","internalType":"uint256"},{"name":"_premium","type":"uint256","internalType":"uint256"},{"name":"_period","type":"uint256","internalType":"uint256"}],"outputs":[{"name":"","type":"uint256","internalType":"uint256"}],"stateMutability":"nonpayable"},{"type":"function","name":"currentUserPolicy","inputs":[{"name":"","type":"address","internalType":"address"}],"outputs":[{"name":"id","type":"uint256","internalType":"uint256"},{"name":"owner","type":"address","internalType":"address"},{"name":"coverageAmount","type":"uint256","internalType":"uint256"},{"name":"premium","type":"uint256","internalType":"uint256"},{"name":"period","type":"uint256","internalType":"uint256"},{"name":"startTime","type":"uint256","internalType":"uint256"},{"name":"active","type":"bool","internalType":"bool"},{"name":"status","type":"uint8","internalType":"enum InsuranceManager.PolicyStatus"}],"stateMutability":"view"},{"type":"function","name":"getPolicy","inputs":[{"name":"_user","type":"address","internalType":"address"}],"outputs":[{"name":"","type":"tuple","internalType":"struct InsuranceManager.Policy","components":[{"name":"id","type":"uint256","internalType":"uint256"},{"name":"owner","type":"address","internalType":"address"},{"name":"coverageAmount","type":"uint256","internalType":"uint256"},{"name":"premium","type":"uint256","internalType":"uint256"},{"name":"period","type":"uint256","internalType":"uint256"},{"name":"startTime","type":"uint256","internalType":"uint256"},{"name":"active","type":"bool","internalType":"bool"},{"name":"status","type":"uint8","internalType":"enum InsuranceManager.PolicyStatus"}]}],"stateMutability":"view"},{"type":"function","name":"nextPolicyId","inputs":[],"outputs":[{"name":"","type":"uint256","internalType":"uint256"}],"stateMutability":"view"},{"type":"function","name":"paymentToken","inputs":[],"outputs":[{"name":"","type":"address","internalType":"contract IERC20"}],"stateMutability":"view"},{"type":"function","name":"setManager","inputs":[{"name":"_manager","type":"address","internalType":"contract Manager"}],"outputs":[],"stateMutability":"nonpayable"},{"type":"function","name":"yielManager","inputs":[],"outputs":[{"name":"","type":"address","internalType":"contract YieldManager"}],"stateMutability":"view"},{"type":"event","name":"PolicyActivated","inputs":[{"name":"policyId","type":"uint256","indexed":true,"internalType":"uint256"}],"anonymous":false},{"type":"event","name":"PolicyCancelled","inputs":[{"name":"user","type":"address","indexed":true,"internalType":"address"}],"anonymous":false},{"type":"event","name":"PolicyClaimed","inputs":[{"name":"policyId","type":"uint256","indexed":true,"internalType":"uint256"}],"anonymous":false},{"type":"event","name":"PolicyCreated","inputs":[{"name":"user","type":"address","indexed":true,"internalType":"address"},{"name":"insuredAmount","type":"uint256","indexed":false,"internalType":"uint256"},{"name":"premium","type":"uint256","indexed":false,"internalType":"uint256"}],"anonymous":false},{"type":"event","name":"PolicyReviewed","inputs":[{"name":"policyId","type":"uint256","indexed":true,"internalType":"uint256"},{"name":"status","type":"uint8","indexed":false,"internalType":"enum InsuranceManager.PolicyStatus"}],"anonymous":false},{"type":"error","name":"InsurancePolicy_ExistingPolicyIsActive","inputs":[]},{"type":"error","name":"InsurancePolicy_HackDetected","inputs":[]},{"type":"error","name":"InsurancePolicy_InsufficientFunds","inputs":[]},{"type":"error","name":"InsurancePolicy_InvalidPolicyStatus","inputs":[]},{"type":"error","name":"InsurancePolicy_InvalidValue","inputs":[{"name":"value","type":"uint256","internalType":"uint256"}]},{"type":"error","name":"InsurancePolicy_NoActivePolicy","inputs":[]},{"type":"error","name":"InsurancePolicy_NotApproved","inputs":[]},{"type":"error","name":"InsurancePolicy_OnlyPolicyOwnerIsAllowed","inputs":[]}],"bytecode":{"object":"0x608060405234801561001057600080fd5b5060405161204038038061204083398101604081905261002f916100e5565b30818360405161003e906100bc565b6001600160a01b03938416815291831660208301529091166040820152606001604051809103906000f08015801561007a573d6000803e3d6000fd5b50600480546001600160a01b039283166001600160a01b0319918216179091556005805494909216938116939093179055506002805490911633179055610118565b6110f180610f4f83390190565b80516001600160a01b03811681146100e057600080fd5b919050565b600080604083850312156100f857600080fd5b610101836100c9565b915061010f602084016100c9565b90509250929050565b610e28806101276000396000f3fe608060405234801561001057600080fd5b50600436106100cf5760003560e01c80634ef2cc001161008c578063992c15fc11610066578063992c15fc14610214578063cad0b8db14610223578063d0ab9a891461022c578063d0ebdbe71461023f57600080fd5b80634ef2cc001461017357806367e6e2f91461017b5780638072f956146101f157600080fd5b8063063bde24146100d4578063068aa710146100f857806314a20bea1461012357806323c264d41461012d5780633013ce29146101405780633791dc6a14610153575b600080fd5b6100e569d3c21bcecceda100000081565b6040519081526020015b60405180910390f35b60045461010b906001600160a01b031681565b6040516001600160a01b0390911681526020016100ef565b61012b61026f565b005b61012b61013b366004610bda565b6105a9565b60055461010b906001600160a01b031681565b610166610161366004610bda565b61075a565b6040516100ef9190610c2f565b61012b61080c565b6101dd610189366004610bda565b6003602081905260009182526040909120805460018201546002830154938301546004840154600585015460069095015493956001600160a01b039093169492939192909160ff8082169161010090041688565b6040516100ef989796959493929190610c9b565b6102046101ff366004610bda565b6108b9565b60405190151581526020016100ef565b6100e5670de0b6b3a764000081565b6100e560005481565b6100e561023a366004610cf0565b610992565b61012b61024d366004610bda565b600180546001600160a01b0319166001600160a01b0392909216919091179055565b336000818152600360205260409020600101546001600160a01b0316146102a9576040516335bd836160e21b815260040160405180910390fd5b336000908152600360208181526040808420815161010080820184528254825260018301546001600160a01b03169482019490945260028201549281019290925280840154606083015260048101546080830152600581015460a0830152600681015460ff808216151560c08501529294919360e08601939104169081111561033457610334610bf7565b600381111561034557610345610bf7565b905250905060018160e00151600381111561036257610362610bf7565b14610380576040516371673a3560e11b815260040160405180910390fd5b6001546040516377c4618f60e11b81523360048201526000916001600160a01b03169063ef88c31e90602401602060405180830381865afa1580156103c9573d6000803e3d6000fd5b505050506040513d601f19601f820116820180604052508101906103ed9190610d1c565b90506000336001600160a01b0316826001600160a01b03166312065fe06040518163ffffffff1660e01b8152600401602060405180830381865afa158015610439573d6000803e3d6000fd5b505050506040513d601f19601f8201168201806040525081019061045d9190610d39565b604051600081818185875af1925050503d8060008114610499576040519150601f19603f3d011682016040523d82523d6000602084013e61049e565b606091505b50509050806104c0576040516315d0426960e31b815260040160405180910390fd5b600360e08401818152336000908152602083815260409182902087518155908701516001820180546001600160a01b0319166001600160a01b039092169190911790559086015160028201556060860151818401556080860151600482015560a0860151600582015560c086015160068201805460ff19811692151592831782559351889593949093919261ffff1990911661ff0019909116179061010090849081111561057057610570610bf7565b02179055505083516040519091507f9b0b73791f0d79c0dc29e8d76b2a6068c41226b28a7947998fdf6213e6ce227290600090a2505050565b6001600160a01b0381811660009081526003602052604090206001015482911633146105e8576040516335bd836160e21b815260040160405180910390fd5b6001546040516377c4618f60e11b81526001600160a01b038481166004830152600092169063ef88c31e90602401602060405180830381865afa158015610633573d6000803e3d6000fd5b505050506040513d601f19601f820116820180604052508101906106579190610d1c565b9050600080826001600160a01b0316634085c8426040518163ffffffff1660e01b815260040160408051808303816000875af115801561069b573d6000803e3d6000fd5b505050506040513d601f19601f820116820180604052508101906106bf9190610d52565b6001600160a01b0387166000908152600360205260409020919350915082806106e85750600082115b156107065760405163765c1d4960e11b815260040160405180910390fd5b60068101805461ff00191661010017905580546040517f16680ce6b8020dad634b0439f5c1c499df7f834204c844f553eefffd4b0f85a89061074a90600190610d85565b60405180910390a2505050505050565b610762610b62565b6001600160a01b03808316600090815260036020818152604092839020835161010080820186528254825260018301549096169281019290925260028101549382019390935282820154606082015260048301546080820152600583015460a0820152600683015460ff808216151560c0840152919460e08601939104909116908111156107f2576107f2610bf7565b600381111561080357610803610bf7565b90525092915050565b336000818152600360205260409020600101546001600160a01b031614610846576040516335bd836160e21b815260040160405180910390fd5b336000908152600360205260409020600681015460ff1661087a5760405163459bcb2960e11b815260040160405180910390fd5b60068101805461ffff191661020017905560405133907f885d66cbf95119e71ee4d46cb5794b6cae8beb42d312eebf331c1a26f50396cd90600090a250565b6001600160a01b038082166000908152600360208181526040808420815161010080820184528254825260018301549097169381019390935260028101549183019190915280830154606083015260048101546080830152600581015460a0830152600681015460ff808216151560c0850152949586959394929360e0860193919092049091169081111561095057610950610bf7565b600381111561096157610961610bf7565b8152505090508060c00151801561098b575080608001518160a001516109879190610daf565b4211155b9392505050565b6000670de0b6b3a76400008410806109b3575069d3c21bcecceda100000084115b156109d8576040516351a5d88960e01b81526004810185905260240160405180910390fd5b3360009081526003602052604090206006015460ff1615610a0c57604051632892758d60e01b815260040160405180910390fd5b60408051610100810182526000805482523360208301529181018690526060810185905260808101610a418562015180610dc2565b815242602082015260016040820152606001600090523360009081526003602081815260409283902084518155908401516001820180546001600160a01b0319166001600160a01b039092169190911790559183015160028301556060830151828201556080830151600483015560a0830151600583015560c083015160068301805460ff198116921515928317825560e0860151959650869593919261ffff1990911661ff00199091161790610100908490811115610b0357610b03610bf7565b02179055505060008054915080610b1983610dd9565b9091555050604080518681526020810186905233917f93aceb1c5e55aa194781a0423a101b97efa4a051e8d2fc2ba332ca75f4e4b6a7910160405180910390a251949350505050565b6040518061010001604052806000815260200160006001600160a01b031681526020016000815260200160008152602001600081526020016000815260200160001515815260200160006003811115610bbd57610bbd610bf7565b905290565b6001600160a01b0381168114610bd757600080fd5b50565b600060208284031215610bec57600080fd5b813561098b81610bc2565b634e487b7160e01b600052602160045260246000fd5b60048110610c2b57634e487b7160e01b600052602160045260246000fd5b9052565b6000610100820190508251825260018060a01b03602084015116602083015260408301516040830152606083015160608301526080830151608083015260a083015160a083015260c0830151151560c083015260e0830151610c9460e0840182610c0d565b5092915050565b8881526001600160a01b038816602082015260408101879052606081018690526080810185905260a0810184905282151560c08201526101008101610ce360e0830184610c0d565b9998505050505050505050565b600080600060608486031215610d0557600080fd5b505081359360208301359350604090920135919050565b600060208284031215610d2e57600080fd5b815161098b81610bc2565b600060208284031215610d4b57600080fd5b5051919050565b60008060408385031215610d6557600080fd5b82518015158114610d7557600080fd5b6020939093015192949293505050565b60208101610d938284610c0d565b92915050565b634e487b7160e01b600052601160045260246000fd5b80820180821115610d9357610d93610d99565b8082028115828204841417610d9357610d93610d99565b600060018201610deb57610deb610d99565b506001019056fea2646970667358221220191e20d78743f228543173ab3c2d6bbb3c0db64b91f204974686afdc2f27bee364736f6c6343000818003360806040523480156200001157600080fd5b50604051620010f1380380620010f1833981016040819052620000349162000145565b600280546001600160a01b038085166001600160a01b0319928316179092556005805486841690831617905560038054928416929091169190911790556200007c81620000a6565b600480546001600160a01b0319166001600160a01b0392909216919091179055506200039d915050565b6002546040516335ea6a7560e01b81526001600160a01b03838116600483015260009283929116906335ea6a75906024016101e060405180830381865afa158015620000f6573d6000803e3d6000fd5b505050506040513d601f19601f820116820180604052508101906200011c919062000259565b61010001519392505050565b80516001600160a01b03811681146200014057600080fd5b919050565b6000806000606084860312156200015b57600080fd5b620001668462000128565b9250620001766020850162000128565b9150620001866040850162000128565b90509250925092565b6040516101e081016001600160401b0381118282101715620001c157634e487b7160e01b600052604160045260246000fd5b60405290565b600060208284031215620001da57600080fd5b604051602081016001600160401b03811182821017156200020b57634e487b7160e01b600052604160045260246000fd5b6040529151825250919050565b80516001600160801b03811681146200014057600080fd5b805164ffffffffff811681146200014057600080fd5b805161ffff811681146200014057600080fd5b60006101e082840312156200026d57600080fd5b620002776200018f565b620002838484620001c7565b8152620002936020840162000218565b6020820152620002a66040840162000218565b6040820152620002b96060840162000218565b6060820152620002cc6080840162000218565b6080820152620002df60a0840162000218565b60a0820152620002f260c0840162000230565b60c08201526200030560e0840162000246565b60e08201526101006200031a81850162000128565b908201526101206200032e84820162000128565b908201526101406200034284820162000128565b908201526101606200035684820162000128565b908201526101806200036a84820162000218565b908201526101a06200037e84820162000218565b908201526101c06200039284820162000218565b908201529392505050565b610d4480620003ad6000396000f3fe608060405234801561001057600080fd5b50600436106101155760003560e01c8063809dab6a116100a2578063b6b55f2511610071578063b6b55f2514610248578063ca15c8731461025b578063d547741f1461026e578063dcfc0ced14610281578063fd5690801461029457600080fd5b8063809dab6a146102125780639010d07c1461021a57806391d148541461022d578063a217fddf1461024057600080fd5b80632710ac80116100e95780632710ac80146101b15780632f2ff15d146101c45780633013ce29146101d957806336568abe146101ec578063711cc005146101ff57600080fd5b8062f714ce1461011a57806301ffc9a71461014057806316f0115b14610163578063248a9ca31461018e575b600080fd5b61012d6101283660046109d2565b6102bb565b6040519081526020015b60405180910390f35b61015361014e366004610a02565b61034a565b6040519015158152602001610137565b600254610176906001600160a01b031681565b6040516001600160a01b039091168152602001610137565b61012d61019c366004610a2c565b60009081526020819052604090206001015490565b600554610176906001600160a01b031681565b6101d76101d23660046109d2565b61036f565b005b600354610176906001600160a01b031681565b6101d76101fa3660046109d2565b61039a565b61017661020d366004610a45565b6103d2565b61012d610451565b610176610228366004610a62565b6104c8565b61015361023b3660046109d2565b6104e0565b61012d600081565b6101d7610256366004610a2c565b610509565b61012d610269366004610a2c565b6105fb565b6101d761027c3660046109d2565b610612565b600454610176906001600160a01b031681565b61012d7f0b86e3ab1ef8d51f0f6a0aa1032bd952fc0ac04bcdc6bfdb0715bf83bf26d29a81565b600254600354604051631a4ca37b60e21b81526001600160a01b03918216600482015260248101859052838216604482015260009291909116906369328dec906064016020604051808303816000875af115801561031d573d6000803e3d6000fd5b505050506040513d601f19601f820116820180604052508101906103419190610a84565b90505b92915050565b60006001600160e01b03198216635a05180f60e01b1480610344575061034482610637565b60008281526020819052604090206001015461038a8161066c565b6103948383610679565b50505050565b6001600160a01b03811633146103c35760405163334bd91960e11b815260040160405180910390fd5b6103cd82826106ae565b505050565b6002546040516335ea6a7560e01b81526001600160a01b03838116600483015260009283929116906335ea6a75906024016101e060405180830381865afa158015610421573d6000803e3d6000fd5b505050506040513d601f19601f820116820180604052508101906104459190610b7c565b61010001519392505050565b600480546040516370a0823160e01b815230928101929092526000916001600160a01b03909116906370a0823190602401602060405180830381865afa15801561049f573d6000803e3d6000fd5b505050506040513d601f19601f820116820180604052508101906104c39190610a84565b905090565b600082815260016020526040812061034190836106db565b6000918252602082815260408084206001600160a01b0393909316845291905290205460ff1690565b60035460025460405163095ea7b360e01b81526001600160a01b0391821660048201526024810184905291169063095ea7b3906044016020604051808303816000875af115801561055e573d6000803e3d6000fd5b505050506040513d601f19601f820116820180604052508101906105829190610c9f565b5060025460035460405163e8eda9df60e01b81526001600160a01b039182166004820152602481018490523060448201526000606482015291169063e8eda9df90608401600060405180830381600087803b1580156105e057600080fd5b505af11580156105f4573d6000803e3d6000fd5b5050505050565b6000818152600160205260408120610344906106e7565b60008281526020819052604090206001015461062d8161066c565b61039483836106ae565b60006001600160e01b03198216637965db0b60e01b148061034457506301ffc9a760e01b6001600160e01b0319831614610344565b61067681336106f1565b50565b6000806106868484610732565b905080156103415760008481526001602052604090206106a690846107c4565b509392505050565b6000806106bb84846107d9565b905080156103415760008481526001602052604090206106a69084610844565b60006103418383610859565b6000610344825490565b6106fb82826104e0565b61072e5760405163e2517d3f60e01b81526001600160a01b03821660048201526024810183905260440160405180910390fd5b5050565b600061073e83836104e0565b6107bc576000838152602081815260408083206001600160a01b03861684529091529020805460ff191660011790556107743390565b6001600160a01b0316826001600160a01b0316847f2f8788117e7eff1d82e926ec794901d17c78024a50270940304540a733656f0d60405160405180910390a4506001610344565b506000610344565b6000610341836001600160a01b038416610883565b60006107e583836104e0565b156107bc576000838152602081815260408083206001600160a01b0386168085529252808320805460ff1916905551339286917ff6391f5c32d9c69d2a47ea670b442974b53935d1edc7fd64eb21e047a839171b9190a4506001610344565b6000610341836001600160a01b0384166108ca565b600082600001828154811061087057610870610cc1565b9060005260206000200154905092915050565b60008181526001830160205260408120546107bc57508154600181810184556000848152602080822090930184905584548482528286019093526040902091909155610344565b600081815260018301602052604081205480156109b35760006108ee600183610cd7565b855490915060009061090290600190610cd7565b905080821461096757600086600001828154811061092257610922610cc1565b906000526020600020015490508087600001848154811061094557610945610cc1565b6000918252602080832090910192909255918252600188019052604090208390555b855486908061097857610978610cf8565b600190038181906000526020600020016000905590558560010160008681526020019081526020016000206000905560019350505050610344565b6000915050610344565b6001600160a01b038116811461067657600080fd5b600080604083850312156109e557600080fd5b8235915060208301356109f7816109bd565b809150509250929050565b600060208284031215610a1457600080fd5b81356001600160e01b03198116811461034157600080fd5b600060208284031215610a3e57600080fd5b5035919050565b600060208284031215610a5757600080fd5b8135610341816109bd565b60008060408385031215610a7557600080fd5b50508035926020909101359150565b600060208284031215610a9657600080fd5b5051919050565b6040516101e0810167ffffffffffffffff81118282101715610acf57634e487b7160e01b600052604160045260246000fd5b60405290565b600060208284031215610ae757600080fd5b6040516020810181811067ffffffffffffffff82111715610b1857634e487b7160e01b600052604160045260246000fd5b6040529151825250919050565b80516fffffffffffffffffffffffffffffffff81168114610b4557600080fd5b919050565b805164ffffffffff81168114610b4557600080fd5b805161ffff81168114610b4557600080fd5b8051610b45816109bd565b60006101e08284031215610b8f57600080fd5b610b97610a9d565b610ba18484610ad5565b8152610baf60208401610b25565b6020820152610bc060408401610b25565b6040820152610bd160608401610b25565b6060820152610be260808401610b25565b6080820152610bf360a08401610b25565b60a0820152610c0460c08401610b4a565b60c0820152610c1560e08401610b5f565b60e0820152610100610c28818501610b71565b90820152610120610c3a848201610b71565b90820152610140610c4c848201610b71565b90820152610160610c5e848201610b71565b90820152610180610c70848201610b25565b908201526101a0610c82848201610b25565b908201526101c0610c94848201610b25565b908201529392505050565b600060208284031215610cb157600080fd5b8151801515811461034157600080fd5b634e487b7160e01b600052603260045260246000fd5b8181038181111561034457634e487b7160e01b600052601160045260246000fd5b634e487b7160e01b600052603160045260246000fdfea264697066735822122007524a76b9faee017c53a3d85cb5af924b0614ae9f37340d162528e6335fa4a664736f6c63430008180033","linkReferences":{}},"methodIdentifiers":{"MAX_VALUE()":"063bde24","MIN_VALUE()":"992c15fc","approvePolicy(address)":"23c264d4","cancelPolicy()":"4ef2cc00","checkPolicyValidity(address)":"8072f956","claimPolicy()":"14a20bea","createPolicy(uint256,uint256,uint256)":"d0ab9a89","currentUserPolicy(address)":"67e6e2f9","getPolicy(address)":"3791dc6a","nextPolicyId()":"cad0b8db","paymentToken()":"3013ce29","setManager(address)":"d0ebdbe7","yielManager()":"068aa710"},"id":0}