{"abi":[{"type":"constructor","inputs":[],"stateMutability":"nonpayable"},{"type":"function","name":"MAX_VALUE","inputs":[],"outputs":[{"name":"","type":"uint256","internalType":"uint256"}],"stateMutability":"view"},{"type":"function","name":"MIN_VALUE","inputs":[],"outputs":[{"name":"","type":"uint256","internalType":"uint256"}],"stateMutability":"view"},{"type":"function","name":"cancelPolicy","inputs":[],"outputs":[],"stateMutability":"nonpayable"},{"type":"function","name":"checkPolicyValidity","inputs":[{"name":"_user","type":"address","internalType":"address"}],"outputs":[{"name":"","type":"bool","internalType":"bool"}],"stateMutability":"view"},{"type":"function","name":"claimPolicy","inputs":[],"outputs":[],"stateMutability":"nonpayable"},{"type":"function","name":"createPolicy","inputs":[{"name":"_coverageAmount","type":"uint256","internalType":"uint256"},{"name":"_period","type":"uint256","internalType":"uint256"}],"outputs":[{"name":"","type":"uint256","internalType":"uint256"}],"stateMutability":"payable"},{"type":"function","name":"currentUserPolicy","inputs":[{"name":"","type":"address","internalType":"address"}],"outputs":[{"name":"id","type":"uint256","internalType":"uint256"},{"name":"owner","type":"address","internalType":"address"},{"name":"coverageAmount","type":"uint256","internalType":"uint256"},{"name":"premium","type":"uint256","internalType":"uint256"},{"name":"period","type":"uint256","internalType":"uint256"},{"name":"startTime","type":"uint256","internalType":"uint256"},{"name":"active","type":"bool","internalType":"bool"},{"name":"status","type":"uint8","internalType":"enum InsuranceManager.PolicyStatus"}],"stateMutability":"view"},{"type":"function","name":"getPolicy","inputs":[{"name":"_user","type":"address","internalType":"address"}],"outputs":[{"name":"","type":"tuple","internalType":"struct InsuranceManager.Policy","components":[{"name":"id","type":"uint256","internalType":"uint256"},{"name":"owner","type":"address","internalType":"address"},{"name":"coverageAmount","type":"uint256","internalType":"uint256"},{"name":"premium","type":"uint256","internalType":"uint256"},{"name":"period","type":"uint256","internalType":"uint256"},{"name":"startTime","type":"uint256","internalType":"uint256"},{"name":"active","type":"bool","internalType":"bool"},{"name":"status","type":"uint8","internalType":"enum InsuranceManager.PolicyStatus"}]}],"stateMutability":"view"},{"type":"function","name":"getPremiumFee","inputs":[{"name":"coverageAmount_","type":"uint256","internalType":"uint256"},{"name":"period_","type":"uint256","internalType":"uint256"}],"outputs":[{"name":"","type":"uint256","internalType":"uint256"}],"stateMutability":"pure"},{"type":"function","name":"nextPolicyId","inputs":[],"outputs":[{"name":"","type":"uint256","internalType":"uint256"}],"stateMutability":"view"},{"type":"function","name":"setManager","inputs":[{"name":"_manager","type":"address","internalType":"contract Manager"}],"outputs":[],"stateMutability":"nonpayable"},{"type":"event","name":"PolicyActivated","inputs":[{"name":"policyId","type":"uint256","indexed":true,"internalType":"uint256"}],"anonymous":false},{"type":"event","name":"PolicyCancelled","inputs":[{"name":"user","type":"address","indexed":true,"internalType":"address"}],"anonymous":false},{"type":"event","name":"PolicyClaimed","inputs":[{"name":"policyId","type":"uint256","indexed":true,"internalType":"uint256"}],"anonymous":false},{"type":"event","name":"PolicyCreated","inputs":[{"name":"user","type":"address","indexed":true,"internalType":"address"},{"name":"insuredAmount","type":"uint256","indexed":false,"internalType":"uint256"},{"name":"premium","type":"uint256","indexed":false,"internalType":"uint256"}],"anonymous":false},{"type":"event","name":"PolicyReviewed","inputs":[{"name":"policyId","type":"uint256","indexed":true,"internalType":"uint256"},{"name":"status","type":"uint8","indexed":false,"internalType":"enum InsuranceManager.PolicyStatus"}],"anonymous":false},{"type":"error","name":"InsurancePolicy_ExistingPolicyIsActive","inputs":[]},{"type":"error","name":"InsurancePolicy_HackDetected","inputs":[]},{"type":"error","name":"InsurancePolicy_InsufficientFunds","inputs":[{"name":"_balance","type":"uint256","internalType":"uint256"}]},{"type":"error","name":"InsurancePolicy_InvalidPolicyStatus","inputs":[]},{"type":"error","name":"InsurancePolicy_InvalidValue","inputs":[{"name":"value","type":"uint256","internalType":"uint256"}]},{"type":"error","name":"InsurancePolicy_NoActivePolicy","inputs":[]},{"type":"error","name":"InsurancePolicy_NoHackDetected","inputs":[]},{"type":"error","name":"InsurancePolicy_NotApproved","inputs":[]},{"type":"error","name":"InsurancePolicy_OnlyPolicyOwnerIsAllowed","inputs":[]},{"type":"error","name":"InsurancePolicy_PaymentUnsuccessful","inputs":[]}],"bytecode":{"object":"0x608060405234801561001057600080fd5b50600280546001600160a01b03191633179055610d9d806100326000396000f3fe60806040526004361061009c5760003560e01c80638072f956116100645780638072f956146101ae578063992c15fc146101de5780639aa3ec02146101fa578063c7e2f28e1461021a578063cad0b8db1461022d578063d0ebdbe71461024357600080fd5b8063063bde24146100a157806314a20bea146100d25780633791dc6a146100e95780634ef2cc001461011657806367e6e2f91461012b575b600080fd5b3480156100ad57600080fd5b506100bf69d3c21bcecceda100000081565b6040519081526020015b60405180910390f35b3480156100de57600080fd5b506100e7610280565b005b3480156100f557600080fd5b50610109610104366004610b56565b610588565b6040516100c99190610bab565b34801561012257600080fd5b506100e761063a565b34801561013757600080fd5b5061019a610146366004610b56565b6003602081905260009182526040909120805460018201546002830154938301546004840154600585015460069095015493956001600160a01b039093169492939192909160ff8082169161010090041688565b6040516100c9989796959493929190610c17565b3480156101ba57600080fd5b506101ce6101c9366004610b56565b6106e7565b60405190151581526020016100c9565b3480156101ea57600080fd5b506100bf670de0b6b3a764000081565b34801561020657600080fd5b506100bf610215366004610c6c565b6107c0565b6100bf610228366004610c6c565b6107d5565b34801561023957600080fd5b506100bf60005481565b34801561024f57600080fd5b506100e761025e366004610b56565b600180546001600160a01b0319166001600160a01b0392909216919091179055565b336000818152600360205260409020600101546001600160a01b0316146102ba576040516335bd836160e21b815260040160405180910390fd5b336000908152600360208181526040808420815161010080820184528254825260018301546001600160a01b03169482019490945260028201549281019290925280840154606083015260048101546080830152600581015460a0830152600681015460ff808216151560c08501529294919360e08601939104169081111561034557610345610b73565b600381111561035657610356610b73565b9052506001546040516377c4618f60e11b81523360048201529192506000916001600160a01b039091169063ef88c31e90602401602060405180830381865afa1580156103a7573d6000803e3d6000fd5b505050506040513d601f19601f820116820180604052508101906103cb9190610c8e565b90508160c001516103ef5760405163459bcb2960e11b815260040160405180910390fd5b8060006103fc82856109d8565b905060018460e00151600381111561041657610416610b73565b14610434576040516371673a3560e11b815260040160405180910390fd5b604051600090339083908381818185875af1925050503d8060008114610476576040519150601f19603f3d011682016040523d82523d6000602084013e61047b565b606091505b505090508061049d5760405163da07749b60e01b815260040160405180910390fd5b600360e08601818152336000908152602083815260409182902089518155908901516001820180546001600160a01b0319166001600160a01b039092169190911790559088015160028201556060880151818401556080880151600482015560a0880151600582015560c088015160068201805460ff198116921515928317825593518a9593949093919261ffff1990911661ff0019909116179061010090849081111561054d5761054d610b73565b02179055505085516040519091507f9b0b73791f0d79c0dc29e8d76b2a6068c41226b28a7947998fdf6213e6ce227290600090a25050505050565b610590610ade565b6001600160a01b03808316600090815260036020818152604092839020835161010080820186528254825260018301549096169281019290925260028101549382019390935282820154606082015260048301546080820152600583015460a0820152600683015460ff808216151560c0840152919460e086019391049091169081111561062057610620610b73565b600381111561063157610631610b73565b90525092915050565b336000818152600360205260409020600101546001600160a01b031614610674576040516335bd836160e21b815260040160405180910390fd5b336000908152600360205260409020600681015460ff166106a85760405163459bcb2960e11b815260040160405180910390fd5b60068101805461ffff191661020017905560405133907f885d66cbf95119e71ee4d46cb5794b6cae8beb42d312eebf331c1a26f50396cd90600090a250565b6001600160a01b038082166000908152600360208181526040808420815161010080820184528254825260018301549097169381019390935260028101549183019190915280830154606083015260048101546080830152600581015460a0830152600681015460ff808216151560c0850152949586959394929360e0860193919092049091169081111561077e5761077e610b73565b600381111561078f5761078f610b73565b8152505090508060c0015180156107b9575080608001518160a001516107b59190610cc1565b4211155b9392505050565b60006107cc8383610aac565b90505b92915050565b6000670de0b6b3a76400008310806107f6575069d3c21bcecceda100000083115b1561081c576040516351a5d88960e01b8152600481018490526024015b60405180910390fd5b60006108288484610aac565b90503481111561084e5760405163d13f5cd760e01b815260048101829052602401610813565b3360009081526003602052604090206006015460ff161561088257604051632892758d60e01b815260040160405180910390fd5b604080516101008101825260008054825233602083015291810186905260608101839052608081016108b78662015180610cd4565b815242602082015260016040820152606001600090523360009081526003602081815260409283902084518155908401516001820180546001600160a01b0319166001600160a01b039092169190911790559183015160028301556060830151828201556080830151600483015560a0830151600583015560c083015160068301805460ff198116921515928317825560e0860151959650869593919261ffff1990911661ff0019909116179061010090849081111561097957610979610b73565b0217905550506000805491508061098f83610ceb565b9091555050604080518681526020810184905233917f93aceb1c5e55aa194781a0423a101b97efa4a051e8d2fc2ba332ca75f4e4b6a7910160405180910390a251949350505050565b6000806000846001600160a01b0316634085c8426040518163ffffffff1660e01b815260040160408051808303816000875af1158015610a1c573d6000803e3d6000fd5b505050506040513d601f19601f82011682018060405250810190610a409190610d04565b91509150811580610a4f575080155b15610a5f576000925050506107cf565b600160e085018190525083516040517f16680ce6b8020dad634b0439f5c1c499df7f834204c844f553eefffd4b0f85a890610a9c90600190610d37565b60405180910390a2949350505050565b60006103e8816237b1d084610ac18488610cd4565b610acb9190610cd4565b610ad59190610d45565b95945050505050565b6040518061010001604052806000815260200160006001600160a01b031681526020016000815260200160008152602001600081526020016000815260200160001515815260200160006003811115610b3957610b39610b73565b905290565b6001600160a01b0381168114610b5357600080fd5b50565b600060208284031215610b6857600080fd5b81356107b981610b3e565b634e487b7160e01b600052602160045260246000fd5b60048110610ba757634e487b7160e01b600052602160045260246000fd5b9052565b6000610100820190508251825260018060a01b03602084015116602083015260408301516040830152606083015160608301526080830151608083015260a083015160a083015260c0830151151560c083015260e0830151610c1060e0840182610b89565b5092915050565b8881526001600160a01b038816602082015260408101879052606081018690526080810185905260a0810184905282151560c08201526101008101610c5f60e0830184610b89565b9998505050505050505050565b60008060408385031215610c7f57600080fd5b50508035926020909101359150565b600060208284031215610ca057600080fd5b81516107b981610b3e565b634e487b7160e01b600052601160045260246000fd5b808201808211156107cf576107cf610cab565b80820281158282048414176107cf576107cf610cab565b600060018201610cfd57610cfd610cab565b5060010190565b60008060408385031215610d1757600080fd5b82518015158114610d2757600080fd5b6020939093015192949293505050565b602081016107cf8284610b89565b600082610d6257634e487b7160e01b600052601260045260246000fd5b50049056fea264697066735822122000da2afb04963762309556c297c5e40186d70e5ae6814d1498fee7f872c027ed64736f6c63430008180033","linkReferences":{}},"methodIdentifiers":{"MAX_VALUE()":"063bde24","MIN_VALUE()":"992c15fc","cancelPolicy()":"4ef2cc00","checkPolicyValidity(address)":"8072f956","claimPolicy()":"14a20bea","createPolicy(uint256,uint256)":"c7e2f28e","currentUserPolicy(address)":"67e6e2f9","getPolicy(address)":"3791dc6a","getPremiumFee(uint256,uint256)":"9aa3ec02","nextPolicyId()":"cad0b8db","setManager(address)":"d0ebdbe7"},"id":0}