{"abi":[{"type":"constructor","inputs":[],"stateMutability":"nonpayable"},{"type":"function","name":"MAX_VALUE","inputs":[],"outputs":[{"name":"","type":"uint256","internalType":"uint256"}],"stateMutability":"view"},{"type":"function","name":"MIN_VALUE","inputs":[],"outputs":[{"name":"","type":"uint256","internalType":"uint256"}],"stateMutability":"view"},{"type":"function","name":"approvePolicy","inputs":[{"name":"_user","type":"address","internalType":"address"}],"outputs":[],"stateMutability":"nonpayable"},{"type":"function","name":"cancelPolicy","inputs":[],"outputs":[],"stateMutability":"nonpayable"},{"type":"function","name":"checkPolicyValidity","inputs":[{"name":"_user","type":"address","internalType":"address"}],"outputs":[{"name":"","type":"bool","internalType":"bool"}],"stateMutability":"view"},{"type":"function","name":"claimPolicy","inputs":[],"outputs":[],"stateMutability":"nonpayable"},{"type":"function","name":"createPolicy","inputs":[{"name":"_coverageAmount","type":"uint256","internalType":"uint256"},{"name":"_period","type":"uint256","internalType":"uint256"}],"outputs":[{"name":"","type":"uint256","internalType":"uint256"}],"stateMutability":"payable"},{"type":"function","name":"currentUserPolicy","inputs":[{"name":"","type":"address","internalType":"address"}],"outputs":[{"name":"id","type":"uint256","internalType":"uint256"},{"name":"owner","type":"address","internalType":"address"},{"name":"coverageAmount","type":"uint256","internalType":"uint256"},{"name":"premium","type":"uint256","internalType":"uint256"},{"name":"period","type":"uint256","internalType":"uint256"},{"name":"startTime","type":"uint256","internalType":"uint256"},{"name":"active","type":"bool","internalType":"bool"},{"name":"status","type":"uint8","internalType":"enum InsuranceManager.PolicyStatus"}],"stateMutability":"view"},{"type":"function","name":"getPolicy","inputs":[{"name":"_user","type":"address","internalType":"address"}],"outputs":[{"name":"","type":"tuple","internalType":"struct InsuranceManager.Policy","components":[{"name":"id","type":"uint256","internalType":"uint256"},{"name":"owner","type":"address","internalType":"address"},{"name":"coverageAmount","type":"uint256","internalType":"uint256"},{"name":"premium","type":"uint256","internalType":"uint256"},{"name":"period","type":"uint256","internalType":"uint256"},{"name":"startTime","type":"uint256","internalType":"uint256"},{"name":"active","type":"bool","internalType":"bool"},{"name":"status","type":"uint8","internalType":"enum InsuranceManager.PolicyStatus"}]}],"stateMutability":"view"},{"type":"function","name":"getPremiumFee","inputs":[{"name":"coverageAmount_","type":"uint256","internalType":"uint256"},{"name":"period_","type":"uint256","internalType":"uint256"}],"outputs":[{"name":"","type":"uint256","internalType":"uint256"}],"stateMutability":"pure"},{"type":"function","name":"nextPolicyId","inputs":[],"outputs":[{"name":"","type":"uint256","internalType":"uint256"}],"stateMutability":"view"},{"type":"function","name":"setManager","inputs":[{"name":"_manager","type":"address","internalType":"contract Manager"}],"outputs":[],"stateMutability":"nonpayable"},{"type":"event","name":"PolicyActivated","inputs":[{"name":"policyId","type":"uint256","indexed":true,"internalType":"uint256"}],"anonymous":false},{"type":"event","name":"PolicyCancelled","inputs":[{"name":"user","type":"address","indexed":true,"internalType":"address"}],"anonymous":false},{"type":"event","name":"PolicyClaimed","inputs":[{"name":"policyId","type":"uint256","indexed":true,"internalType":"uint256"}],"anonymous":false},{"type":"event","name":"PolicyCreated","inputs":[{"name":"user","type":"address","indexed":true,"internalType":"address"},{"name":"insuredAmount","type":"uint256","indexed":false,"internalType":"uint256"},{"name":"premium","type":"uint256","indexed":false,"internalType":"uint256"}],"anonymous":false},{"type":"event","name":"PolicyReviewed","inputs":[{"name":"policyId","type":"uint256","indexed":true,"internalType":"uint256"},{"name":"status","type":"uint8","indexed":false,"internalType":"enum InsuranceManager.PolicyStatus"}],"anonymous":false},{"type":"error","name":"InsurancePolicy_ExistingPolicyIsActive","inputs":[]},{"type":"error","name":"InsurancePolicy_HackDetected","inputs":[]},{"type":"error","name":"InsurancePolicy_InsufficientFunds","inputs":[{"name":"_balance","type":"uint256","internalType":"uint256"}]},{"type":"error","name":"InsurancePolicy_InvalidPolicyStatus","inputs":[]},{"type":"error","name":"InsurancePolicy_InvalidValue","inputs":[{"name":"value","type":"uint256","internalType":"uint256"}]},{"type":"error","name":"InsurancePolicy_NoActivePolicy","inputs":[]},{"type":"error","name":"InsurancePolicy_NotApproved","inputs":[]},{"type":"error","name":"InsurancePolicy_OnlyPolicyOwnerIsAllowed","inputs":[]},{"type":"error","name":"InsurancePolicy_PaymentUnsuccessful","inputs":[]}],"bytecode":{"object":"0x608060405234801561001057600080fd5b50600280546001600160a01b03191633179055610ef0806100326000396000f3fe6080604052600436106100a75760003560e01c80638072f956116100645780638072f956146101d9578063992c15fc146102095780639aa3ec0214610225578063c7e2f28e14610245578063cad0b8db14610258578063d0ebdbe71461026e57600080fd5b8063063bde24146100ac57806314a20bea146100dd57806323c264d4146100f45780633791dc6a146101145780634ef2cc001461014157806367e6e2f914610156575b600080fd5b3480156100b857600080fd5b506100ca69d3c21bcecceda100000081565b6040519081526020015b60405180910390f35b3480156100e957600080fd5b506100f26102ab565b005b34801561010057600080fd5b506100f261010f366004610c90565b6105e5565b34801561012057600080fd5b5061013461012f366004610c90565b610796565b6040516100d49190610ce5565b34801561014d57600080fd5b506100f2610848565b34801561016257600080fd5b506101c5610171366004610c90565b6003602081905260009182526040909120805460018201546002830154938301546004840154600585015460069095015493956001600160a01b039093169492939192909160ff8082169161010090041688565b6040516100d4989796959493929190610d51565b3480156101e557600080fd5b506101f96101f4366004610c90565b6108f5565b60405190151581526020016100d4565b34801561021557600080fd5b506100ca670de0b6b3a764000081565b34801561023157600080fd5b506100ca610240366004610da6565b6109ce565b6100ca610253366004610da6565b6109e3565b34801561026457600080fd5b506100ca60005481565b34801561027a57600080fd5b506100f2610289366004610c90565b600180546001600160a01b0319166001600160a01b0392909216919091179055565b336000818152600360205260409020600101546001600160a01b0316146102e5576040516335bd836160e21b815260040160405180910390fd5b336000908152600360208181526040808420815161010080820184528254825260018301546001600160a01b03169482019490945260028201549281019290925280840154606083015260048101546080830152600581015460a0830152600681015460ff808216151560c08501529294919360e08601939104169081111561037057610370610cad565b600381111561038157610381610cad565b905250905060018160e00151600381111561039e5761039e610cad565b146103bc576040516371673a3560e11b815260040160405180910390fd5b6001546040516377c4618f60e11b81523360048201526000916001600160a01b03169063ef88c31e90602401602060405180830381865afa158015610405573d6000803e3d6000fd5b505050506040513d601f19601f820116820180604052508101906104299190610dc8565b90506000336001600160a01b0316826001600160a01b03166312065fe06040518163ffffffff1660e01b8152600401602060405180830381865afa158015610475573d6000803e3d6000fd5b505050506040513d601f19601f820116820180604052508101906104999190610de5565b604051600081818185875af1925050503d80600081146104d5576040519150601f19603f3d011682016040523d82523d6000602084013e6104da565b606091505b50509050806104fc5760405163da07749b60e01b815260040160405180910390fd5b600360e08401818152336000908152602083815260409182902087518155908701516001820180546001600160a01b0319166001600160a01b039092169190911790559086015160028201556060860151818401556080860151600482015560a0860151600582015560c086015160068201805460ff19811692151592831782559351889593949093919261ffff1990911661ff001990911617906101009084908111156105ac576105ac610cad565b02179055505083516040519091507f9b0b73791f0d79c0dc29e8d76b2a6068c41226b28a7947998fdf6213e6ce227290600090a2505050565b6001600160a01b038181166000908152600360205260409020600101548291163314610624576040516335bd836160e21b815260040160405180910390fd5b6001546040516377c4618f60e11b81526001600160a01b038481166004830152600092169063ef88c31e90602401602060405180830381865afa15801561066f573d6000803e3d6000fd5b505050506040513d601f19601f820116820180604052508101906106939190610dc8565b9050600080826001600160a01b0316634085c8426040518163ffffffff1660e01b815260040160408051808303816000875af11580156106d7573d6000803e3d6000fd5b505050506040513d601f19601f820116820180604052508101906106fb9190610dfe565b6001600160a01b0387166000908152600360205260409020919350915082806107245750600082115b156107425760405163765c1d4960e11b815260040160405180910390fd5b60068101805461ff00191661010017905580546040517f16680ce6b8020dad634b0439f5c1c499df7f834204c844f553eefffd4b0f85a89061078690600190610e31565b60405180910390a2505050505050565b61079e610c18565b6001600160a01b03808316600090815260036020818152604092839020835161010080820186528254825260018301549096169281019290925260028101549382019390935282820154606082015260048301546080820152600583015460a0820152600683015460ff808216151560c0840152919460e086019391049091169081111561082e5761082e610cad565b600381111561083f5761083f610cad565b90525092915050565b336000818152600360205260409020600101546001600160a01b031614610882576040516335bd836160e21b815260040160405180910390fd5b336000908152600360205260409020600681015460ff166108b65760405163459bcb2960e11b815260040160405180910390fd5b60068101805461ffff191661020017905560405133907f885d66cbf95119e71ee4d46cb5794b6cae8beb42d312eebf331c1a26f50396cd90600090a250565b6001600160a01b038082166000908152600360208181526040808420815161010080820184528254825260018301549097169381019390935260028101549183019190915280830154606083015260048101546080830152600581015460a0830152600681015460ff808216151560c0850152949586959394929360e0860193919092049091169081111561098c5761098c610cad565b600381111561099d5761099d610cad565b8152505090508060c0015180156109c7575080608001518160a001516109c39190610e55565b4211155b9392505050565b60006109da8383610be6565b90505b92915050565b6000670de0b6b3a7640000831080610a04575069d3c21bcecceda100000083115b15610a2a576040516351a5d88960e01b8152600481018490526024015b60405180910390fd5b6000610a368484610be6565b905034811115610a5c5760405163d13f5cd760e01b815260048101829052602401610a21565b3360009081526003602052604090206006015460ff1615610a9057604051632892758d60e01b815260040160405180910390fd5b60408051610100810182526000805482523360208301529181018690526060810183905260808101610ac58662015180610e68565b815242602082015260016040820152606001600090523360009081526003602081815260409283902084518155908401516001820180546001600160a01b0319166001600160a01b039092169190911790559183015160028301556060830151828201556080830151600483015560a0830151600583015560c083015160068301805460ff198116921515928317825560e0860151959650869593919261ffff1990911661ff00199091161790610100908490811115610b8757610b87610cad565b02179055505060008054915080610b9d83610e7f565b9091555050604080518681526020810184905233917f93aceb1c5e55aa194781a0423a101b97efa4a051e8d2fc2ba332ca75f4e4b6a7910160405180910390a251949350505050565b60006103e8816237b1d084610bfb8488610e68565b610c059190610e68565b610c0f9190610e98565b95945050505050565b6040518061010001604052806000815260200160006001600160a01b031681526020016000815260200160008152602001600081526020016000815260200160001515815260200160006003811115610c7357610c73610cad565b905290565b6001600160a01b0381168114610c8d57600080fd5b50565b600060208284031215610ca257600080fd5b81356109c781610c78565b634e487b7160e01b600052602160045260246000fd5b60048110610ce157634e487b7160e01b600052602160045260246000fd5b9052565b6000610100820190508251825260018060a01b03602084015116602083015260408301516040830152606083015160608301526080830151608083015260a083015160a083015260c0830151151560c083015260e0830151610d4a60e0840182610cc3565b5092915050565b8881526001600160a01b038816602082015260408101879052606081018690526080810185905260a0810184905282151560c08201526101008101610d9960e0830184610cc3565b9998505050505050505050565b60008060408385031215610db957600080fd5b50508035926020909101359150565b600060208284031215610dda57600080fd5b81516109c781610c78565b600060208284031215610df757600080fd5b5051919050565b60008060408385031215610e1157600080fd5b82518015158114610e2157600080fd5b6020939093015192949293505050565b602081016109dd8284610cc3565b634e487b7160e01b600052601160045260246000fd5b808201808211156109dd576109dd610e3f565b80820281158282048414176109dd576109dd610e3f565b600060018201610e9157610e91610e3f565b5060010190565b600082610eb557634e487b7160e01b600052601260045260246000fd5b50049056fea2646970667358221220eab7081670cbf0026d559f0ebfd7278aff4168206d63e647e15b0fa66942fb4f64736f6c63430008180033","linkReferences":{}},"methodIdentifiers":{"MAX_VALUE()":"063bde24","MIN_VALUE()":"992c15fc","approvePolicy(address)":"23c264d4","cancelPolicy()":"4ef2cc00","checkPolicyValidity(address)":"8072f956","claimPolicy()":"14a20bea","createPolicy(uint256,uint256)":"c7e2f28e","currentUserPolicy(address)":"67e6e2f9","getPolicy(address)":"3791dc6a","getPremiumFee(uint256,uint256)":"9aa3ec02","nextPolicyId()":"cad0b8db","setManager(address)":"d0ebdbe7"},"id":0}