{
  "_format": "hh-sol-artifact-1",
  "contractName": "YieldManager",
  "sourceName": "contracts/YieldManager.sol",
  "abi": [
    {
      "inputs": [
        {
          "internalType": "address",
          "name": "manageContract_",
          "type": "address"
        },
        {
          "internalType": "address",
          "name": "poolAddress_",
          "type": "address"
        },
        {
          "internalType": "address",
          "name": "paymentTokenAddress_",
          "type": "address"
        }
      ],
      "stateMutability": "nonpayable",
      "type": "constructor"
    },
    {
      "inputs": [],
      "name": "AccessControlBadConfirmation",
      "type": "error"
    },
    {
      "inputs": [
        {
          "internalType": "address",
          "name": "account",
          "type": "address"
        },
        {
          "internalType": "bytes32",
          "name": "neededRole",
          "type": "bytes32"
        }
      ],
      "name": "AccessControlUnauthorizedAccount",
      "type": "error"
    },
    {
      "anonymous": false,
      "inputs": [
        {
          "indexed": true,
          "internalType": "bytes32",
          "name": "role",
          "type": "bytes32"
        },
        {
          "indexed": true,
          "internalType": "bytes32",
          "name": "previousAdminRole",
          "type": "bytes32"
        },
        {
          "indexed": true,
          "internalType": "bytes32",
          "name": "newAdminRole",
          "type": "bytes32"
        }
      ],
      "name": "RoleAdminChanged",
      "type": "event"
    },
    {
      "anonymous": false,
      "inputs": [
        {
          "indexed": true,
          "internalType": "bytes32",
          "name": "role",
          "type": "bytes32"
        },
        {
          "indexed": true,
          "internalType": "address",
          "name": "account",
          "type": "address"
        },
        {
          "indexed": true,
          "internalType": "address",
          "name": "sender",
          "type": "address"
        }
      ],
      "name": "RoleGranted",
      "type": "event"
    },
    {
      "anonymous": false,
      "inputs": [
        {
          "indexed": true,
          "internalType": "bytes32",
          "name": "role",
          "type": "bytes32"
        },
        {
          "indexed": true,
          "internalType": "address",
          "name": "account",
          "type": "address"
        },
        {
          "indexed": true,
          "internalType": "address",
          "name": "sender",
          "type": "address"
        }
      ],
      "name": "RoleRevoked",
      "type": "event"
    },
    {
      "inputs": [],
      "name": "DEFAULT_ADMIN_ROLE",
      "outputs": [
        {
          "internalType": "bytes32",
          "name": "",
          "type": "bytes32"
        }
      ],
      "stateMutability": "view",
      "type": "function"
    },
    {
      "inputs": [],
      "name": "MANAGER_CONTRACT",
      "outputs": [
        {
          "internalType": "bytes32",
          "name": "",
          "type": "bytes32"
        }
      ],
      "stateMutability": "view",
      "type": "function"
    },
    {
      "inputs": [],
      "name": "aTokenAddress",
      "outputs": [
        {
          "internalType": "address",
          "name": "",
          "type": "address"
        }
      ],
      "stateMutability": "view",
      "type": "function"
    },
    {
      "inputs": [
        {
          "internalType": "uint256",
          "name": "amount_",
          "type": "uint256"
        }
      ],
      "name": "deposit",
      "outputs": [],
      "stateMutability": "nonpayable",
      "type": "function"
    },
    {
      "inputs": [
        {
          "internalType": "address",
          "name": "paymentToken_",
          "type": "address"
        }
      ],
      "name": "getATokenAddress",
      "outputs": [
        {
          "internalType": "address",
          "name": "",
          "type": "address"
        }
      ],
      "stateMutability": "view",
      "type": "function"
    },
    {
      "inputs": [],
      "name": "getAvailableBalance",
      "outputs": [
        {
          "internalType": "uint256",
          "name": "",
          "type": "uint256"
        }
      ],
      "stateMutability": "view",
      "type": "function"
    },
    {
      "inputs": [
        {
          "internalType": "bytes32",
          "name": "role",
          "type": "bytes32"
        }
      ],
      "name": "getRoleAdmin",
      "outputs": [
        {
          "internalType": "bytes32",
          "name": "",
          "type": "bytes32"
        }
      ],
      "stateMutability": "view",
      "type": "function"
    },
    {
      "inputs": [
        {
          "internalType": "bytes32",
          "name": "role",
          "type": "bytes32"
        },
        {
          "internalType": "uint256",
          "name": "index",
          "type": "uint256"
        }
      ],
      "name": "getRoleMember",
      "outputs": [
        {
          "internalType": "address",
          "name": "",
          "type": "address"
        }
      ],
      "stateMutability": "view",
      "type": "function"
    },
    {
      "inputs": [
        {
          "internalType": "bytes32",
          "name": "role",
          "type": "bytes32"
        }
      ],
      "name": "getRoleMemberCount",
      "outputs": [
        {
          "internalType": "uint256",
          "name": "",
          "type": "uint256"
        }
      ],
      "stateMutability": "view",
      "type": "function"
    },
    {
      "inputs": [
        {
          "internalType": "bytes32",
          "name": "role",
          "type": "bytes32"
        },
        {
          "internalType": "address",
          "name": "account",
          "type": "address"
        }
      ],
      "name": "grantRole",
      "outputs": [],
      "stateMutability": "nonpayable",
      "type": "function"
    },
    {
      "inputs": [
        {
          "internalType": "bytes32",
          "name": "role",
          "type": "bytes32"
        },
        {
          "internalType": "address",
          "name": "account",
          "type": "address"
        }
      ],
      "name": "hasRole",
      "outputs": [
        {
          "internalType": "bool",
          "name": "",
          "type": "bool"
        }
      ],
      "stateMutability": "view",
      "type": "function"
    },
    {
      "inputs": [],
      "name": "managerContract",
      "outputs": [
        {
          "internalType": "address",
          "name": "",
          "type": "address"
        }
      ],
      "stateMutability": "view",
      "type": "function"
    },
    {
      "inputs": [],
      "name": "paymentToken",
      "outputs": [
        {
          "internalType": "contract IERC20",
          "name": "",
          "type": "address"
        }
      ],
      "stateMutability": "view",
      "type": "function"
    },
    {
      "inputs": [],
      "name": "pool",
      "outputs": [
        {
          "internalType": "contract IPool",
          "name": "",
          "type": "address"
        }
      ],
      "stateMutability": "view",
      "type": "function"
    },
    {
      "inputs": [
        {
          "internalType": "bytes32",
          "name": "role",
          "type": "bytes32"
        },
        {
          "internalType": "address",
          "name": "callerConfirmation",
          "type": "address"
        }
      ],
      "name": "renounceRole",
      "outputs": [],
      "stateMutability": "nonpayable",
      "type": "function"
    },
    {
      "inputs": [
        {
          "internalType": "bytes32",
          "name": "role",
          "type": "bytes32"
        },
        {
          "internalType": "address",
          "name": "account",
          "type": "address"
        }
      ],
      "name": "revokeRole",
      "outputs": [],
      "stateMutability": "nonpayable",
      "type": "function"
    },
    {
      "inputs": [
        {
          "internalType": "bytes4",
          "name": "interfaceId",
          "type": "bytes4"
        }
      ],
      "name": "supportsInterface",
      "outputs": [
        {
          "internalType": "bool",
          "name": "",
          "type": "bool"
        }
      ],
      "stateMutability": "view",
      "type": "function"
    },
    {
      "inputs": [
        {
          "internalType": "uint256",
          "name": "amount_",
          "type": "uint256"
        },
        {
          "internalType": "address",
          "name": "recipient_",
          "type": "address"
        }
      ],
      "name": "withdraw",
      "outputs": [
        {
          "internalType": "uint256",
          "name": "",
          "type": "uint256"
        }
      ],
      "stateMutability": "nonpayable",
      "type": "function"
    }
  ],
  "bytecode": "0x60806040523480156200001157600080fd5b50604051620020e7380380620020e783398181016040528101906200003791906200027d565b81600260006101000a81548173ffffffffffffffffffffffffffffffffffffffff021916908373ffffffffffffffffffffffffffffffffffffffff16021790555082600560006101000a81548173ffffffffffffffffffffffffffffffffffffffff021916908373ffffffffffffffffffffffffffffffffffffffff16021790555080600360006101000a81548173ffffffffffffffffffffffffffffffffffffffff021916908373ffffffffffffffffffffffffffffffffffffffff1602179055506200010b816200015460201b60201c565b600460006101000a81548173ffffffffffffffffffffffffffffffffffffffff021916908373ffffffffffffffffffffffffffffffffffffffff160217905550505050620006a7565b600080600260009054906101000a900473ffffffffffffffffffffffffffffffffffffffff1673ffffffffffffffffffffffffffffffffffffffff166335ea6a75846040518263ffffffff1660e01b8152600401620001b49190620002ea565b6101e060405180830381865afa158015620001d3573d6000803e3d6000fd5b505050506040513d601f19601f82011682018060405250810190620001f9919062000674565b9050806101000151915050919050565b6000604051905090565b600080fd5b600073ffffffffffffffffffffffffffffffffffffffff82169050919050565b6000620002458262000218565b9050919050565b620002578162000238565b81146200026357600080fd5b50565b60008151905062000277816200024c565b92915050565b60008060006060848603121562000299576200029862000213565b5b6000620002a98682870162000266565b9350506020620002bc8682870162000266565b9250506040620002cf8682870162000266565b9150509250925092565b620002e48162000238565b82525050565b6000602082019050620003016000830184620002d9565b92915050565b600080fd5b6000601f19601f8301169050919050565b7f4e487b7100000000000000000000000000000000000000000000000000000000600052604160045260246000fd5b62000357826200030c565b810181811067ffffffffffffffff821117156200037957620003786200031d565b5b80604052505050565b60006200038e62000209565b90506200039c82826200034c565b919050565b6000819050919050565b620003b681620003a1565b8114620003c257600080fd5b50565b600081519050620003d681620003ab565b92915050565b600060208284031215620003f557620003f462000307565b5b62000401602062000382565b905060006200041384828501620003c5565b60008301525092915050565b60006fffffffffffffffffffffffffffffffff82169050919050565b62000446816200041f565b81146200045257600080fd5b50565b60008151905062000466816200043b565b92915050565b600064ffffffffff82169050919050565b62000488816200046c565b81146200049457600080fd5b50565b600081519050620004a8816200047d565b92915050565b600061ffff82169050919050565b620004c781620004ae565b8114620004d357600080fd5b50565b600081519050620004e781620004bc565b92915050565b60006101e0828403121562000507576200050662000307565b5b620005146101e062000382565b905060006200052684828501620003dc565b60008301525060206200053c8482850162000455565b6020830152506040620005528482850162000455565b6040830152506060620005688482850162000455565b60608301525060806200057e8482850162000455565b60808301525060a0620005948482850162000455565b60a08301525060c0620005aa8482850162000497565b60c08301525060e0620005c084828501620004d6565b60e083015250610100620005d78482850162000266565b61010083015250610120620005ef8482850162000266565b61012083015250610140620006078482850162000266565b610140830152506101606200061f8482850162000266565b61016083015250610180620006378482850162000455565b610180830152506101a06200064f8482850162000455565b6101a0830152506101c0620006678482850162000455565b6101c08301525092915050565b60006101e082840312156200068e576200068d62000213565b5b60006200069e84828501620004ed565b91505092915050565b611a3080620006b76000396000f3fe608060405234801561001057600080fd5b50600436106101155760003560e01c8063809dab6a116100a2578063b6b55f2511610071578063b6b55f2514610308578063ca15c87314610324578063d547741f14610354578063dcfc0ced14610370578063fd5690801461038e57610115565b8063809dab6a1461026c5780639010d07c1461028a57806391d14854146102ba578063a217fddf146102ea57610115565b80632710ac80116100e95780632710ac80146101c85780632f2ff15d146101e65780633013ce291461020257806336568abe14610220578063711cc0051461023c57610115565b8062f714ce1461011a57806301ffc9a71461014a57806316f0115b1461017a578063248a9ca314610198575b600080fd5b610134600480360381019061012f91906110f6565b6103ac565b6040516101419190611145565b60405180910390f35b610164600480360381019061015f91906111b8565b61047a565b6040516101719190611200565b60405180910390f35b6101826104f4565b60405161018f919061127a565b60405180910390f35b6101b260048036038101906101ad91906112cb565b61051a565b6040516101bf9190611307565b60405180910390f35b6101d0610539565b6040516101dd9190611331565b60405180910390f35b61020060048036038101906101fb919061134c565b61055f565b005b61020a610581565b60405161021791906113ad565b60405180910390f35b61023a6004803603810190610235919061134c565b6105a7565b005b610256600480360381019061025191906113c8565b610622565b6040516102639190611331565b60405180910390f35b6102746106d2565b6040516102819190611145565b60405180910390f35b6102a4600480360381019061029f91906113f5565b610775565b6040516102b19190611331565b60405180910390f35b6102d460048036038101906102cf919061134c565b6107a4565b6040516102e19190611200565b60405180910390f35b6102f261080e565b6040516102ff9190611307565b60405180910390f35b610322600480360381019061031d9190611435565b610815565b005b61033e600480360381019061033991906112cb565b610991565b60405161034b9190611145565b60405180910390f35b61036e6004803603810190610369919061134c565b6109b5565b005b6103786109d7565b6040516103859190611331565b60405180910390f35b6103966109fd565b6040516103a39190611307565b60405180910390f35b6000600260009054906101000a900473ffffffffffffffffffffffffffffffffffffffff1673ffffffffffffffffffffffffffffffffffffffff166369328dec600360009054906101000a900473ffffffffffffffffffffffffffffffffffffffff1685856040518463ffffffff1660e01b815260040161042f93929190611462565b6020604051808303816000875af115801561044e573d6000803e3d6000fd5b505050506040513d601f19601f8201168201806040525081019061047291906114ae565b905092915050565b60007f5a05180f000000000000000000000000000000000000000000000000000000007bffffffffffffffffffffffffffffffffffffffffffffffffffffffff1916827bffffffffffffffffffffffffffffffffffffffffffffffffffffffff191614806104ed57506104ec82610a21565b5b9050919050565b600260009054906101000a900473ffffffffffffffffffffffffffffffffffffffff1681565b6000806000838152602001908152602001600020600101549050919050565b600560009054906101000a900473ffffffffffffffffffffffffffffffffffffffff1681565b6105688261051a565b61057181610a9b565b61057b8383610aaf565b50505050565b600360009054906101000a900473ffffffffffffffffffffffffffffffffffffffff1681565b6105af610af5565b73ffffffffffffffffffffffffffffffffffffffff168173ffffffffffffffffffffffffffffffffffffffff1614610613576040517f6697b23200000000000000000000000000000000000000000000000000000000815260040160405180910390fd5b61061d8282610afd565b505050565b600080600260009054906101000a900473ffffffffffffffffffffffffffffffffffffffff1673ffffffffffffffffffffffffffffffffffffffff166335ea6a75846040518263ffffffff1660e01b81526004016106809190611331565b6101e060405180830381865afa15801561069e573d6000803e3d6000fd5b505050506040513d601f19601f820116820180604052508101906106c291906117e0565b9050806101000151915050919050565b6000600460009054906101000a900473ffffffffffffffffffffffffffffffffffffffff1673ffffffffffffffffffffffffffffffffffffffff166370a08231306040518263ffffffff1660e01b815260040161072f9190611331565b602060405180830381865afa15801561074c573d6000803e3d6000fd5b505050506040513d601f19601f8201168201806040525081019061077091906114ae565b905090565b600061079c8260016000868152602001908152602001600020610b4390919063ffffffff16565b905092915050565b600080600084815260200190815260200160002060000160008373ffffffffffffffffffffffffffffffffffffffff1673ffffffffffffffffffffffffffffffffffffffff16815260200190815260200160002060009054906101000a900460ff16905092915050565b6000801b81565b600360009054906101000a900473ffffffffffffffffffffffffffffffffffffffff1673ffffffffffffffffffffffffffffffffffffffff1663095ea7b3600260009054906101000a900473ffffffffffffffffffffffffffffffffffffffff16836040518363ffffffff1660e01b815260040161089492919061180e565b6020604051808303816000875af11580156108b3573d6000803e3d6000fd5b505050506040513d601f19601f820116820180604052508101906108d79190611863565b50600260009054906101000a900473ffffffffffffffffffffffffffffffffffffffff1673ffffffffffffffffffffffffffffffffffffffff1663e8eda9df600360009054906101000a900473ffffffffffffffffffffffffffffffffffffffff16833060006040518563ffffffff1660e01b815260040161095c94939291906118cb565b600060405180830381600087803b15801561097657600080fd5b505af115801561098a573d6000803e3d6000fd5b5050505050565b60006109ae60016000848152602001908152602001600020610b5d565b9050919050565b6109be8261051a565b6109c781610a9b565b6109d18383610afd565b50505050565b600460009054906101000a900473ffffffffffffffffffffffffffffffffffffffff1681565b7f0b86e3ab1ef8d51f0f6a0aa1032bd952fc0ac04bcdc6bfdb0715bf83bf26d29a81565b60007f7965db0b000000000000000000000000000000000000000000000000000000007bffffffffffffffffffffffffffffffffffffffffffffffffffffffff1916827bffffffffffffffffffffffffffffffffffffffffffffffffffffffff19161480610a945750610a9382610b72565b5b9050919050565b610aac81610aa7610af5565b610bdc565b50565b600080610abc8484610c2d565b90508015610aeb57610ae98360016000878152602001908152602001600020610d1e90919063ffffffff16565b505b8091505092915050565b600033905090565b600080610b0a8484610d4e565b90508015610b3957610b378360016000878152602001908152602001600020610e4090919063ffffffff16565b505b8091505092915050565b6000610b528360000183610e70565b60001c905092915050565b6000610b6b82600001610e9b565b9050919050565b60007f01ffc9a7000000000000000000000000000000000000000000000000000000007bffffffffffffffffffffffffffffffffffffffffffffffffffffffff1916827bffffffffffffffffffffffffffffffffffffffffffffffffffffffff1916149050919050565b610be682826107a4565b610c295780826040517fe2517d3f000000000000000000000000000000000000000000000000000000008152600401610c20929190611910565b60405180910390fd5b5050565b6000610c3983836107a4565b610d1357600160008085815260200190815260200160002060000160008473ffffffffffffffffffffffffffffffffffffffff1673ffffffffffffffffffffffffffffffffffffffff16815260200190815260200160002060006101000a81548160ff021916908315150217905550610cb0610af5565b73ffffffffffffffffffffffffffffffffffffffff168273ffffffffffffffffffffffffffffffffffffffff16847f2f8788117e7eff1d82e926ec794901d17c78024a50270940304540a733656f0d60405160405180910390a460019050610d18565b600090505b92915050565b6000610d46836000018373ffffffffffffffffffffffffffffffffffffffff1660001b610eac565b905092915050565b6000610d5a83836107a4565b15610e3557600080600085815260200190815260200160002060000160008473ffffffffffffffffffffffffffffffffffffffff1673ffffffffffffffffffffffffffffffffffffffff16815260200190815260200160002060006101000a81548160ff021916908315150217905550610dd2610af5565b73ffffffffffffffffffffffffffffffffffffffff168273ffffffffffffffffffffffffffffffffffffffff16847ff6391f5c32d9c69d2a47ea670b442974b53935d1edc7fd64eb21e047a839171b60405160405180910390a460019050610e3a565b600090505b92915050565b6000610e68836000018373ffffffffffffffffffffffffffffffffffffffff1660001b610f1c565b905092915050565b6000826000018281548110610e8857610e87611939565b5b9060005260206000200154905092915050565b600081600001805490509050919050565b6000610eb88383611030565b610f11578260000182908060018154018082558091505060019003906000526020600020016000909190919091505582600001805490508360010160008481526020019081526020016000208190555060019050610f16565b600090505b92915050565b60008083600101600084815260200190815260200160002054905060008114611024576000600182610f4e9190611997565b9050600060018660000180549050610f669190611997565b9050808214610fd5576000866000018281548110610f8757610f86611939565b5b9060005260206000200154905080876000018481548110610fab57610faa611939565b5b90600052602060002001819055508387600101600083815260200190815260200160002081905550505b85600001805480610fe957610fe86119cb565b5b60019003818190600052602060002001600090559055856001016000868152602001908152602001600020600090556001935050505061102a565b60009150505b92915050565b600080836001016000848152602001908152602001600020541415905092915050565b6000604051905090565b600080fd5b6000819050919050565b61107581611062565b811461108057600080fd5b50565b6000813590506110928161106c565b92915050565b600073ffffffffffffffffffffffffffffffffffffffff82169050919050565b60006110c382611098565b9050919050565b6110d3816110b8565b81146110de57600080fd5b50565b6000813590506110f0816110ca565b92915050565b6000806040838503121561110d5761110c61105d565b5b600061111b85828601611083565b925050602061112c858286016110e1565b9150509250929050565b61113f81611062565b82525050565b600060208201905061115a6000830184611136565b92915050565b60007fffffffff0000000000000000000000000000000000000000000000000000000082169050919050565b61119581611160565b81146111a057600080fd5b50565b6000813590506111b28161118c565b92915050565b6000602082840312156111ce576111cd61105d565b5b60006111dc848285016111a3565b91505092915050565b60008115159050919050565b6111fa816111e5565b82525050565b600060208201905061121560008301846111f1565b92915050565b6000819050919050565b600061124061123b61123684611098565b61121b565b611098565b9050919050565b600061125282611225565b9050919050565b600061126482611247565b9050919050565b61127481611259565b82525050565b600060208201905061128f600083018461126b565b92915050565b6000819050919050565b6112a881611295565b81146112b357600080fd5b50565b6000813590506112c58161129f565b92915050565b6000602082840312156112e1576112e061105d565b5b60006112ef848285016112b6565b91505092915050565b61130181611295565b82525050565b600060208201905061131c60008301846112f8565b92915050565b61132b816110b8565b82525050565b60006020820190506113466000830184611322565b92915050565b600080604083850312156113635761136261105d565b5b6000611371858286016112b6565b9250506020611382858286016110e1565b9150509250929050565b600061139782611247565b9050919050565b6113a78161138c565b82525050565b60006020820190506113c2600083018461139e565b92915050565b6000602082840312156113de576113dd61105d565b5b60006113ec848285016110e1565b91505092915050565b6000806040838503121561140c5761140b61105d565b5b600061141a858286016112b6565b925050602061142b85828601611083565b9150509250929050565b60006020828403121561144b5761144a61105d565b5b600061145984828501611083565b91505092915050565b60006060820190506114776000830186611322565b6114846020830185611136565b6114916040830184611322565b949350505050565b6000815190506114a88161106c565b92915050565b6000602082840312156114c4576114c361105d565b5b60006114d284828501611499565b91505092915050565b600080fd5b6000601f19601f8301169050919050565b7f4e487b7100000000000000000000000000000000000000000000000000000000600052604160045260246000fd5b611529826114e0565b810181811067ffffffffffffffff82111715611548576115476114f1565b5b80604052505050565b600061155b611053565b90506115678282611520565b919050565b600060208284031215611582576115816114db565b5b61158c6020611551565b9050600061159c84828501611499565b60008301525092915050565b60006fffffffffffffffffffffffffffffffff82169050919050565b6115cd816115a8565b81146115d857600080fd5b50565b6000815190506115ea816115c4565b92915050565b600064ffffffffff82169050919050565b61160a816115f0565b811461161557600080fd5b50565b60008151905061162781611601565b92915050565b600061ffff82169050919050565b6116448161162d565b811461164f57600080fd5b50565b6000815190506116618161163b565b92915050565b600081519050611676816110ca565b92915050565b60006101e08284031215611693576116926114db565b5b61169e6101e0611551565b905060006116ae8482850161156c565b60008301525060206116c2848285016115db565b60208301525060406116d6848285016115db565b60408301525060606116ea848285016115db565b60608301525060806116fe848285016115db565b60808301525060a0611712848285016115db565b60a08301525060c061172684828501611618565b60c08301525060e061173a84828501611652565b60e08301525061010061174f84828501611667565b6101008301525061012061176584828501611667565b6101208301525061014061177b84828501611667565b6101408301525061016061179184828501611667565b610160830152506101806117a7848285016115db565b610180830152506101a06117bd848285016115db565b6101a0830152506101c06117d3848285016115db565b6101c08301525092915050565b60006101e082840312156117f7576117f661105d565b5b60006118058482850161167c565b91505092915050565b60006040820190506118236000830185611322565b6118306020830184611136565b9392505050565b611840816111e5565b811461184b57600080fd5b50565b60008151905061185d81611837565b92915050565b6000602082840312156118795761187861105d565b5b60006118878482850161184e565b91505092915050565b6000819050919050565b60006118b56118b06118ab84611890565b61121b565b61162d565b9050919050565b6118c58161189a565b82525050565b60006080820190506118e06000830187611322565b6118ed6020830186611136565b6118fa6040830185611322565b61190760608301846118bc565b95945050505050565b60006040820190506119256000830185611322565b61193260208301846112f8565b9392505050565b7f4e487b7100000000000000000000000000000000000000000000000000000000600052603260045260246000fd5b7f4e487b7100000000000000000000000000000000000000000000000000000000600052601160045260246000fd5b60006119a282611062565b91506119ad83611062565b92508282039050818111156119c5576119c4611968565b5b92915050565b7f4e487b7100000000000000000000000000000000000000000000000000000000600052603160045260246000fdfea2646970667358221220ce698a11ec9e9af5bd26751aaa79aa63565044cf31dc05e27f2008eacbb5639e64736f6c63430008180033",
  "linkReferences": {},
  "deployedLinkReferences": {}
}