{"abi":[{"type":"constructor","inputs":[{"name":"manageContract_","type":"address","internalType":"address"},{"name":"poolAddress_","type":"address","internalType":"address"},{"name":"paymentTokenAddress_","type":"address","internalType":"address"}],"stateMutability":"nonpayable"},{"type":"function","name":"DEFAULT_ADMIN_ROLE","inputs":[],"outputs":[{"name":"","type":"bytes32","internalType":"bytes32"}],"stateMutability":"view"},{"type":"function","name":"aTokenAddress","inputs":[],"outputs":[{"name":"","type":"address","internalType":"address"}],"stateMutability":"view"},{"type":"function","name":"deposit","inputs":[{"name":"amount_","type":"uint256","internalType":"uint256"}],"outputs":[],"stateMutability":"nonpayable"},{"type":"function","name":"getATokenAddress","inputs":[{"name":"paymentToken_","type":"address","internalType":"address"}],"outputs":[{"name":"","type":"address","internalType":"address"}],"stateMutability":"view"},{"type":"function","name":"getAvailableBalance","inputs":[],"outputs":[{"name":"","type":"uint256","internalType":"uint256"}],"stateMutability":"view"},{"type":"function","name":"getRoleAdmin","inputs":[{"name":"role","type":"bytes32","internalType":"bytes32"}],"outputs":[{"name":"","type":"bytes32","internalType":"bytes32"}],"stateMutability":"view"},{"type":"function","name":"getRoleMember","inputs":[{"name":"role","type":"bytes32","internalType":"bytes32"},{"name":"index","type":"uint256","internalType":"uint256"}],"outputs":[{"name":"","type":"address","internalType":"address"}],"stateMutability":"view"},{"type":"function","name":"getRoleMemberCount","inputs":[{"name":"role","type":"bytes32","internalType":"bytes32"}],"outputs":[{"name":"","type":"uint256","internalType":"uint256"}],"stateMutability":"view"},{"type":"function","name":"grantRole","inputs":[{"name":"role","type":"bytes32","internalType":"bytes32"},{"name":"account","type":"address","internalType":"address"}],"outputs":[],"stateMutability":"nonpayable"},{"type":"function","name":"hasRole","inputs":[{"name":"role","type":"bytes32","internalType":"bytes32"},{"name":"account","type":"address","internalType":"address"}],"outputs":[{"name":"","type":"bool","internalType":"bool"}],"stateMutability":"view"},{"type":"function","name":"managerContract","inputs":[],"outputs":[{"name":"","type":"address","internalType":"address"}],"stateMutability":"view"},{"type":"function","name":"paymentToken","inputs":[],"outputs":[{"name":"","type":"address","internalType":"contract IERC20"}],"stateMutability":"view"},{"type":"function","name":"pool","inputs":[],"outputs":[{"name":"","type":"address","internalType":"contract IPool"}],"stateMutability":"view"},{"type":"function","name":"renounceRole","inputs":[{"name":"role","type":"bytes32","internalType":"bytes32"},{"name":"callerConfirmation","type":"address","internalType":"address"}],"outputs":[],"stateMutability":"nonpayable"},{"type":"function","name":"revokeRole","inputs":[{"name":"role","type":"bytes32","internalType":"bytes32"},{"name":"account","type":"address","internalType":"address"}],"outputs":[],"stateMutability":"nonpayable"},{"type":"function","name":"supportsInterface","inputs":[{"name":"interfaceId","type":"bytes4","internalType":"bytes4"}],"outputs":[{"name":"","type":"bool","internalType":"bool"}],"stateMutability":"view"},{"type":"function","name":"withdraw","inputs":[{"name":"amount_","type":"uint256","internalType":"uint256"},{"name":"recipient_","type":"address","internalType":"address"}],"outputs":[{"name":"","type":"uint256","internalType":"uint256"}],"stateMutability":"nonpayable"},{"type":"event","name":"RoleAdminChanged","inputs":[{"name":"role","type":"bytes32","indexed":true,"internalType":"bytes32"},{"name":"previousAdminRole","type":"bytes32","indexed":true,"internalType":"bytes32"},{"name":"newAdminRole","type":"bytes32","indexed":true,"internalType":"bytes32"}],"anonymous":false},{"type":"event","name":"RoleGranted","inputs":[{"name":"role","type":"bytes32","indexed":true,"internalType":"bytes32"},{"name":"account","type":"address","indexed":true,"internalType":"address"},{"name":"sender","type":"address","indexed":true,"internalType":"address"}],"anonymous":false},{"type":"event","name":"RoleRevoked","inputs":[{"name":"role","type":"bytes32","indexed":true,"internalType":"bytes32"},{"name":"account","type":"address","indexed":true,"internalType":"address"},{"name":"sender","type":"address","indexed":true,"internalType":"address"}],"anonymous":false},{"type":"error","name":"AccessControlBadConfirmation","inputs":[]},{"type":"error","name":"AccessControlUnauthorizedAccount","inputs":[{"name":"account","type":"address","internalType":"address"},{"name":"neededRole","type":"bytes32","internalType":"bytes32"}]}],"bytecode":{"object":"0x60806040523480156200001157600080fd5b50604051620010bf380380620010bf833981016040819052620000349162000145565b600280546001600160a01b038085166001600160a01b0319928316179092556005805486841690831617905560038054928416929091169190911790556200007c81620000a6565b600480546001600160a01b0319166001600160a01b0392909216919091179055506200039d915050565b6002546040516335ea6a7560e01b81526001600160a01b03838116600483015260009283929116906335ea6a75906024016101e060405180830381865afa158015620000f6573d6000803e3d6000fd5b505050506040513d601f19601f820116820180604052508101906200011c919062000259565b61010001519392505050565b80516001600160a01b03811681146200014057600080fd5b919050565b6000806000606084860312156200015b57600080fd5b620001668462000128565b9250620001766020850162000128565b9150620001866040850162000128565b90509250925092565b6040516101e081016001600160401b0381118282101715620001c157634e487b7160e01b600052604160045260246000fd5b60405290565b600060208284031215620001da57600080fd5b604051602081016001600160401b03811182821017156200020b57634e487b7160e01b600052604160045260246000fd5b6040529151825250919050565b80516001600160801b03811681146200014057600080fd5b805164ffffffffff811681146200014057600080fd5b805161ffff811681146200014057600080fd5b60006101e082840312156200026d57600080fd5b620002776200018f565b620002838484620001c7565b8152620002936020840162000218565b6020820152620002a66040840162000218565b6040820152620002b96060840162000218565b6060820152620002cc6080840162000218565b6080820152620002df60a0840162000218565b60a0820152620002f260c0840162000230565b60c08201526200030560e0840162000246565b60e08201526101006200031a81850162000128565b908201526101206200032e84820162000128565b908201526101406200034284820162000128565b908201526101606200035684820162000128565b908201526101806200036a84820162000218565b908201526101a06200037e84820162000218565b908201526101c06200039284820162000218565b908201529392505050565b610d1280620003ad6000396000f3fe608060405234801561001057600080fd5b506004361061010a5760003560e01c8063711cc005116100a2578063a217fddf11610071578063a217fddf14610235578063b6b55f251461023d578063ca15c87314610250578063d547741f14610263578063dcfc0ced1461027657600080fd5b8063711cc005146101f4578063809dab6a146102075780639010d07c1461020f57806391d148541461022257600080fd5b80632710ac80116100de5780632710ac80146101a65780632f2ff15d146101b95780633013ce29146101ce57806336568abe146101e157600080fd5b8062f714ce1461010f57806301ffc9a71461013557806316f0115b14610158578063248a9ca314610183575b600080fd5b61012261011d3660046109a0565b610289565b6040519081526020015b60405180910390f35b6101486101433660046109d0565b610318565b604051901515815260200161012c565b60025461016b906001600160a01b031681565b6040516001600160a01b03909116815260200161012c565b6101226101913660046109fa565b60009081526020819052604090206001015490565b60055461016b906001600160a01b031681565b6101cc6101c73660046109a0565b61033d565b005b60035461016b906001600160a01b031681565b6101cc6101ef3660046109a0565b610368565b61016b610202366004610a13565b6103a0565b61012261041f565b61016b61021d366004610a30565b610496565b6101486102303660046109a0565b6104ae565b610122600081565b6101cc61024b3660046109fa565b6104d7565b61012261025e3660046109fa565b6105c9565b6101cc6102713660046109a0565b6105e0565b60045461016b906001600160a01b031681565b600254600354604051631a4ca37b60e21b81526001600160a01b03918216600482015260248101859052838216604482015260009291909116906369328dec906064016020604051808303816000875af11580156102eb573d6000803e3d6000fd5b505050506040513d601f19601f8201168201806040525081019061030f9190610a52565b90505b92915050565b60006001600160e01b03198216635a05180f60e01b1480610312575061031282610605565b6000828152602081905260409020600101546103588161063a565b6103628383610647565b50505050565b6001600160a01b03811633146103915760405163334bd91960e11b815260040160405180910390fd5b61039b828261067c565b505050565b6002546040516335ea6a7560e01b81526001600160a01b03838116600483015260009283929116906335ea6a75906024016101e060405180830381865afa1580156103ef573d6000803e3d6000fd5b505050506040513d601f19601f820116820180604052508101906104139190610b4a565b61010001519392505050565b600480546040516370a0823160e01b815230928101929092526000916001600160a01b03909116906370a0823190602401602060405180830381865afa15801561046d573d6000803e3d6000fd5b505050506040513d601f19601f820116820180604052508101906104919190610a52565b905090565b600082815260016020526040812061030f90836106a9565b6000918252602082815260408084206001600160a01b0393909316845291905290205460ff1690565b60035460025460405163095ea7b360e01b81526001600160a01b0391821660048201526024810184905291169063095ea7b3906044016020604051808303816000875af115801561052c573d6000803e3d6000fd5b505050506040513d601f19601f820116820180604052508101906105509190610c6d565b5060025460035460405163e8eda9df60e01b81526001600160a01b039182166004820152602481018490523060448201526000606482015291169063e8eda9df90608401600060405180830381600087803b1580156105ae57600080fd5b505af11580156105c2573d6000803e3d6000fd5b5050505050565b6000818152600160205260408120610312906106b5565b6000828152602081905260409020600101546105fb8161063a565b610362838361067c565b60006001600160e01b03198216637965db0b60e01b148061031257506301ffc9a760e01b6001600160e01b0319831614610312565b61064481336106bf565b50565b6000806106548484610700565b9050801561030f5760008481526001602052604090206106749084610792565b509392505050565b60008061068984846107a7565b9050801561030f5760008481526001602052604090206106749084610812565b600061030f8383610827565b6000610312825490565b6106c982826104ae565b6106fc5760405163e2517d3f60e01b81526001600160a01b03821660048201526024810183905260440160405180910390fd5b5050565b600061070c83836104ae565b61078a576000838152602081815260408083206001600160a01b03861684529091529020805460ff191660011790556107423390565b6001600160a01b0316826001600160a01b0316847f2f8788117e7eff1d82e926ec794901d17c78024a50270940304540a733656f0d60405160405180910390a4506001610312565b506000610312565b600061030f836001600160a01b038416610851565b60006107b383836104ae565b1561078a576000838152602081815260408083206001600160a01b0386168085529252808320805460ff1916905551339286917ff6391f5c32d9c69d2a47ea670b442974b53935d1edc7fd64eb21e047a839171b9190a4506001610312565b600061030f836001600160a01b038416610898565b600082600001828154811061083e5761083e610c8f565b9060005260206000200154905092915050565b600081815260018301602052604081205461078a57508154600181810184556000848152602080822090930184905584548482528286019093526040902091909155610312565b600081815260018301602052604081205480156109815760006108bc600183610ca5565b85549091506000906108d090600190610ca5565b90508082146109355760008660000182815481106108f0576108f0610c8f565b906000526020600020015490508087600001848154811061091357610913610c8f565b6000918252602080832090910192909255918252600188019052604090208390555b855486908061094657610946610cc6565b600190038181906000526020600020016000905590558560010160008681526020019081526020016000206000905560019350505050610312565b6000915050610312565b6001600160a01b038116811461064457600080fd5b600080604083850312156109b357600080fd5b8235915060208301356109c58161098b565b809150509250929050565b6000602082840312156109e257600080fd5b81356001600160e01b03198116811461030f57600080fd5b600060208284031215610a0c57600080fd5b5035919050565b600060208284031215610a2557600080fd5b813561030f8161098b565b60008060408385031215610a4357600080fd5b50508035926020909101359150565b600060208284031215610a6457600080fd5b5051919050565b6040516101e0810167ffffffffffffffff81118282101715610a9d57634e487b7160e01b600052604160045260246000fd5b60405290565b600060208284031215610ab557600080fd5b6040516020810181811067ffffffffffffffff82111715610ae657634e487b7160e01b600052604160045260246000fd5b6040529151825250919050565b80516fffffffffffffffffffffffffffffffff81168114610b1357600080fd5b919050565b805164ffffffffff81168114610b1357600080fd5b805161ffff81168114610b1357600080fd5b8051610b138161098b565b60006101e08284031215610b5d57600080fd5b610b65610a6b565b610b6f8484610aa3565b8152610b7d60208401610af3565b6020820152610b8e60408401610af3565b6040820152610b9f60608401610af3565b6060820152610bb060808401610af3565b6080820152610bc160a08401610af3565b60a0820152610bd260c08401610b18565b60c0820152610be360e08401610b2d565b60e0820152610100610bf6818501610b3f565b90820152610120610c08848201610b3f565b90820152610140610c1a848201610b3f565b90820152610160610c2c848201610b3f565b90820152610180610c3e848201610af3565b908201526101a0610c50848201610af3565b908201526101c0610c62848201610af3565b908201529392505050565b600060208284031215610c7f57600080fd5b8151801515811461030f57600080fd5b634e487b7160e01b600052603260045260246000fd5b8181038181111561031257634e487b7160e01b600052601160045260246000fd5b634e487b7160e01b600052603160045260246000fdfea26469706673582212202f9d30da9aff8d0f9562233553b269b724ef3a67dc8a53ddf74e9aa08339c19364736f6c63430008180033","linkReferences":{}},"methodIdentifiers":{"DEFAULT_ADMIN_ROLE()":"a217fddf","aTokenAddress()":"dcfc0ced","deposit(uint256)":"b6b55f25","getATokenAddress(address)":"711cc005","getAvailableBalance()":"809dab6a","getRoleAdmin(bytes32)":"248a9ca3","getRoleMember(bytes32,uint256)":"9010d07c","getRoleMemberCount(bytes32)":"ca15c873","grantRole(bytes32,address)":"2f2ff15d","hasRole(bytes32,address)":"91d14854","managerContract()":"2710ac80","paymentToken()":"3013ce29","pool()":"16f0115b","renounceRole(bytes32,address)":"36568abe","revokeRole(bytes32,address)":"d547741f","supportsInterface(bytes4)":"01ffc9a7","withdraw(uint256,address)":"00f714ce"},"id":3}