{"abi":[{"type":"constructor","inputs":[{"name":"assets","type":"address[]","internalType":"address[]"},{"name":"aTokens","type":"address[]","internalType":"address[]"}],"stateMutability":"nonpayable"},{"type":"function","name":"deposit","inputs":[{"name":"asset","type":"address","internalType":"address"},{"name":"amount","type":"uint256","internalType":"uint256"},{"name":"onBehalfOf","type":"address","internalType":"address"},{"name":"referralCode","type":"uint16","internalType":"uint16"}],"outputs":[],"stateMutability":"nonpayable"},{"type":"function","name":"getReserveData","inputs":[{"name":"asset","type":"address","internalType":"address"}],"outputs":[{"name":"data","type":"tuple","internalType":"struct DataTypes.ReserveData","components":[{"name":"configuration","type":"tuple","internalType":"struct DataTypes.ReserveConfigurationMap","components":[{"name":"data","type":"uint256","internalType":"uint256"}]},{"name":"liquidityIndex","type":"uint128","internalType":"uint128"},{"name":"currentLiquidityRate","type":"uint128","internalType":"uint128"},{"name":"variableBorrowIndex","type":"uint128","internalType":"uint128"},{"name":"currentVariableBorrowRate","type":"uint128","internalType":"uint128"},{"name":"currentStableBorrowRate","type":"uint128","internalType":"uint128"},{"name":"lastUpdateTimestamp","type":"uint40","internalType":"uint40"},{"name":"id","type":"uint16","internalType":"uint16"},{"name":"aTokenAddress","type":"address","internalType":"address"},{"name":"stableDebtTokenAddress","type":"address","internalType":"address"},{"name":"variableDebtTokenAddress","type":"address","internalType":"address"},{"name":"interestRateStrategyAddress","type":"address","internalType":"address"},{"name":"accruedToTreasury","type":"uint128","internalType":"uint128"},{"name":"unbacked","type":"uint128","internalType":"uint128"},{"name":"isolationModeTotalDebt","type":"uint128","internalType":"uint128"}]}],"stateMutability":"view"},{"type":"function","name":"reserves","inputs":[{"name":"","type":"address","internalType":"address"}],"outputs":[{"name":"liquidity","type":"uint256","internalType":"uint256"},{"name":"aTokenAddress","type":"address","internalType":"address"}],"stateMutability":"view"},{"type":"function","name":"withdraw","inputs":[{"name":"asset","type":"address","internalType":"address"},{"name":"amount","type":"uint256","internalType":"uint256"},{"name":"to","type":"address","internalType":"address"}],"outputs":[{"name":"","type":"uint256","internalType":"uint256"}],"stateMutability":"nonpayable"}],"bytecode":{"object":"0x608060405234801561001057600080fd5b5060405161091e38038061091e83398101604081905261002f916101b3565b60005b82518110156100d55760405180604001604052806000815260200183838151811061005f5761005f610216565b60200260200101516001600160a01b031681525060008085848151811061008857610088610216565b6020908102919091018101516001600160a01b03908116835282820193909352604090910160002083518155920151600192830180546001600160a01b0319169190921617905501610032565b50505061022c565b634e487b7160e01b600052604160045260246000fd5b80516001600160a01b038116811461010a57600080fd5b919050565b600082601f83011261012057600080fd5b815160206001600160401b038083111561013c5761013c6100dd565b8260051b604051601f19603f83011681018181108482111715610161576101616100dd565b604052938452602081870181019490810192508785111561018157600080fd5b6020870191505b848210156101a857610199826100f3565b83529183019190830190610188565b979650505050505050565b600080604083850312156101c657600080fd5b82516001600160401b03808211156101dd57600080fd5b6101e98683870161010f565b935060208501519150808211156101ff57600080fd5b5061020c8582860161010f565b9150509250929050565b634e487b7160e01b600052603260045260246000fd5b6106e38061023b6000396000f3fe608060405234801561001057600080fd5b506004361061004c5760003560e01c806335ea6a751461005157806369328dec14610115578063d66bd52414610136578063e8eda9df14610183575b600080fd5b6100ff61005f36600461045b565b604080516102008101825260006101e0820181815282526020808301829052828401829052606083018290526080830182905260a0830182905260c0830182905260e08301829052610100830182815261012084018390526101408401839052610160840183905261018084018390526101a084018390526101c084018390526001600160a01b0395861683529082905292902060010154909216905290565b60405161010c919061047d565b60405180910390f35b6101286101233660046105b7565b610198565b60405190815260200161010c565b61016661014436600461045b565b600060208190529081526040902080546001909101546001600160a01b031682565b604080519283526001600160a01b0390911660208301520161010c565b6101966101913660046105f3565b61031c565b005b6001600160a01b0383166000908152602081905260408120548311156101fd5760405162461bcd60e51b8152602060048201526016602482015275496e73756666696369656e74206c697175696469747960501b604482015260640160405180910390fd5b6001600160a01b0384166000908152602081905260408120805485929061022590849061065f565b90915550506001600160a01b0384811660009081526020819052604090819020600101549051632770a7eb60e21b815233600482015260248101869052911690639dc29fac90604401600060405180830381600087803b15801561028857600080fd5b505af115801561029c573d6000803e3d6000fd5b505060405163a9059cbb60e01b81526001600160a01b038581166004830152602482018790528716925063a9059cbb91506044016020604051808303816000875af11580156102ef573d6000803e3d6000fd5b505050506040513d601f19601f820116820180604052508101906103139190610678565b50919392505050565b6040516323b872dd60e01b8152336004820152306024820152604481018490526001600160a01b038516906323b872dd906064016020604051808303816000875af115801561036f573d6000803e3d6000fd5b505050506040513d601f19601f820116820180604052508101906103939190610678565b506001600160a01b038416600090815260208190526040812080548592906103bc90849061069a565b90915550506001600160a01b03848116600090815260208190526040908190206001015490516340c10f1960e01b81528483166004820152602481018690529116906340c10f1990604401600060405180830381600087803b15801561042157600080fd5b505af1158015610435573d6000803e3d6000fd5b5050505050505050565b80356001600160a01b038116811461045657600080fd5b919050565b60006020828403121561046d57600080fd5b6104768261043f565b9392505050565b81515181526101e0810160208301516104a160208401826001600160801b03169052565b5060408301516104bc60408401826001600160801b03169052565b5060608301516104d760608401826001600160801b03169052565b5060808301516104f260808401826001600160801b03169052565b5060a083015161050d60a08401826001600160801b03169052565b5060c083015161052660c084018264ffffffffff169052565b5060e083015161053c60e084018261ffff169052565b50610100838101516001600160a01b039081169184019190915261012080850151821690840152610140808501518216908401526101608085015190911690830152610180808401516001600160801b03908116918401919091526101a0808501518216908401526101c09384015116929091019190915290565b6000806000606084860312156105cc57600080fd5b6105d58461043f565b9250602084013591506105ea6040850161043f565b90509250925092565b6000806000806080858703121561060957600080fd5b6106128561043f565b9350602085013592506106276040860161043f565b9150606085013561ffff8116811461063e57600080fd5b939692955090935050565b634e487b7160e01b600052601160045260246000fd5b8181038181111561067257610672610649565b92915050565b60006020828403121561068a57600080fd5b8151801515811461047657600080fd5b808201808211156106725761067261064956fea2646970667358221220cd614bd8d5e1d1b64b14b68cfb13d584478ec2e0fdd1a2555023a868977655fe64736f6c63430008180033","linkReferences":{}},"methodIdentifiers":{"deposit(address,uint256,address,uint16)":"e8eda9df","getReserveData(address)":"35ea6a75","reserves(address)":"d66bd524","withdraw(address,uint256,address)":"69328dec"},"id":4}