{"abi":[{"type":"constructor","inputs":[{"name":"_pool","type":"address","internalType":"address"},{"name":"_weth","type":"address","internalType":"address"}],"stateMutability":"nonpayable"},{"type":"fallback","stateMutability":"payable"},{"type":"receive","stateMutability":"payable"},{"type":"function","name":"claimRewards","inputs":[],"outputs":[],"stateMutability":"nonpayable"},{"type":"function","name":"emergencyWithdraw","inputs":[],"outputs":[],"stateMutability":"nonpayable"},{"type":"function","name":"getAmount","inputs":[],"outputs":[{"name":"","type":"uint256","internalType":"uint256"}],"stateMutability":"nonpayable"},{"type":"function","name":"getRewards","inputs":[],"outputs":[{"name":"","type":"uint256","internalType":"uint256"}],"stateMutability":"nonpayable"},{"type":"function","name":"lastRewardTime","inputs":[],"outputs":[{"name":"","type":"uint256","internalType":"uint256"}],"stateMutability":"view"},{"type":"function","name":"pause","inputs":[],"outputs":[],"stateMutability":"nonpayable"},{"type":"function","name":"paused","inputs":[],"outputs":[{"name":"","type":"bool","internalType":"bool"}],"stateMutability":"view"},{"type":"function","name":"rewardRate","inputs":[],"outputs":[{"name":"","type":"uint256","internalType":"uint256"}],"stateMutability":"view"},{"type":"function","name":"setRewardRate","inputs":[{"name":"_rate","type":"uint256","internalType":"uint256"}],"outputs":[],"stateMutability":"nonpayable"},{"type":"function","name":"totalStaked","inputs":[],"outputs":[{"name":"","type":"uint256","internalType":"uint256"}],"stateMutability":"view"},{"type":"function","name":"unpause","inputs":[],"outputs":[],"stateMutability":"nonpayable"},{"type":"function","name":"userStakes","inputs":[{"name":"","type":"address","internalType":"address"}],"outputs":[{"name":"amount","type":"uint256","internalType":"uint256"},{"name":"rewardDebt","type":"uint256","internalType":"uint256"},{"name":"lastStakeTime","type":"uint256","internalType":"uint256"}],"stateMutability":"view"},{"type":"function","name":"withdraw","inputs":[{"name":"amount","type":"uint256","internalType":"uint256"}],"outputs":[],"stateMutability":"nonpayable"},{"type":"event","name":"EmergencyWithdrawal","inputs":[{"name":"admin","type":"address","indexed":false,"internalType":"address"},{"name":"amount","type":"uint256","indexed":false,"internalType":"uint256"},{"name":"timestamp","type":"uint256","indexed":false,"internalType":"uint256"}],"anonymous":false},{"type":"event","name":"EthReceived","inputs":[{"name":"account","type":"address","indexed":false,"internalType":"address"}],"anonymous":false},{"type":"event","name":"Paused","inputs":[{"name":"account","type":"address","indexed":false,"internalType":"address"}],"anonymous":false},{"type":"event","name":"RewardRateUpdated","inputs":[{"name":"newRate","type":"uint256","indexed":false,"internalType":"uint256"},{"name":"updatedBy","type":"address","indexed":false,"internalType":"address"}],"anonymous":false},{"type":"event","name":"RewardsClaimed","inputs":[{"name":"user","type":"address","indexed":true,"internalType":"address"},{"name":"reward","type":"uint256","indexed":false,"internalType":"uint256"},{"name":"timestamp","type":"uint256","indexed":false,"internalType":"uint256"}],"anonymous":false},{"type":"event","name":"Staked","inputs":[{"name":"user","type":"address","indexed":true,"internalType":"address"},{"name":"amount","type":"uint256","indexed":false,"internalType":"uint256"},{"name":"timestamp","type":"uint256","indexed":false,"internalType":"uint256"}],"anonymous":false},{"type":"event","name":"Unpaused","inputs":[{"name":"account","type":"address","indexed":false,"internalType":"address"}],"anonymous":false},{"type":"event","name":"Withdrawn","inputs":[{"name":"user","type":"address","indexed":true,"internalType":"address"},{"name":"amount","type":"uint256","indexed":false,"internalType":"uint256"},{"name":"timestamp","type":"uint256","indexed":false,"internalType":"uint256"}],"anonymous":false},{"type":"error","name":"EnforcedPause","inputs":[]},{"type":"error","name":"ExpectedPause","inputs":[]},{"type":"error","name":"ReentrancyGuardReentrantCall","inputs":[]}],"bytecode":{"object":"0x6080604052617bd460055534801561001657600080fd5b50604051610f29380380610f29833981016040819052610035916100a0565b6000805460ff1916905560018055600280546001600160a01b039384166001600160a01b03199182161790915560038054929093169181169190911790915560078054909116331790556100d3565b80516001600160a01b038116811461009b57600080fd5b919050565b600080604083850312156100b357600080fd5b6100bc83610084565b91506100ca60208401610084565b90509250929050565b610e47806100e26000396000f3fe6080604052600436106100c65760003560e01c8063817b1cd21161007f5780639231cf74116100595780639231cf741461020a5780639e447fc614610220578063d321fe2914610240578063db2e21bc14610255576100d5565b8063817b1cd2146101885780638456cb591461019e5780638da7ad23146101b3576100d5565b80630572b0cc146100dd5780632e1a7d4d14610105578063372500ab146101255780633f4ba83a1461013a5780635c975abb1461014f5780637b0a47ee14610172576100d5565b366100d5576100d361026a565b005b6100d361026a565b3480156100e957600080fd5b506100f26104d4565b6040519081526020015b60405180910390f35b34801561011157600080fd5b506100d3610120366004610cfd565b6104f6565b34801561013157600080fd5b506100d3610757565b34801561014657600080fd5b506100d361084b565b34801561015b57600080fd5b5060005460ff1660405190151581526020016100fc565b34801561017e57600080fd5b506100f260055481565b34801561019457600080fd5b506100f260045481565b3480156101aa57600080fd5b506100d36108b3565b3480156101bf57600080fd5b506101ef6101ce366004610d16565b60096020526000908152604090208054600182015460029092015490919083565b604080519384526020840192909252908201526060016100fc565b34801561021657600080fd5b506100f260065481565b34801561022c57600080fd5b506100d361023b366004610cfd565b610915565b34801561024c57600080fd5b506100f261097f565b34801561026157600080fd5b506100d361099e565b610272610b88565b61027a610bac565b600034116102db5760405162461bcd60e51b815260206004820152602360248201527f5374616b696e67506f6f6c3a204d7573742073656e642045544820746f207374604482015262616b6560e81b60648201526084015b60405180910390fd5b6102e433610bd6565b600360009054906101000a90046001600160a01b03166001600160a01b031663d0e30db0346040518263ffffffff1660e01b81526004016000604051808303818588803b15801561033457600080fd5b505af1158015610348573d6000803e3d6000fd5b505060035460025460405163095ea7b360e01b81526001600160a01b0391821660048201523460248201529116935063095ea7b3925060440190506020604051808303816000875af11580156103a2573d6000803e3d6000fd5b505050506040513d601f19601f820116820180604052508101906103c69190610d46565b5060025460035460405163e8eda9df60e01b81526001600160a01b0391821660048201523460248201523060448201526000606482015291169063e8eda9df90608401600060405180830381600087803b15801561042357600080fd5b505af1158015610437573d6000803e3d6000fd5b5050336000908152600960205260408120805434945090925061045b908490610d7e565b9250508190555034600460008282546104749190610d7e565b9091555050336000818152600960209081526040918290204260029091018190558251348152918201527f1449c6dd7851abc30abf37f57715f492010519147cc2652fbc38202c18a6ee90910160405180910390a26104d260018055565b565b60006104df33610bd6565b503360009081526009602052604090206001015490565b6104fe610bac565b6000811161055f5760405162461bcd60e51b815260206004820152602860248201527f5374616b696e67506f6f6c3a2043616e6e6f74207769746864726177207a65726044820152671bc8185b5bdd5b9d60c21b60648201526084016102d2565b33600090815260096020526040902080548211156105c95760405162461bcd60e51b815260206004820152602160248201527f5374616b696e67506f6f6c3a20496e73756666696369656e742062616c616e636044820152606560f81b60648201526084016102d2565b6105d233610bd6565b818160000160008282546105e69190610d97565b9250508190555081600460008282546105ff9190610d97565b9091555050600254600354604051631a4ca37b60e21b81526001600160a01b039182166004820152602481018590523060448201529116906369328dec906064016020604051808303816000875af115801561065f573d6000803e3d6000fd5b505050506040513d601f19601f820116820180604052508101906106839190610daa565b50600354604051632e1a7d4d60e01b8152600481018490526001600160a01b0390911690632e1a7d4d90602401600060405180830381600087803b1580156106ca57600080fd5b505af11580156106de573d6000803e3d6000fd5b505060405133925084156108fc02915084906000818181858888f1935050505015801561070f573d6000803e3d6000fd5b506040805183815242602082015233917f92ccf450a286a957af52509bc1c9939d1a6a481783e142e41e2499f0bb66ebc6910160405180910390a25061075460018055565b50565b61075f610bac565b61076833610bd6565b33600090815260096020526040902060010154806107c85760405162461bcd60e51b815260206004820181905260248201527f5374616b696e67506f6f6c3a204e6f207265776172647320746f20636c61696d60448201526064016102d2565b336000818152600960205260408082206001018290555183156108fc0291849190818181858888f19350505050158015610806573d6000803e3d6000fd5b506040805182815242602082015233917fdacbdde355ba930696a362ea6738feb9f8bd52dfb3d81947558fd3217e23e325910160405180910390a2506104d260018055565b6007546001600160a01b031633146108755760405162461bcd60e51b81526004016102d290610dc3565b61087d610c50565b6040513381527f5db9ee0a495bf2e6ff9c91a7834c1ba4fdd244a5e8aa4e537bd38aeae4b073aa906020015b60405180910390a1565b6007546001600160a01b031633146108dd5760405162461bcd60e51b81526004016102d290610dc3565b6108e5610c9d565b6040513381527f62e78cea01bee320cd4e420270b5ea74000d11b0c9f74754ebdbfc544b05a258906020016108a9565b6007546001600160a01b0316331461093f5760405162461bcd60e51b81526004016102d290610dc3565b6005819055604080518281523360208201527fef41ee5751b56586e052b6b86bdfd7a85375d72e81e13b2136afd694fb8f8a54910160405180910390a150565b600061098a33610bd6565b503360009081526009602052604090205490565b6007546001600160a01b031633146109c85760405162461bcd60e51b81526004016102d290610dc3565b6003546040516370a0823160e01b81523060048201526000916001600160a01b0316906370a0823190602401602060405180830381865afa158015610a11573d6000803e3d6000fd5b505050506040513d601f19601f82011682018060405250810190610a359190610daa565b600254600354604051631a4ca37b60e21b81526001600160a01b0391821660048201526024810184905230604482015292935016906369328dec906064016020604051808303816000875af1158015610a92573d6000803e3d6000fd5b505050506040513d601f19601f82011682018060405250810190610ab69190610daa565b50600354604051632e1a7d4d60e01b8152600481018390526001600160a01b0390911690632e1a7d4d90602401600060405180830381600087803b158015610afd57600080fd5b505af1158015610b11573d6000803e3d6000fd5b505060405147925033915082156108fc029083906000818181858888f19350505050158015610b44573d6000803e3d6000fd5b506040805133815260208101839052428183015290517f56da9a5ae0bcf6e7c3fdd78a10550e7d0458de1c39bfb7f6e96a3e92dd344a689181900360600190a15050565b60005460ff16156104d25760405163d93c066560e01b815260040160405180910390fd5b600260015403610bcf57604051633ee5aeb560e01b815260040160405180910390fd5b6002600155565b6001600160a01b038116600090815260096020526040812054600554600654610bff9042610d97565b610c099190610dfa565b610c139190610dfa565b6001600160a01b038316600090815260096020526040812060010180549293508392909190610c43908490610d7e565b9091555050426006555050565b610c58610cda565b6000805460ff191690557f5db9ee0a495bf2e6ff9c91a7834c1ba4fdd244a5e8aa4e537bd38aeae4b073aa335b6040516001600160a01b0390911681526020016108a9565b610ca5610b88565b6000805460ff191660011790557f62e78cea01bee320cd4e420270b5ea74000d11b0c9f74754ebdbfc544b05a258610c853390565b60005460ff166104d257604051638dfc202b60e01b815260040160405180910390fd5b600060208284031215610d0f57600080fd5b5035919050565b600060208284031215610d2857600080fd5b81356001600160a01b0381168114610d3f57600080fd5b9392505050565b600060208284031215610d5857600080fd5b81518015158114610d3f57600080fd5b634e487b7160e01b600052601160045260246000fd5b80820180821115610d9157610d91610d68565b92915050565b81810381811115610d9157610d91610d68565b600060208284031215610dbc57600080fd5b5051919050565b60208082526017908201527f4f6e6c79206f776e6572206973207065726d6974746564000000000000000000604082015260600190565b8082028115828204841417610d9157610d91610d6856fea2646970667358221220b6d12c0ef45dc52187830cb655dd06ac4ce318b7d8c471844ee4df6474ada69f64736f6c63430008180033","linkReferences":{}},"methodIdentifiers":{"claimRewards()":"372500ab","emergencyWithdraw()":"db2e21bc","getAmount()":"d321fe29","getRewards()":"0572b0cc","lastRewardTime()":"9231cf74","pause()":"8456cb59","paused()":"5c975abb","rewardRate()":"7b0a47ee","setRewardRate(uint256)":"9e447fc6","totalStaked()":"817b1cd2","unpause()":"3f4ba83a","userStakes(address)":"8da7ad23","withdraw(uint256)":"2e1a7d4d"},"id":3}