{"abi":[{"type":"constructor","inputs":[{"name":"_pool","type":"address","internalType":"address"},{"name":"_weth","type":"address","internalType":"address"}],"stateMutability":"nonpayable"},{"type":"fallback","stateMutability":"payable"},{"type":"receive","stateMutability":"payable"},{"type":"function","name":"claimRewards","inputs":[],"outputs":[],"stateMutability":"nonpayable"},{"type":"function","name":"getAmount","inputs":[],"outputs":[{"name":"","type":"uint256","internalType":"uint256"}],"stateMutability":"nonpayable"},{"type":"function","name":"getRewards","inputs":[],"outputs":[{"name":"","type":"uint256","internalType":"uint256"}],"stateMutability":"nonpayable"},{"type":"function","name":"lastRewardTime","inputs":[],"outputs":[{"name":"","type":"uint256","internalType":"uint256"}],"stateMutability":"view"},{"type":"function","name":"pause","inputs":[],"outputs":[],"stateMutability":"nonpayable"},{"type":"function","name":"paused","inputs":[],"outputs":[{"name":"","type":"bool","internalType":"bool"}],"stateMutability":"view"},{"type":"function","name":"rewardRate","inputs":[],"outputs":[{"name":"","type":"uint256","internalType":"uint256"}],"stateMutability":"view"},{"type":"function","name":"setRewardRate","inputs":[{"name":"_rate","type":"uint256","internalType":"uint256"}],"outputs":[],"stateMutability":"nonpayable"},{"type":"function","name":"totalStaked","inputs":[],"outputs":[{"name":"","type":"uint256","internalType":"uint256"}],"stateMutability":"view"},{"type":"function","name":"unpause","inputs":[],"outputs":[],"stateMutability":"nonpayable"},{"type":"function","name":"userStakes","inputs":[{"name":"","type":"address","internalType":"address"}],"outputs":[{"name":"amount","type":"uint256","internalType":"uint256"},{"name":"rewardDebt","type":"uint256","internalType":"uint256"},{"name":"lastStakeTime","type":"uint256","internalType":"uint256"}],"stateMutability":"view"},{"type":"function","name":"withdraw","inputs":[{"name":"amount","type":"uint256","internalType":"uint256"}],"outputs":[],"stateMutability":"nonpayable"},{"type":"event","name":"EmergencyWithdrawal","inputs":[{"name":"admin","type":"address","indexed":false,"internalType":"address"},{"name":"amount","type":"uint256","indexed":false,"internalType":"uint256"},{"name":"timestamp","type":"uint256","indexed":false,"internalType":"uint256"}],"anonymous":false},{"type":"event","name":"EthReceived","inputs":[{"name":"account","type":"address","indexed":false,"internalType":"address"}],"anonymous":false},{"type":"event","name":"Paused","inputs":[{"name":"account","type":"address","indexed":false,"internalType":"address"}],"anonymous":false},{"type":"event","name":"RewardRateUpdated","inputs":[{"name":"newRate","type":"uint256","indexed":false,"internalType":"uint256"},{"name":"updatedBy","type":"address","indexed":false,"internalType":"address"}],"anonymous":false},{"type":"event","name":"RewardsClaimed","inputs":[{"name":"user","type":"address","indexed":true,"internalType":"address"},{"name":"reward","type":"uint256","indexed":false,"internalType":"uint256"},{"name":"timestamp","type":"uint256","indexed":false,"internalType":"uint256"}],"anonymous":false},{"type":"event","name":"Staked","inputs":[{"name":"user","type":"address","indexed":true,"internalType":"address"},{"name":"amount","type":"uint256","indexed":false,"internalType":"uint256"},{"name":"timestamp","type":"uint256","indexed":false,"internalType":"uint256"}],"anonymous":false},{"type":"event","name":"Unpaused","inputs":[{"name":"account","type":"address","indexed":false,"internalType":"address"}],"anonymous":false},{"type":"event","name":"Withdrawn","inputs":[{"name":"user","type":"address","indexed":true,"internalType":"address"},{"name":"amount","type":"uint256","indexed":false,"internalType":"uint256"},{"name":"timestamp","type":"uint256","indexed":false,"internalType":"uint256"}],"anonymous":false},{"type":"error","name":"EnforcedPause","inputs":[]},{"type":"error","name":"ExpectedPause","inputs":[]},{"type":"error","name":"ReentrancyGuardReentrantCall","inputs":[]}],"bytecode":{"object":"0x6080604052617bd460055534801561001657600080fd5b50604051610d8d380380610d8d833981016040819052610035916100a0565b6000805460ff1916905560018055600280546001600160a01b039384166001600160a01b03199182161790915560038054929093169181169190911790915560078054909116331790556100d3565b80516001600160a01b038116811461009b57600080fd5b919050565b600080604083850312156100b357600080fd5b6100bc83610084565b91506100ca60208401610084565b90509250929050565b610cab806100e26000396000f3fe6080604052600436106100ab5760003560e01c8063817b1cd211610064578063817b1cd21461016d5780638456cb59146101835780638da7ad23146101985780639231cf74146101ef5780639e447fc614610205578063d321fe2914610225576100ba565b80630572b0cc146100c25780632e1a7d4d146100ea578063372500ab1461010a5780633f4ba83a1461011f5780635c975abb146101345780637b0a47ee14610157576100ba565b366100ba576100b861023a565b005b6100b861023a565b3480156100ce57600080fd5b506100d76104ae565b6040519081526020015b60405180910390f35b3480156100f657600080fd5b506100b8610105366004610b3f565b6104d0565b34801561011657600080fd5b506100b86106f2565b34801561012b57600080fd5b506100b8610850565b34801561014057600080fd5b5060005460ff1660405190151581526020016100e1565b34801561016357600080fd5b506100d760055481565b34801561017957600080fd5b506100d760045481565b34801561018f57600080fd5b506100b86108b8565b3480156101a457600080fd5b506101d46101b3366004610b58565b60096020526000908152604090208054600182015460029092015490919083565b604080519384526020840192909252908201526060016100e1565b3480156101fb57600080fd5b506100d760065481565b34801561021157600080fd5b506100b8610220366004610b3f565b61091a565b34801561023157600080fd5b506100d7610984565b6102426109a3565b61024a6109c7565b600034116102ab5760405162461bcd60e51b815260206004820152602360248201527f5374616b696e67506f6f6c3a204d7573742073656e642045544820746f207374604482015262616b6560e81b60648201526084015b60405180910390fd5b6102b4336109f1565b600360009054906101000a90046001600160a01b03166001600160a01b031663d0e30db0346040518263ffffffff1660e01b81526004016000604051808303818588803b15801561030457600080fd5b505af1158015610318573d6000803e3d6000fd5b505060035460025460405163095ea7b360e01b81526001600160a01b03918216600482015269021e19e0c9bab240000060248201529116935063095ea7b3925060440190506020604051808303816000875af115801561037c573d6000803e3d6000fd5b505050506040513d601f19601f820116820180604052508101906103a09190610b88565b5060025460035460405163e8eda9df60e01b81526001600160a01b0391821660048201523460248201523060448201526000606482015291169063e8eda9df90608401600060405180830381600087803b1580156103fd57600080fd5b505af1158015610411573d6000803e3d6000fd5b50503360009081526009602052604081208054349450909250610435908490610bc0565b92505081905550346004600082825461044e9190610bc0565b9091555050336000818152600960209081526040918290204260029091018190558251348152918201527f1449c6dd7851abc30abf37f57715f492010519147cc2652fbc38202c18a6ee90910160405180910390a26104ac60018055565b565b60006104b9336109f1565b503360009081526009602052604090206001015490565b600081116105315760405162461bcd60e51b815260206004820152602860248201527f5374616b696e67506f6f6c3a2043616e6e6f74207769746864726177207a65726044820152671bc8185b5bdd5b9d60c21b60648201526084016102a2565b336000908152600960205260409020805482111561059b5760405162461bcd60e51b815260206004820152602160248201527f5374616b696e67506f6f6c3a20496e73756666696369656e742062616c616e636044820152606560f81b60648201526084016102a2565b6105a4336109f1565b818160000160008282546105b89190610bd9565b9250508190555081600460008282546105d19190610bd9565b9091555050600254600354604051631a4ca37b60e21b81526001600160a01b039182166004820152602481018590523060448201529116906369328dec906064016020604051808303816000875af1158015610631573d6000803e3d6000fd5b505050506040513d601f19601f820116820180604052508101906106559190610bec565b50600354604051632e1a7d4d60e01b8152600481018490526001600160a01b0390911690632e1a7d4d90602401600060405180830381600087803b15801561069c57600080fd5b505af11580156106b0573d6000803e3d6000fd5b5050604080518581524260208201523393507f92ccf450a286a957af52509bc1c9939d1a6a481783e142e41e2499f0bb66ebc692500160405180910390a25050565b6106fa6109c7565b610703336109f1565b33600090815260096020526040902060010154806107635760405162461bcd60e51b815260206004820181905260248201527f5374616b696e67506f6f6c3a204e6f207265776172647320746f20636c61696d60448201526064016102a2565b6003546002546040516340c10f1960e01b81526001600160a01b039182166004820152602481018490529116906340c10f1990604401600060405180830381600087803b1580156107b357600080fd5b505af11580156107c7573d6000803e3d6000fd5b5050336000818152600960205260408082206001018290555191935084156108fc029250849190818181858888f1935050505015801561080b573d6000803e3d6000fd5b506040805182815242602082015233917fdacbdde355ba930696a362ea6738feb9f8bd52dfb3d81947558fd3217e23e325910160405180910390a2506104ac60018055565b6007546001600160a01b0316331461087a5760405162461bcd60e51b81526004016102a290610c05565b610882610a92565b6040513381527f5db9ee0a495bf2e6ff9c91a7834c1ba4fdd244a5e8aa4e537bd38aeae4b073aa906020015b60405180910390a1565b6007546001600160a01b031633146108e25760405162461bcd60e51b81526004016102a290610c05565b6108ea610adf565b6040513381527f62e78cea01bee320cd4e420270b5ea74000d11b0c9f74754ebdbfc544b05a258906020016108ae565b6007546001600160a01b031633146109445760405162461bcd60e51b81526004016102a290610c05565b6005819055604080518281523360208201527fef41ee5751b56586e052b6b86bdfd7a85375d72e81e13b2136afd694fb8f8a54910160405180910390a150565b600061098f336109f1565b503360009081526009602052604090205490565b60005460ff16156104ac5760405163d93c066560e01b815260040160405180910390fd5b6002600154036109ea57604051633ee5aeb560e01b815260040160405180910390fd5b6002600155565b600060065442610a019190610bd9565b905060646301e133806000610a1882612710610c3c565b6001600160a01b0386166000908152600960205260409020548590610a3e908690610c3c565b610a489190610c3c565b610a529190610c53565b6001600160a01b038616600090815260096020526040812060010180549293508392909190610a82908490610bc0565b9091555050426006555050505050565b610a9a610b1c565b6000805460ff191690557f5db9ee0a495bf2e6ff9c91a7834c1ba4fdd244a5e8aa4e537bd38aeae4b073aa335b6040516001600160a01b0390911681526020016108ae565b610ae76109a3565b6000805460ff191660011790557f62e78cea01bee320cd4e420270b5ea74000d11b0c9f74754ebdbfc544b05a258610ac73390565b60005460ff166104ac57604051638dfc202b60e01b815260040160405180910390fd5b600060208284031215610b5157600080fd5b5035919050565b600060208284031215610b6a57600080fd5b81356001600160a01b0381168114610b8157600080fd5b9392505050565b600060208284031215610b9a57600080fd5b81518015158114610b8157600080fd5b634e487b7160e01b600052601160045260246000fd5b80820180821115610bd357610bd3610baa565b92915050565b81810381811115610bd357610bd3610baa565b600060208284031215610bfe57600080fd5b5051919050565b60208082526017908201527f4f6e6c79206f776e6572206973207065726d6974746564000000000000000000604082015260600190565b8082028115828204841417610bd357610bd3610baa565b600082610c7057634e487b7160e01b600052601260045260246000fd5b50049056fea26469706673582212205a0ec841c62b7ab3a934dfdb5d3bd98b0fb10392e9a2ca7cf15c8ce187c1e08b64736f6c63430008180033","linkReferences":{}},"methodIdentifiers":{"claimRewards()":"372500ab","getAmount()":"d321fe29","getRewards()":"0572b0cc","lastRewardTime()":"9231cf74","pause()":"8456cb59","paused()":"5c975abb","rewardRate()":"7b0a47ee","setRewardRate(uint256)":"9e447fc6","totalStaked()":"817b1cd2","unpause()":"3f4ba83a","userStakes(address)":"8da7ad23","withdraw(uint256)":"2e1a7d4d"},"id":0}