{
  "_format": "hh-sol-artifact-1",
  "contractName": "InsuranceManager",
  "sourceName": "contracts/InsurancePolicy.sol",
  "abi": [
    {
      "inputs": [],
      "stateMutability": "nonpayable",
      "type": "constructor"
    },
    {
      "inputs": [],
      "name": "InsurancePolicy_ExistingPolicyIsActive",
      "type": "error"
    },
    {
      "inputs": [],
      "name": "InsurancePolicy_HackDetected",
      "type": "error"
    },
    {
      "inputs": [
        {
          "internalType": "uint256",
          "name": "_balance",
          "type": "uint256"
        }
      ],
      "name": "InsurancePolicy_InsufficientFunds",
      "type": "error"
    },
    {
      "inputs": [],
      "name": "InsurancePolicy_InvalidPolicyStatus",
      "type": "error"
    },
    {
      "inputs": [
        {
          "internalType": "uint256",
          "name": "value",
          "type": "uint256"
        }
      ],
      "name": "InsurancePolicy_InvalidValue",
      "type": "error"
    },
    {
      "inputs": [],
      "name": "InsurancePolicy_NoActivePolicy",
      "type": "error"
    },
    {
      "inputs": [],
      "name": "InsurancePolicy_NoHackDetected",
      "type": "error"
    },
    {
      "inputs": [],
      "name": "InsurancePolicy_NotApproved",
      "type": "error"
    },
    {
      "inputs": [],
      "name": "InsurancePolicy_OnlyPolicyOwnerIsAllowed",
      "type": "error"
    },
    {
      "inputs": [],
      "name": "InsurancePolicy_PaymentUnsuccessful",
      "type": "error"
    },
    {
      "anonymous": false,
      "inputs": [
        {
          "indexed": true,
          "internalType": "uint256",
          "name": "policyId",
          "type": "uint256"
        }
      ],
      "name": "PolicyActivated",
      "type": "event"
    },
    {
      "anonymous": false,
      "inputs": [
        {
          "indexed": true,
          "internalType": "address",
          "name": "user",
          "type": "address"
        }
      ],
      "name": "PolicyCancelled",
      "type": "event"
    },
    {
      "anonymous": false,
      "inputs": [
        {
          "indexed": true,
          "internalType": "uint256",
          "name": "policyId",
          "type": "uint256"
        }
      ],
      "name": "PolicyClaimed",
      "type": "event"
    },
    {
      "anonymous": false,
      "inputs": [
        {
          "indexed": true,
          "internalType": "address",
          "name": "user",
          "type": "address"
        },
        {
          "indexed": false,
          "internalType": "uint256",
          "name": "insuredAmount",
          "type": "uint256"
        },
        {
          "indexed": false,
          "internalType": "uint256",
          "name": "premium",
          "type": "uint256"
        }
      ],
      "name": "PolicyCreated",
      "type": "event"
    },
    {
      "anonymous": false,
      "inputs": [
        {
          "indexed": true,
          "internalType": "uint256",
          "name": "policyId",
          "type": "uint256"
        },
        {
          "indexed": false,
          "internalType": "enum InsuranceManager.PolicyStatus",
          "name": "status",
          "type": "uint8"
        }
      ],
      "name": "PolicyReviewed",
      "type": "event"
    },
    {
      "inputs": [],
      "name": "MAX_VALUE",
      "outputs": [
        {
          "internalType": "uint256",
          "name": "",
          "type": "uint256"
        }
      ],
      "stateMutability": "view",
      "type": "function"
    },
    {
      "inputs": [],
      "name": "MIN_VALUE",
      "outputs": [
        {
          "internalType": "uint256",
          "name": "",
          "type": "uint256"
        }
      ],
      "stateMutability": "view",
      "type": "function"
    },
    {
      "inputs": [],
      "name": "cancelPolicy",
      "outputs": [],
      "stateMutability": "nonpayable",
      "type": "function"
    },
    {
      "inputs": [
        {
          "internalType": "address",
          "name": "_user",
          "type": "address"
        }
      ],
      "name": "checkPolicyValidity",
      "outputs": [
        {
          "internalType": "bool",
          "name": "",
          "type": "bool"
        }
      ],
      "stateMutability": "view",
      "type": "function"
    },
    {
      "inputs": [],
      "name": "claimPolicy",
      "outputs": [],
      "stateMutability": "nonpayable",
      "type": "function"
    },
    {
      "inputs": [
        {
          "internalType": "uint256",
          "name": "_coverageAmount",
          "type": "uint256"
        },
        {
          "internalType": "uint256",
          "name": "_period",
          "type": "uint256"
        }
      ],
      "name": "createPolicy",
      "outputs": [
        {
          "internalType": "uint256",
          "name": "",
          "type": "uint256"
        }
      ],
      "stateMutability": "payable",
      "type": "function"
    },
    {
      "inputs": [
        {
          "internalType": "address",
          "name": "",
          "type": "address"
        }
      ],
      "name": "currentUserPolicy",
      "outputs": [
        {
          "internalType": "uint256",
          "name": "id",
          "type": "uint256"
        },
        {
          "internalType": "address",
          "name": "owner",
          "type": "address"
        },
        {
          "internalType": "uint256",
          "name": "coverageAmount",
          "type": "uint256"
        },
        {
          "internalType": "uint256",
          "name": "premium",
          "type": "uint256"
        },
        {
          "internalType": "uint256",
          "name": "period",
          "type": "uint256"
        },
        {
          "internalType": "uint256",
          "name": "startTime",
          "type": "uint256"
        },
        {
          "internalType": "bool",
          "name": "active",
          "type": "bool"
        },
        {
          "internalType": "enum InsuranceManager.PolicyStatus",
          "name": "status",
          "type": "uint8"
        }
      ],
      "stateMutability": "view",
      "type": "function"
    },
    {
      "inputs": [
        {
          "internalType": "address",
          "name": "_user",
          "type": "address"
        }
      ],
      "name": "getPolicy",
      "outputs": [
        {
          "components": [
            {
              "internalType": "uint256",
              "name": "id",
              "type": "uint256"
            },
            {
              "internalType": "address",
              "name": "owner",
              "type": "address"
            },
            {
              "internalType": "uint256",
              "name": "coverageAmount",
              "type": "uint256"
            },
            {
              "internalType": "uint256",
              "name": "premium",
              "type": "uint256"
            },
            {
              "internalType": "uint256",
              "name": "period",
              "type": "uint256"
            },
            {
              "internalType": "uint256",
              "name": "startTime",
              "type": "uint256"
            },
            {
              "internalType": "bool",
              "name": "active",
              "type": "bool"
            },
            {
              "internalType": "enum InsuranceManager.PolicyStatus",
              "name": "status",
              "type": "uint8"
            }
          ],
          "internalType": "struct InsuranceManager.Policy",
          "name": "",
          "type": "tuple"
        }
      ],
      "stateMutability": "view",
      "type": "function"
    },
    {
      "inputs": [
        {
          "internalType": "uint256",
          "name": "coverageAmount_",
          "type": "uint256"
        },
        {
          "internalType": "uint256",
          "name": "period_",
          "type": "uint256"
        }
      ],
      "name": "getPremiumFee",
      "outputs": [
        {
          "internalType": "uint256",
          "name": "",
          "type": "uint256"
        }
      ],
      "stateMutability": "pure",
      "type": "function"
    },
    {
      "inputs": [],
      "name": "nextPolicyId",
      "outputs": [
        {
          "internalType": "uint256",
          "name": "",
          "type": "uint256"
        }
      ],
      "stateMutability": "view",
      "type": "function"
    },
    {
      "inputs": [
        {
          "internalType": "contract Manager",
          "name": "_manager",
          "type": "address"
        }
      ],
      "name": "setManager",
      "outputs": [],
      "stateMutability": "nonpayable",
      "type": "function"
    }
  ],
  "bytecode": "0x608060405234801561001057600080fd5b5033600260006101000a81548173ffffffffffffffffffffffffffffffffffffffff021916908373ffffffffffffffffffffffffffffffffffffffff160217905550611958806100616000396000f3fe60806040526004361061009c5760003560e01c80638072f956116100645780638072f9561461017b578063992c15fc146101b85780639aa3ec02146101e3578063c7e2f28e14610220578063cad0b8db14610250578063d0ebdbe71461027b5761009c565b8063063bde24146100a157806314a20bea146100cc5780633791dc6a146100e35780634ef2cc001461012057806367e6e2f914610137575b600080fd5b3480156100ad57600080fd5b506100b66102a4565b6040516100c3919061127c565b60405180910390f35b3480156100d857600080fd5b506100e16102b2565b005b3480156100ef57600080fd5b5061010a600480360381019061010591906112fa565b61080e565b6040516101179190611479565b60405180910390f35b34801561012c57600080fd5b50610135610946565b005b34801561014357600080fd5b5061015e600480360381019061015991906112fa565b610b28565b6040516101729897969594939291906114c2565b60405180910390f35b34801561018757600080fd5b506101a2600480360381019061019d91906112fa565b610baa565b6040516101af9190611540565b60405180910390f35b3480156101c457600080fd5b506101cd610d04565b6040516101da919061127c565b60405180910390f35b3480156101ef57600080fd5b5061020a60048036038101906102059190611587565b610d10565b604051610217919061127c565b60405180910390f35b61023a60048036038101906102359190611587565b610d24565b604051610247919061127c565b60405180910390f35b34801561025c57600080fd5b5061026561105d565b604051610272919061127c565b60405180910390f35b34801561028757600080fd5b506102a2600480360381019061029d9190611605565b611063565b005b69d3c21bcecceda100000081565b600360003373ffffffffffffffffffffffffffffffffffffffff1673ffffffffffffffffffffffffffffffffffffffff16815260200190815260200160002060010160009054906101000a900473ffffffffffffffffffffffffffffffffffffffff1673ffffffffffffffffffffffffffffffffffffffff163373ffffffffffffffffffffffffffffffffffffffff1614610379576040517fd6f60d8400000000000000000000000000000000000000000000000000000000815260040160405180910390fd5b6000600360003373ffffffffffffffffffffffffffffffffffffffff1673ffffffffffffffffffffffffffffffffffffffff16815260200190815260200160002060405180610100016040529081600082015481526020016001820160009054906101000a900473ffffffffffffffffffffffffffffffffffffffff1673ffffffffffffffffffffffffffffffffffffffff1673ffffffffffffffffffffffffffffffffffffffff168152602001600282015481526020016003820154815260200160048201548152602001600582015481526020016006820160009054906101000a900460ff161515151581526020016006820160019054906101000a900460ff16600381111561048e5761048d611360565b5b60038111156104a05761049f611360565b5b8152505090506000600160009054906101000a900473ffffffffffffffffffffffffffffffffffffffff1673ffffffffffffffffffffffffffffffffffffffff1663ef88c31e336040518263ffffffff1660e01b81526004016105039190611632565b602060405180830381865afa158015610520573d6000803e3d6000fd5b505050506040513d601f19601f82011682018060405250810190610544919061169d565b90508160c00151610581576040517f8b37965200000000000000000000000000000000000000000000000000000000815260040160405180910390fd5b6000819050600061059282856110a7565b9050600160038111156105a8576105a7611360565b5b8460e0015160038111156105bf576105be611360565b5b146105f6576040517fe2ce746a00000000000000000000000000000000000000000000000000000000815260040160405180910390fd5b60003373ffffffffffffffffffffffffffffffffffffffff168260405161061c906116fb565b60006040518083038185875af1925050503d8060008114610659576040519150601f19603f3d011682016040523d82523d6000602084013e61065e565b606091505b5050905080610699576040517fda07749b00000000000000000000000000000000000000000000000000000000815260040160405180910390fd5b60038560e0019060038111156106b2576106b1611360565b5b908160038111156106c6576106c5611360565b5b8152505084600360003373ffffffffffffffffffffffffffffffffffffffff1673ffffffffffffffffffffffffffffffffffffffff1681526020019081526020016000206000820151816000015560208201518160010160006101000a81548173ffffffffffffffffffffffffffffffffffffffff021916908373ffffffffffffffffffffffffffffffffffffffff16021790555060408201518160020155606082015181600301556080820151816004015560a0820151816005015560c08201518160060160006101000a81548160ff02191690831515021790555060e08201518160060160016101000a81548160ff021916908360038111156107ce576107cd611360565b5b021790555090505084600001517f9b0b73791f0d79c0dc29e8d76b2a6068c41226b28a7947998fdf6213e6ce227260405160405180910390a25050505050565b6108166111f4565b600360008373ffffffffffffffffffffffffffffffffffffffff1673ffffffffffffffffffffffffffffffffffffffff16815260200190815260200160002060405180610100016040529081600082015481526020016001820160009054906101000a900473ffffffffffffffffffffffffffffffffffffffff1673ffffffffffffffffffffffffffffffffffffffff1673ffffffffffffffffffffffffffffffffffffffff168152602001600282015481526020016003820154815260200160048201548152602001600582015481526020016006820160009054906101000a900460ff161515151581526020016006820160019054906101000a900460ff16600381111561092957610928611360565b5b600381111561093b5761093a611360565b5b815250509050919050565b600360003373ffffffffffffffffffffffffffffffffffffffff1673ffffffffffffffffffffffffffffffffffffffff16815260200190815260200160002060010160009054906101000a900473ffffffffffffffffffffffffffffffffffffffff1673ffffffffffffffffffffffffffffffffffffffff163373ffffffffffffffffffffffffffffffffffffffff1614610a0d576040517fd6f60d8400000000000000000000000000000000000000000000000000000000815260040160405180910390fd5b6000600360003373ffffffffffffffffffffffffffffffffffffffff1673ffffffffffffffffffffffffffffffffffffffff16815260200190815260200160002090508060060160009054906101000a900460ff16610a98576040517f8b37965200000000000000000000000000000000000000000000000000000000815260040160405180910390fd5b60008160060160006101000a81548160ff02191690831515021790555060028160060160016101000a81548160ff02191690836003811115610add57610adc611360565b5b02179055503373ffffffffffffffffffffffffffffffffffffffff167f885d66cbf95119e71ee4d46cb5794b6cae8beb42d312eebf331c1a26f50396cd60405160405180910390a250565b60036020528060005260406000206000915090508060000154908060010160009054906101000a900473ffffffffffffffffffffffffffffffffffffffff16908060020154908060030154908060040154908060050154908060060160009054906101000a900460ff16908060060160019054906101000a900460ff16905088565b600080600360008473ffffffffffffffffffffffffffffffffffffffff1673ffffffffffffffffffffffffffffffffffffffff16815260200190815260200160002060405180610100016040529081600082015481526020016001820160009054906101000a900473ffffffffffffffffffffffffffffffffffffffff1673ffffffffffffffffffffffffffffffffffffffff1673ffffffffffffffffffffffffffffffffffffffff168152602001600282015481526020016003820154815260200160048201548152602001600582015481526020016006820160009054906101000a900460ff161515151581526020016006820160019054906101000a900460ff166003811115610cc057610cbf611360565b5b6003811115610cd257610cd1611360565b5b8152505090508060c001518015610cfc575080608001518160a00151610cf8919061173f565b4211155b915050919050565b670de0b6b3a764000081565b6000610d1c83836111b8565b905092915050565b6000670de0b6b3a7640000831080610d45575069d3c21bcecceda100000083115b15610d8757826040517f51a5d889000000000000000000000000000000000000000000000000000000008152600401610d7e919061127c565b60405180910390fd5b6000610d9384846111b8565b905034811115610dda57806040517fd13f5cd7000000000000000000000000000000000000000000000000000000008152600401610dd1919061127c565b60405180910390fd5b600360003373ffffffffffffffffffffffffffffffffffffffff1673ffffffffffffffffffffffffffffffffffffffff16815260200190815260200160002060060160009054906101000a900460ff1615610e61576040517f2892758d00000000000000000000000000000000000000000000000000000000815260040160405180910390fd5b600060405180610100016040528060005481526020013373ffffffffffffffffffffffffffffffffffffffff1681526020018681526020018381526020016201518086610eae9190611773565b815260200142815260200160011515815260200160006003811115610ed657610ed5611360565b5b815250905080600360003373ffffffffffffffffffffffffffffffffffffffff1673ffffffffffffffffffffffffffffffffffffffff1681526020019081526020016000206000820151816000015560208201518160010160006101000a81548173ffffffffffffffffffffffffffffffffffffffff021916908373ffffffffffffffffffffffffffffffffffffffff16021790555060408201518160020155606082015181600301556080820151816004015560a0820151816005015560c08201518160060160006101000a81548160ff02191690831515021790555060e08201518160060160016101000a81548160ff02191690836003811115610fdf57610fde611360565b5b0217905550905050600080815480929190610ff9906117b5565b91905055503373ffffffffffffffffffffffffffffffffffffffff167f93aceb1c5e55aa194781a0423a101b97efa4a051e8d2fc2ba332ca75f4e4b6a786846040516110469291906117fd565b60405180910390a280600001519250505092915050565b60005481565b80600160006101000a81548173ffffffffffffffffffffffffffffffffffffffff021916908373ffffffffffffffffffffffffffffffffffffffff16021790555050565b60008060008473ffffffffffffffffffffffffffffffffffffffff16634085c8426040518163ffffffff1660e01b815260040160408051808303816000875af11580156110f8573d6000803e3d6000fd5b505050506040513d601f19601f8201168201806040525081019061111c9190611867565b9150915081158061112e575060008111155b1561113e576000925050506111b2565b60018460e00190600381111561115757611156611360565b5b9081600381111561116b5761116a611360565b5b8152505083600001517f16680ce6b8020dad634b0439f5c1c499df7f834204c844f553eefffd4b0f85a860016040516111a491906118a7565b60405180910390a280925050505b92915050565b6000806103e8905060006237b1d08483876111d39190611773565b6111dd9190611773565b6111e791906118f1565b9050809250505092915050565b60405180610100016040528060008152602001600073ffffffffffffffffffffffffffffffffffffffff168152602001600081526020016000815260200160008152602001600081526020016000151581526020016000600381111561125d5761125c611360565b5b81525090565b6000819050919050565b61127681611263565b82525050565b6000602082019050611291600083018461126d565b92915050565b600080fd5b600073ffffffffffffffffffffffffffffffffffffffff82169050919050565b60006112c78261129c565b9050919050565b6112d7816112bc565b81146112e257600080fd5b50565b6000813590506112f4816112ce565b92915050565b6000602082840312156113105761130f611297565b5b600061131e848285016112e5565b91505092915050565b61133081611263565b82525050565b61133f816112bc565b82525050565b60008115159050919050565b61135a81611345565b82525050565b7f4e487b7100000000000000000000000000000000000000000000000000000000600052602160045260246000fd5b600481106113a05761139f611360565b5b50565b60008190506113b18261138f565b919050565b60006113c1826113a3565b9050919050565b6113d1816113b6565b82525050565b610100820160008201516113ee6000850182611327565b5060208201516114016020850182611336565b5060408201516114146040850182611327565b5060608201516114276060850182611327565b50608082015161143a6080850182611327565b5060a082015161144d60a0850182611327565b5060c082015161146060c0850182611351565b5060e082015161147360e08501826113c8565b50505050565b60006101008201905061148f60008301846113d7565b92915050565b61149e816112bc565b82525050565b6114ad81611345565b82525050565b6114bc816113b6565b82525050565b6000610100820190506114d8600083018b61126d565b6114e5602083018a611495565b6114f2604083018961126d565b6114ff606083018861126d565b61150c608083018761126d565b61151960a083018661126d565b61152660c08301856114a4565b61153360e08301846114b3565b9998505050505050505050565b600060208201905061155560008301846114a4565b92915050565b61156481611263565b811461156f57600080fd5b50565b6000813590506115818161155b565b92915050565b6000806040838503121561159e5761159d611297565b5b60006115ac85828601611572565b92505060206115bd85828601611572565b9150509250929050565b60006115d2826112bc565b9050919050565b6115e2816115c7565b81146115ed57600080fd5b50565b6000813590506115ff816115d9565b92915050565b60006020828403121561161b5761161a611297565b5b6000611629848285016115f0565b91505092915050565b60006020820190506116476000830184611495565b92915050565b60006116588261129c565b9050919050565b600061166a8261164d565b9050919050565b61167a8161165f565b811461168557600080fd5b50565b60008151905061169781611671565b92915050565b6000602082840312156116b3576116b2611297565b5b60006116c184828501611688565b91505092915050565b600081905092915050565b50565b60006116e56000836116ca565b91506116f0826116d5565b600082019050919050565b6000611706826116d8565b9150819050919050565b7f4e487b7100000000000000000000000000000000000000000000000000000000600052601160045260246000fd5b600061174a82611263565b915061175583611263565b925082820190508082111561176d5761176c611710565b5b92915050565b600061177e82611263565b915061178983611263565b925082820261179781611263565b915082820484148315176117ae576117ad611710565b5b5092915050565b60006117c082611263565b91507fffffffffffffffffffffffffffffffffffffffffffffffffffffffffffffffff82036117f2576117f1611710565b5b600182019050919050565b6000604082019050611812600083018561126d565b61181f602083018461126d565b9392505050565b61182f81611345565b811461183a57600080fd5b50565b60008151905061184c81611826565b92915050565b6000815190506118618161155b565b92915050565b6000806040838503121561187e5761187d611297565b5b600061188c8582860161183d565b925050602061189d85828601611852565b9150509250929050565b60006020820190506118bc60008301846114b3565b92915050565b7f4e487b7100000000000000000000000000000000000000000000000000000000600052601260045260246000fd5b60006118fc82611263565b915061190783611263565b925082611917576119166118c2565b5b82820490509291505056fea264697066735822122026f03968b0d025e47f4ad298db6bc467e440456063c74910cc661322b2eb62e064736f6c63430008180033",
  "linkReferences": {},
  "deployedLinkReferences": {}
}