{
  "_format": "hh-sol-artifact-1",
  "contractName": "InsuranceManager",
  "sourceName": "contracts/InsurancePolicy.sol",
  "abi": [
    {
      "inputs": [],
      "stateMutability": "nonpayable",
      "type": "constructor"
    },
    {
      "inputs": [],
      "name": "InsurancePolicy_ExistingPolicyIsActive",
      "type": "error"
    },
    {
      "inputs": [],
      "name": "InsurancePolicy_HackDetected",
      "type": "error"
    },
    {
      "inputs": [
        {
          "internalType": "uint256",
          "name": "_balance",
          "type": "uint256"
        }
      ],
      "name": "InsurancePolicy_InsufficientFunds",
      "type": "error"
    },
    {
      "inputs": [],
      "name": "InsurancePolicy_InvalidPolicyStatus",
      "type": "error"
    },
    {
      "inputs": [
        {
          "internalType": "uint256",
          "name": "value",
          "type": "uint256"
        }
      ],
      "name": "InsurancePolicy_InvalidValue",
      "type": "error"
    },
    {
      "inputs": [],
      "name": "InsurancePolicy_NoActivePolicy",
      "type": "error"
    },
    {
      "inputs": [],
      "name": "InsurancePolicy_NoHackDetected",
      "type": "error"
    },
    {
      "inputs": [],
      "name": "InsurancePolicy_NotApproved",
      "type": "error"
    },
    {
      "inputs": [],
      "name": "InsurancePolicy_OnlyPolicyOwnerIsAllowed",
      "type": "error"
    },
    {
      "inputs": [],
      "name": "InsurancePolicy_PaymentUnsuccessful",
      "type": "error"
    },
    {
      "anonymous": false,
      "inputs": [
        {
          "indexed": true,
          "internalType": "uint256",
          "name": "policyId",
          "type": "uint256"
        }
      ],
      "name": "PolicyActivated",
      "type": "event"
    },
    {
      "anonymous": false,
      "inputs": [
        {
          "indexed": true,
          "internalType": "address",
          "name": "user",
          "type": "address"
        }
      ],
      "name": "PolicyCancelled",
      "type": "event"
    },
    {
      "anonymous": false,
      "inputs": [
        {
          "indexed": true,
          "internalType": "uint256",
          "name": "policyId",
          "type": "uint256"
        }
      ],
      "name": "PolicyClaimed",
      "type": "event"
    },
    {
      "anonymous": false,
      "inputs": [
        {
          "indexed": true,
          "internalType": "address",
          "name": "user",
          "type": "address"
        },
        {
          "indexed": false,
          "internalType": "uint256",
          "name": "insuredAmount",
          "type": "uint256"
        },
        {
          "indexed": false,
          "internalType": "uint256",
          "name": "premium",
          "type": "uint256"
        }
      ],
      "name": "PolicyCreated",
      "type": "event"
    },
    {
      "anonymous": false,
      "inputs": [
        {
          "indexed": true,
          "internalType": "uint256",
          "name": "policyId",
          "type": "uint256"
        },
        {
          "indexed": false,
          "internalType": "enum InsuranceManager.PolicyStatus",
          "name": "status",
          "type": "uint8"
        }
      ],
      "name": "PolicyReviewed",
      "type": "event"
    },
    {
      "inputs": [],
      "name": "MAX_VALUE",
      "outputs": [
        {
          "internalType": "uint256",
          "name": "",
          "type": "uint256"
        }
      ],
      "stateMutability": "view",
      "type": "function"
    },
    {
      "inputs": [],
      "name": "MIN_VALUE",
      "outputs": [
        {
          "internalType": "uint256",
          "name": "",
          "type": "uint256"
        }
      ],
      "stateMutability": "view",
      "type": "function"
    },
    {
      "inputs": [
        {
          "internalType": "contract SecuredVault",
          "name": "securedVault_",
          "type": "address"
        },
        {
          "components": [
            {
              "internalType": "uint256",
              "name": "id",
              "type": "uint256"
            },
            {
              "internalType": "address",
              "name": "owner",
              "type": "address"
            },
            {
              "internalType": "uint256",
              "name": "coverageAmount",
              "type": "uint256"
            },
            {
              "internalType": "uint256",
              "name": "premium",
              "type": "uint256"
            },
            {
              "internalType": "uint256",
              "name": "period",
              "type": "uint256"
            },
            {
              "internalType": "uint256",
              "name": "startTime",
              "type": "uint256"
            },
            {
              "internalType": "bool",
              "name": "active",
              "type": "bool"
            },
            {
              "internalType": "enum InsuranceManager.PolicyStatus",
              "name": "status",
              "type": "uint8"
            }
          ],
          "internalType": "struct InsuranceManager.Policy",
          "name": "policy_",
          "type": "tuple"
        }
      ],
      "name": "_approvePolicy",
      "outputs": [
        {
          "internalType": "uint256",
          "name": "",
          "type": "uint256"
        }
      ],
      "stateMutability": "nonpayable",
      "type": "function"
    },
    {
      "inputs": [],
      "name": "cancelPolicy",
      "outputs": [],
      "stateMutability": "nonpayable",
      "type": "function"
    },
    {
      "inputs": [
        {
          "internalType": "address",
          "name": "_user",
          "type": "address"
        }
      ],
      "name": "checkPolicyValidity",
      "outputs": [
        {
          "internalType": "bool",
          "name": "",
          "type": "bool"
        }
      ],
      "stateMutability": "view",
      "type": "function"
    },
    {
      "inputs": [
        {
          "internalType": "address",
          "name": "vaultAddress_",
          "type": "address"
        }
      ],
      "name": "claimPolicy",
      "outputs": [],
      "stateMutability": "nonpayable",
      "type": "function"
    },
    {
      "inputs": [
        {
          "internalType": "uint256",
          "name": "_coverageAmount",
          "type": "uint256"
        },
        {
          "internalType": "uint256",
          "name": "_period",
          "type": "uint256"
        }
      ],
      "name": "createPolicy",
      "outputs": [
        {
          "internalType": "uint256",
          "name": "",
          "type": "uint256"
        }
      ],
      "stateMutability": "payable",
      "type": "function"
    },
    {
      "inputs": [
        {
          "internalType": "address",
          "name": "",
          "type": "address"
        }
      ],
      "name": "currentUserPolicy",
      "outputs": [
        {
          "internalType": "uint256",
          "name": "id",
          "type": "uint256"
        },
        {
          "internalType": "address",
          "name": "owner",
          "type": "address"
        },
        {
          "internalType": "uint256",
          "name": "coverageAmount",
          "type": "uint256"
        },
        {
          "internalType": "uint256",
          "name": "premium",
          "type": "uint256"
        },
        {
          "internalType": "uint256",
          "name": "period",
          "type": "uint256"
        },
        {
          "internalType": "uint256",
          "name": "startTime",
          "type": "uint256"
        },
        {
          "internalType": "bool",
          "name": "active",
          "type": "bool"
        },
        {
          "internalType": "enum InsuranceManager.PolicyStatus",
          "name": "status",
          "type": "uint8"
        }
      ],
      "stateMutability": "view",
      "type": "function"
    },
    {
      "inputs": [
        {
          "internalType": "address",
          "name": "_user",
          "type": "address"
        }
      ],
      "name": "getPolicy",
      "outputs": [
        {
          "components": [
            {
              "internalType": "uint256",
              "name": "id",
              "type": "uint256"
            },
            {
              "internalType": "address",
              "name": "owner",
              "type": "address"
            },
            {
              "internalType": "uint256",
              "name": "coverageAmount",
              "type": "uint256"
            },
            {
              "internalType": "uint256",
              "name": "premium",
              "type": "uint256"
            },
            {
              "internalType": "uint256",
              "name": "period",
              "type": "uint256"
            },
            {
              "internalType": "uint256",
              "name": "startTime",
              "type": "uint256"
            },
            {
              "internalType": "bool",
              "name": "active",
              "type": "bool"
            },
            {
              "internalType": "enum InsuranceManager.PolicyStatus",
              "name": "status",
              "type": "uint8"
            }
          ],
          "internalType": "struct InsuranceManager.Policy",
          "name": "",
          "type": "tuple"
        }
      ],
      "stateMutability": "view",
      "type": "function"
    },
    {
      "inputs": [
        {
          "internalType": "uint256",
          "name": "coverageAmount_",
          "type": "uint256"
        },
        {
          "internalType": "uint256",
          "name": "period_",
          "type": "uint256"
        }
      ],
      "name": "getPremiumFee",
      "outputs": [
        {
          "internalType": "uint256",
          "name": "",
          "type": "uint256"
        }
      ],
      "stateMutability": "pure",
      "type": "function"
    },
    {
      "inputs": [],
      "name": "nextPolicyId",
      "outputs": [
        {
          "internalType": "uint256",
          "name": "",
          "type": "uint256"
        }
      ],
      "stateMutability": "view",
      "type": "function"
    },
    {
      "inputs": [
        {
          "internalType": "contract Manager",
          "name": "_manager",
          "type": "address"
        }
      ],
      "name": "setManager",
      "outputs": [],
      "stateMutability": "nonpayable",
      "type": "function"
    }
  ],
  "bytecode": "0x608060405234801561001057600080fd5b5033600260006101000a81548173ffffffffffffffffffffffffffffffffffffffff021916908373ffffffffffffffffffffffffffffffffffffffff160217905550611ab0806100616000396000f3fe6080604052600436106100a75760003560e01c80639aa3ec02116100645780639aa3ec02146101d7578063b1bd793114610214578063c7e2f28e14610251578063cad0b8db14610281578063cce267f6146102ac578063d0ebdbe7146102d5576100a7565b8063063bde24146100ac5780633791dc6a146100d75780634ef2cc001461011457806367e6e2f91461012b5780638072f9561461016f578063992c15fc146101ac575b600080fd5b3480156100b857600080fd5b506100c16102fe565b6040516100ce919061123c565b60405180910390f35b3480156100e357600080fd5b506100fe60048036038101906100f991906112c4565b61030c565b60405161010b9190611443565b60405180910390f35b34801561012057600080fd5b50610129610444565b005b34801561013757600080fd5b50610152600480360381019061014d91906112c4565b610626565b60405161016698979695949392919061148c565b60405180910390f35b34801561017b57600080fd5b50610196600480360381019061019191906112c4565b6106a8565b6040516101a3919061150a565b60405180910390f35b3480156101b857600080fd5b506101c1610802565b6040516101ce919061123c565b60405180910390f35b3480156101e357600080fd5b506101fe60048036038101906101f99190611551565b61080e565b60405161020b919061123c565b60405180910390f35b34801561022057600080fd5b5061023b6004803603810190610236919061178d565b610822565b604051610248919061123c565b60405180910390f35b61026b60048036038101906102669190611551565b610933565b604051610278919061123c565b60405180910390f35b34801561028d57600080fd5b50610296610c6c565b6040516102a3919061123c565b60405180910390f35b3480156102b857600080fd5b506102d360048036038101906102ce91906112c4565b610c72565b005b3480156102e157600080fd5b506102fc60048036038101906102f7919061180c565b611134565b005b69d3c21bcecceda100000081565b6103146111b4565b600360008373ffffffffffffffffffffffffffffffffffffffff1673ffffffffffffffffffffffffffffffffffffffff16815260200190815260200160002060405180610100016040529081600082015481526020016001820160009054906101000a900473ffffffffffffffffffffffffffffffffffffffff1673ffffffffffffffffffffffffffffffffffffffff1673ffffffffffffffffffffffffffffffffffffffff168152602001600282015481526020016003820154815260200160048201548152602001600582015481526020016006820160009054906101000a900460ff161515151581526020016006820160019054906101000a900460ff1660038111156104275761042661132a565b5b60038111156104395761043861132a565b5b815250509050919050565b600360003373ffffffffffffffffffffffffffffffffffffffff1673ffffffffffffffffffffffffffffffffffffffff16815260200190815260200160002060010160009054906101000a900473ffffffffffffffffffffffffffffffffffffffff1673ffffffffffffffffffffffffffffffffffffffff163373ffffffffffffffffffffffffffffffffffffffff161461050b576040517fd6f60d8400000000000000000000000000000000000000000000000000000000815260040160405180910390fd5b6000600360003373ffffffffffffffffffffffffffffffffffffffff1673ffffffffffffffffffffffffffffffffffffffff16815260200190815260200160002090508060060160009054906101000a900460ff16610596576040517f8b37965200000000000000000000000000000000000000000000000000000000815260040160405180910390fd5b60008160060160006101000a81548160ff02191690831515021790555060028160060160016101000a81548160ff021916908360038111156105db576105da61132a565b5b02179055503373ffffffffffffffffffffffffffffffffffffffff167f885d66cbf95119e71ee4d46cb5794b6cae8beb42d312eebf331c1a26f50396cd60405160405180910390a250565b60036020528060005260406000206000915090508060000154908060010160009054906101000a900473ffffffffffffffffffffffffffffffffffffffff16908060020154908060030154908060040154908060050154908060060160009054906101000a900460ff16908060060160019054906101000a900460ff16905088565b600080600360008473ffffffffffffffffffffffffffffffffffffffff1673ffffffffffffffffffffffffffffffffffffffff16815260200190815260200160002060405180610100016040529081600082015481526020016001820160009054906101000a900473ffffffffffffffffffffffffffffffffffffffff1673ffffffffffffffffffffffffffffffffffffffff1673ffffffffffffffffffffffffffffffffffffffff168152602001600282015481526020016003820154815260200160048201548152602001600582015481526020016006820160009054906101000a900460ff161515151581526020016006820160019054906101000a900460ff1660038111156107be576107bd61132a565b5b60038111156107d0576107cf61132a565b5b8152505090508060c0015180156107fa575080608001518160a001516107f69190611868565b4211155b915050919050565b670de0b6b3a764000081565b600061081a8383611178565b905092915050565b60008060008473ffffffffffffffffffffffffffffffffffffffff16634085c8426040518163ffffffff1660e01b815260040160408051808303816000875af1158015610873573d6000803e3d6000fd5b505050506040513d601f19601f8201168201806040525081019061089791906118c6565b915091508115806108a9575060008111155b156108b95760009250505061092d565b60018460e0019060038111156108d2576108d161132a565b5b908160038111156108e6576108e561132a565b5b8152505083600001517f16680ce6b8020dad634b0439f5c1c499df7f834204c844f553eefffd4b0f85a8600160405161091f9190611906565b60405180910390a280925050505b92915050565b6000670de0b6b3a7640000831080610954575069d3c21bcecceda100000083115b1561099657826040517f51a5d88900000000000000000000000000000000000000000000000000000000815260040161098d919061123c565b60405180910390fd5b60006109a28484611178565b9050348111156109e957806040517fd13f5cd70000000000000000000000000000000000000000000000000000000081526004016109e0919061123c565b60405180910390fd5b600360003373ffffffffffffffffffffffffffffffffffffffff1673ffffffffffffffffffffffffffffffffffffffff16815260200190815260200160002060060160009054906101000a900460ff1615610a70576040517f2892758d00000000000000000000000000000000000000000000000000000000815260040160405180910390fd5b600060405180610100016040528060005481526020013373ffffffffffffffffffffffffffffffffffffffff1681526020018681526020018381526020016201518086610abd9190611921565b815260200142815260200160011515815260200160006003811115610ae557610ae461132a565b5b815250905080600360003373ffffffffffffffffffffffffffffffffffffffff1673ffffffffffffffffffffffffffffffffffffffff1681526020019081526020016000206000820151816000015560208201518160010160006101000a81548173ffffffffffffffffffffffffffffffffffffffff021916908373ffffffffffffffffffffffffffffffffffffffff16021790555060408201518160020155606082015181600301556080820151816004015560a0820151816005015560c08201518160060160006101000a81548160ff02191690831515021790555060e08201518160060160016101000a81548160ff02191690836003811115610bee57610bed61132a565b5b0217905550905050600080815480929190610c0890611963565b91905055503373ffffffffffffffffffffffffffffffffffffffff167f93aceb1c5e55aa194781a0423a101b97efa4a051e8d2fc2ba332ca75f4e4b6a78684604051610c559291906119ab565b60405180910390a280600001519250505092915050565b60005481565b600360003373ffffffffffffffffffffffffffffffffffffffff1673ffffffffffffffffffffffffffffffffffffffff16815260200190815260200160002060010160009054906101000a900473ffffffffffffffffffffffffffffffffffffffff1673ffffffffffffffffffffffffffffffffffffffff163373ffffffffffffffffffffffffffffffffffffffff1614610d39576040517fd6f60d8400000000000000000000000000000000000000000000000000000000815260040160405180910390fd5b6000600360003373ffffffffffffffffffffffffffffffffffffffff1673ffffffffffffffffffffffffffffffffffffffff16815260200190815260200160002060405180610100016040529081600082015481526020016001820160009054906101000a900473ffffffffffffffffffffffffffffffffffffffff1673ffffffffffffffffffffffffffffffffffffffff1673ffffffffffffffffffffffffffffffffffffffff168152602001600282015481526020016003820154815260200160048201548152602001600582015481526020016006820160009054906101000a900460ff161515151581526020016006820160019054906101000a900460ff166003811115610e4e57610e4d61132a565b5b6003811115610e6057610e5f61132a565b5b81525050905060008290508160c00151610ea6576040517f8b37965200000000000000000000000000000000000000000000000000000000815260040160405180910390fd5b60008190506000610eb78285610822565b905060016003811115610ecd57610ecc61132a565b5b8460e001516003811115610ee457610ee361132a565b5b14610f1b576040517fe2ce746a00000000000000000000000000000000000000000000000000000000815260040160405180910390fd5b60003373ffffffffffffffffffffffffffffffffffffffff1682604051610f4190611a05565b60006040518083038185875af1925050503d8060008114610f7e576040519150601f19603f3d011682016040523d82523d6000602084013e610f83565b606091505b5050905080610fbe576040517fda07749b00000000000000000000000000000000000000000000000000000000815260040160405180910390fd5b60038560e001906003811115610fd757610fd661132a565b5b90816003811115610feb57610fea61132a565b5b8152505084600360003373ffffffffffffffffffffffffffffffffffffffff1673ffffffffffffffffffffffffffffffffffffffff1681526020019081526020016000206000820151816000015560208201518160010160006101000a81548173ffffffffffffffffffffffffffffffffffffffff021916908373ffffffffffffffffffffffffffffffffffffffff16021790555060408201518160020155606082015181600301556080820151816004015560a0820151816005015560c08201518160060160006101000a81548160ff02191690831515021790555060e08201518160060160016101000a81548160ff021916908360038111156110f3576110f261132a565b5b021790555090505084600001517f9b0b73791f0d79c0dc29e8d76b2a6068c41226b28a7947998fdf6213e6ce227260405160405180910390a2505050505050565b80600160006101000a81548173ffffffffffffffffffffffffffffffffffffffff021916908373ffffffffffffffffffffffffffffffffffffffff16021790555050565b6000806103e8905060006237b1d08483876111939190611921565b61119d9190611921565b6111a79190611a49565b9050809250505092915050565b60405180610100016040528060008152602001600073ffffffffffffffffffffffffffffffffffffffff168152602001600081526020016000815260200160008152602001600081526020016000151581526020016000600381111561121d5761121c61132a565b5b81525090565b6000819050919050565b61123681611223565b82525050565b6000602082019050611251600083018461122d565b92915050565b6000604051905090565b600080fd5b600073ffffffffffffffffffffffffffffffffffffffff82169050919050565b600061129182611266565b9050919050565b6112a181611286565b81146112ac57600080fd5b50565b6000813590506112be81611298565b92915050565b6000602082840312156112da576112d9611261565b5b60006112e8848285016112af565b91505092915050565b6112fa81611223565b82525050565b61130981611286565b82525050565b60008115159050919050565b6113248161130f565b82525050565b7f4e487b7100000000000000000000000000000000000000000000000000000000600052602160045260246000fd5b6004811061136a5761136961132a565b5b50565b600081905061137b82611359565b919050565b600061138b8261136d565b9050919050565b61139b81611380565b82525050565b610100820160008201516113b860008501826112f1565b5060208201516113cb6020850182611300565b5060408201516113de60408501826112f1565b5060608201516113f160608501826112f1565b50608082015161140460808501826112f1565b5060a082015161141760a08501826112f1565b5060c082015161142a60c085018261131b565b5060e082015161143d60e0850182611392565b50505050565b60006101008201905061145960008301846113a1565b92915050565b61146881611286565b82525050565b6114778161130f565b82525050565b61148681611380565b82525050565b6000610100820190506114a2600083018b61122d565b6114af602083018a61145f565b6114bc604083018961122d565b6114c9606083018861122d565b6114d6608083018761122d565b6114e360a083018661122d565b6114f060c083018561146e565b6114fd60e083018461147d565b9998505050505050505050565b600060208201905061151f600083018461146e565b92915050565b61152e81611223565b811461153957600080fd5b50565b60008135905061154b81611525565b92915050565b6000806040838503121561156857611567611261565b5b60006115768582860161153c565b92505060206115878582860161153c565b9150509250929050565b600061159c82611266565b9050919050565b60006115ae82611591565b9050919050565b6115be816115a3565b81146115c957600080fd5b50565b6000813590506115db816115b5565b92915050565b600080fd5b6000601f19601f8301169050919050565b7f4e487b7100000000000000000000000000000000000000000000000000000000600052604160045260246000fd5b61162f826115e6565b810181811067ffffffffffffffff8211171561164e5761164d6115f7565b5b80604052505050565b6000611661611257565b905061166d8282611626565b919050565b61167b8161130f565b811461168657600080fd5b50565b60008135905061169881611672565b92915050565b600481106116ab57600080fd5b50565b6000813590506116bd8161169e565b92915050565b600061010082840312156116da576116d96115e1565b5b6116e5610100611657565b905060006116f58482850161153c565b6000830152506020611709848285016112af565b602083015250604061171d8482850161153c565b60408301525060606117318482850161153c565b60608301525060806117458482850161153c565b60808301525060a06117598482850161153c565b60a08301525060c061176d84828501611689565b60c08301525060e0611781848285016116ae565b60e08301525092915050565b60008061012083850312156117a5576117a4611261565b5b60006117b3858286016115cc565b92505060206117c4858286016116c3565b9150509250929050565b60006117d982611286565b9050919050565b6117e9816117ce565b81146117f457600080fd5b50565b600081359050611806816117e0565b92915050565b60006020828403121561182257611821611261565b5b6000611830848285016117f7565b91505092915050565b7f4e487b7100000000000000000000000000000000000000000000000000000000600052601160045260246000fd5b600061187382611223565b915061187e83611223565b925082820190508082111561189657611895611839565b5b92915050565b6000815190506118ab81611672565b92915050565b6000815190506118c081611525565b92915050565b600080604083850312156118dd576118dc611261565b5b60006118eb8582860161189c565b92505060206118fc858286016118b1565b9150509250929050565b600060208201905061191b600083018461147d565b92915050565b600061192c82611223565b915061193783611223565b925082820261194581611223565b9150828204841483151761195c5761195b611839565b5b5092915050565b600061196e82611223565b91507fffffffffffffffffffffffffffffffffffffffffffffffffffffffffffffffff82036119a05761199f611839565b5b600182019050919050565b60006040820190506119c0600083018561122d565b6119cd602083018461122d565b9392505050565b600081905092915050565b50565b60006119ef6000836119d4565b91506119fa826119df565b600082019050919050565b6000611a10826119e2565b9150819050919050565b7f4e487b7100000000000000000000000000000000000000000000000000000000600052601260045260246000fd5b6000611a5482611223565b9150611a5f83611223565b925082611a6f57611a6e611a1a565b5b82820490509291505056fea2646970667358221220f15ac49b4cae4a0a4cf4bc7cd91a3dd10742495b3ed422cc1f73362d71c25e1764736f6c63430008180033",
  "linkReferences": {},
  "deployedLinkReferences": {}
}