{
  "_format": "hh-sol-artifact-1",
  "contractName": "SecuredVault",
  "sourceName": "contracts/SecuredVault.sol",
  "abi": [
    {
      "inputs": [
        {
          "internalType": "address",
          "name": "_owner",
          "type": "address"
        },
        {
          "internalType": "uint256",
          "name": "_threshold",
          "type": "uint256"
        },
        {
          "internalType": "string",
          "name": "_secret",
          "type": "string"
        }
      ],
      "stateMutability": "nonpayable",
      "type": "constructor"
    },
    {
      "inputs": [],
      "name": "EnforcedPause",
      "type": "error"
    },
    {
      "inputs": [],
      "name": "ExpectedPause",
      "type": "error"
    },
    {
      "inputs": [],
      "name": "ReentrancyGuardReentrantCall",
      "type": "error"
    },
    {
      "inputs": [],
      "name": "SecuredVault_AccountIsFrozen",
      "type": "error"
    },
    {
      "inputs": [],
      "name": "SecuredVault_InsufficientBalance",
      "type": "error"
    },
    {
      "inputs": [],
      "name": "SecuredVault_InvalidSecret",
      "type": "error"
    },
    {
      "inputs": [],
      "name": "SecuredVault_OnlyOwner",
      "type": "error"
    },
    {
      "inputs": [],
      "name": "SecuredVault_ThresholdLimitExceeded",
      "type": "error"
    },
    {
      "inputs": [],
      "name": "SecuredVault_TransactionFailed",
      "type": "error"
    },
    {
      "anonymous": false,
      "inputs": [
        {
          "indexed": false,
          "internalType": "string",
          "name": "reason",
          "type": "string"
        }
      ],
      "name": "Frozen",
      "type": "event"
    },
    {
      "anonymous": false,
      "inputs": [
        {
          "indexed": false,
          "internalType": "address",
          "name": "to",
          "type": "address"
        },
        {
          "indexed": false,
          "internalType": "uint256",
          "name": "amount",
          "type": "uint256"
        }
      ],
      "name": "FundsWithdrawn",
      "type": "event"
    },
    {
      "anonymous": false,
      "inputs": [
        {
          "indexed": false,
          "internalType": "uint256",
          "name": "fundsLost",
          "type": "uint256"
        }
      ],
      "name": "HackDetected",
      "type": "event"
    },
    {
      "anonymous": false,
      "inputs": [
        {
          "indexed": false,
          "internalType": "address",
          "name": "account",
          "type": "address"
        }
      ],
      "name": "Paused",
      "type": "event"
    },
    {
      "anonymous": false,
      "inputs": [
        {
          "indexed": false,
          "internalType": "address",
          "name": "user",
          "type": "address"
        }
      ],
      "name": "SuspiciousBehaviorDetected",
      "type": "event"
    },
    {
      "anonymous": false,
      "inputs": [
        {
          "indexed": false,
          "internalType": "uint256",
          "name": "transactionCount",
          "type": "uint256"
        },
        {
          "indexed": false,
          "internalType": "uint256",
          "name": "totalValue",
          "type": "uint256"
        }
      ],
      "name": "ThresholdExceeded",
      "type": "event"
    },
    {
      "anonymous": false,
      "inputs": [
        {
          "indexed": false,
          "internalType": "string",
          "name": "message",
          "type": "string"
        }
      ],
      "name": "Unfrozen",
      "type": "event"
    },
    {
      "anonymous": false,
      "inputs": [
        {
          "indexed": false,
          "internalType": "address",
          "name": "account",
          "type": "address"
        }
      ],
      "name": "Unpaused",
      "type": "event"
    },
    {
      "stateMutability": "payable",
      "type": "fallback"
    },
    {
      "inputs": [],
      "name": "getAccountStatus",
      "outputs": [
        {
          "internalType": "bool",
          "name": "",
          "type": "bool"
        }
      ],
      "stateMutability": "view",
      "type": "function"
    },
    {
      "inputs": [],
      "name": "getBalance",
      "outputs": [
        {
          "internalType": "uint256",
          "name": "",
          "type": "uint256"
        }
      ],
      "stateMutability": "view",
      "type": "function"
    },
    {
      "inputs": [
        {
          "internalType": "string",
          "name": "_secret",
          "type": "string"
        }
      ],
      "name": "isHashedMatch",
      "outputs": [
        {
          "internalType": "bool",
          "name": "",
          "type": "bool"
        }
      ],
      "stateMutability": "view",
      "type": "function"
    },
    {
      "inputs": [],
      "name": "pauseContract",
      "outputs": [],
      "stateMutability": "nonpayable",
      "type": "function"
    },
    {
      "inputs": [],
      "name": "paused",
      "outputs": [
        {
          "internalType": "bool",
          "name": "",
          "type": "bool"
        }
      ],
      "stateMutability": "view",
      "type": "function"
    },
    {
      "inputs": [],
      "name": "reportHack",
      "outputs": [
        {
          "internalType": "bool",
          "name": "",
          "type": "bool"
        },
        {
          "internalType": "uint256",
          "name": "",
          "type": "uint256"
        }
      ],
      "stateMutability": "nonpayable",
      "type": "function"
    },
    {
      "inputs": [
        {
          "internalType": "address payable",
          "name": "_to",
          "type": "address"
        },
        {
          "internalType": "uint256",
          "name": "_amount",
          "type": "uint256"
        }
      ],
      "name": "sendFunds",
      "outputs": [
        {
          "internalType": "bool",
          "name": "",
          "type": "bool"
        }
      ],
      "stateMutability": "payable",
      "type": "function"
    },
    {
      "inputs": [
        {
          "internalType": "string",
          "name": "_secret",
          "type": "string"
        }
      ],
      "name": "setSecret",
      "outputs": [],
      "stateMutability": "nonpayable",
      "type": "function"
    },
    {
      "inputs": [
        {
          "internalType": "uint256",
          "name": "_newThreshold",
          "type": "uint256"
        }
      ],
      "name": "setThreshold",
      "outputs": [],
      "stateMutability": "nonpayable",
      "type": "function"
    },
    {
      "inputs": [
        {
          "internalType": "string",
          "name": "_secret",
          "type": "string"
        }
      ],
      "name": "unfreezeAccount",
      "outputs": [],
      "stateMutability": "nonpayable",
      "type": "function"
    },
    {
      "inputs": [],
      "name": "unpauseContract",
      "outputs": [],
      "stateMutability": "nonpayable",
      "type": "function"
    },
    {
      "stateMutability": "payable",
      "type": "receive"
    }
  ],
  "bytecode": "0x60806040523480156200001157600080fd5b506040516200194338038062001943833981810160405281019062000037919062000336565b60016000819055506000600160006101000a81548160ff021916908315150217905550826001806101000a81548173ffffffffffffffffffffffffffffffffffffffff021916908373ffffffffffffffffffffffffffffffffffffffff160217905550816002819055506000600960006101000a81548160ff0219169083151502179055506000600b8190555080604051602001620000d79190620003fe565b60405160208183030381529060405280519060200120600a819055504260088190555050505062000417565b6000604051905090565b600080fd5b600080fd5b600073ffffffffffffffffffffffffffffffffffffffff82169050919050565b6000620001448262000117565b9050919050565b620001568162000137565b81146200016257600080fd5b50565b60008151905062000176816200014b565b92915050565b6000819050919050565b62000191816200017c565b81146200019d57600080fd5b50565b600081519050620001b18162000186565b92915050565b600080fd5b600080fd5b6000601f19601f8301169050919050565b7f4e487b7100000000000000000000000000000000000000000000000000000000600052604160045260246000fd5b6200020c82620001c1565b810181811067ffffffffffffffff821117156200022e576200022d620001d2565b5b80604052505050565b60006200024362000103565b905062000251828262000201565b919050565b600067ffffffffffffffff821115620002745762000273620001d2565b5b6200027f82620001c1565b9050602081019050919050565b60005b83811015620002ac5780820151818401526020810190506200028f565b60008484015250505050565b6000620002cf620002c98462000256565b62000237565b905082815260208101848484011115620002ee57620002ed620001bc565b5b620002fb8482856200028c565b509392505050565b600082601f8301126200031b576200031a620001b7565b5b81516200032d848260208601620002b8565b91505092915050565b6000806000606084860312156200035257620003516200010d565b5b6000620003628682870162000165565b93505060206200037586828701620001a0565b925050604084015167ffffffffffffffff81111562000399576200039862000112565b5b620003a78682870162000303565b9150509250925092565b600081519050919050565b600081905092915050565b6000620003d482620003b1565b620003e08185620003bc565b9350620003f28185602086016200028c565b80840191505092915050565b60006200040c8284620003c7565b915081905092915050565b61151c80620004276000396000f3fe6080604052600436106100a05760003560e01c80636e94d6a3116100645780636e94d6a31461019d5780636f64234e146101c657806373d80b96146101f65780637ed6c92614610233578063960bfe041461025c578063b33712c514610285576100bf565b806312065fe0146100d95780631b7035ea146101045780634085c8421461012f578063439766ce1461015b5780635c975abb14610172576100bf565b366100bf5734600760008282546100b79190610dfd565b925050819055005b34600760008282546100d19190610dfd565b925050819055005b3480156100e557600080fd5b506100ee61029c565b6040516100fb9190610e40565b60405180910390f35b34801561011057600080fd5b506101196102a6565b6040516101269190610e76565b60405180910390f35b34801561013b57600080fd5b506101446102bd565b604051610152929190610e91565b60405180910390f35b34801561016757600080fd5b50610170610399565b005b34801561017e57600080fd5b50610187610430565b6040516101949190610e76565b60405180910390f35b3480156101a957600080fd5b506101c460048036038101906101bf9190611014565b610447565b005b6101e060048036038101906101db91906110e7565b610588565b6040516101ed9190610e76565b60405180910390f35b34801561020257600080fd5b5061021d60048036038101906102189190611014565b61086b565b60405161022a9190610e76565b60405180910390f35b34801561023f57600080fd5b5061025a60048036038101906102559190611014565b610924565b005b34801561026857600080fd5b50610283600480360381019061027e9190611127565b6109d9565b005b34801561029157600080fd5b5061029a610a68565b005b6000600754905090565b6000600960009054906101000a900460ff16905090565b60008060018054906101000a900473ffffffffffffffffffffffffffffffffffffffff1673ffffffffffffffffffffffffffffffffffffffff163373ffffffffffffffffffffffffffffffffffffffff1614610345576040517f401f871700000000000000000000000000000000000000000000000000000000815260040160405180910390fd5b7fae7513a49469e592cb8b6a61ab965ee6b2099fa1ac677ae4a0b31ec4a1459744600b546040516103769190610e40565b60405180910390a1600960009054906101000a900460ff16600b54915091509091565b60018054906101000a900473ffffffffffffffffffffffffffffffffffffffff1673ffffffffffffffffffffffffffffffffffffffff163373ffffffffffffffffffffffffffffffffffffffff161461041e576040517f401f871700000000000000000000000000000000000000000000000000000000815260040160405180910390fd5b610426610aff565b61042e610b40565b565b6000600160009054906101000a900460ff16905090565b60018054906101000a900473ffffffffffffffffffffffffffffffffffffffff1673ffffffffffffffffffffffffffffffffffffffff163373ffffffffffffffffffffffffffffffffffffffff16146104cc576040517f401f871700000000000000000000000000000000000000000000000000000000815260040160405180910390fd5b6104d4610ba2565b600a54816040516020016104e891906111c5565b6040516020818303038152906040528051906020012014610535576040517fcd3fb50c00000000000000000000000000000000000000000000000000000000815260040160405180910390fd5b6000600960006101000a81548160ff0219169083151502179055507fb1d1b4f20063761c5b740c65649dacab881597c4aafdaa5c6419ff9ed913037360405161057d9061125f565b60405180910390a150565b600060018054906101000a900473ffffffffffffffffffffffffffffffffffffffff1673ffffffffffffffffffffffffffffffffffffffff163373ffffffffffffffffffffffffffffffffffffffff161461060f576040517f401f871700000000000000000000000000000000000000000000000000000000815260040160405180910390fd5b600960009054906101000a900460ff1615610656576040517f3cfd413b00000000000000000000000000000000000000000000000000000000815260040160405180910390fd5b61065e610be2565b610666610aff565b8160075410156106a2576040517f0f09a23c00000000000000000000000000000000000000000000000000000000815260040160405180910390fd5b6106aa610c28565b81600760008282546106bc919061127f565b92505081905550600360008154809291906106d6906112b3565b919050555081600460008282546106ed9190610dfd565b925050819055506002546004541061074d57610707610cfd565b7ff7767ff47accadd926d447dddc8bae27b9aa3189effb9098faa7d68398ffa5d860035460045460405161073c9291906112fb565b60405180910390a16000905061085d565b60008373ffffffffffffffffffffffffffffffffffffffff168360405161077390611355565b60006040518083038185875af1925050503d80600081146107b0576040519150601f19603f3d011682016040523d82523d6000602084013e6107b5565b606091505b50509050806107f0576040517f70a9014d00000000000000000000000000000000000000000000000000000000815260040160405180910390fd5b600960009054906101000a900460ff161561081f5782600b60008282546108179190610dfd565b925050819055505b7feaff4b37086828766ad3268786972c0cd24259d4c87a80f9d3963a3c3d999b0d84846040516108509291906113c9565b60405180910390a1809150505b610865610d4f565b92915050565b600060018054906101000a900473ffffffffffffffffffffffffffffffffffffffff1673ffffffffffffffffffffffffffffffffffffffff163373ffffffffffffffffffffffffffffffffffffffff16146108f2576040517f401f871700000000000000000000000000000000000000000000000000000000815260040160405180910390fd5b8160405160200161090391906111c5565b60405160208183030381529060405280519060200120600a54149050919050565b60018054906101000a900473ffffffffffffffffffffffffffffffffffffffff1673ffffffffffffffffffffffffffffffffffffffff163373ffffffffffffffffffffffffffffffffffffffff16146109a9576040517f401f871700000000000000000000000000000000000000000000000000000000815260040160405180910390fd5b806040516020016109ba91906111c5565b60405160208183030381529060405280519060200120600a8190555050565b60018054906101000a900473ffffffffffffffffffffffffffffffffffffffff1673ffffffffffffffffffffffffffffffffffffffff163373ffffffffffffffffffffffffffffffffffffffff1614610a5e576040517f401f871700000000000000000000000000000000000000000000000000000000815260040160405180910390fd5b8060028190555050565b60018054906101000a900473ffffffffffffffffffffffffffffffffffffffff1673ffffffffffffffffffffffffffffffffffffffff163373ffffffffffffffffffffffffffffffffffffffff1614610aed576040517f401f871700000000000000000000000000000000000000000000000000000000815260040160405180910390fd5b610af5610ba2565b610afd610d59565b565b610b07610430565b15610b3e576040517fd93c066500000000000000000000000000000000000000000000000000000000815260040160405180910390fd5b565b610b48610aff565b60018060006101000a81548160ff0219169083151502179055507f62e78cea01bee320cd4e420270b5ea74000d11b0c9f74754ebdbfc544b05a258610b8b610dbc565b604051610b989190611413565b60405180910390a1565b610baa610430565b610be0576040517f8dfc202b00000000000000000000000000000000000000000000000000000000815260040160405180910390fd5b565b600260005403610c1e576040517f3ee5aeb500000000000000000000000000000000000000000000000000000000815260040160405180910390fd5b6002600081905550565b60085442118015610c465750600960009054906101000a900460ff16155b15610c69576201518042610c5a9190610dfd565b60088190555060006005819055505b600654421115610c8f57600142610c809190610dfd565b60068190555060006005819055505b6006544211610cb15760056000815480929190610cab906112b3565b91905055505b600360055410610cfb57610cc3610cfd565b7f18d1c7775cebddc9fb19325c3acb932de822df72d8d6505c1325c532c2dc541f33604051610cf29190611413565b60405180910390a15b565b6001600960006101000a81548160ff0219169083151502179055507ff6690e0b1c00525d6e32bce2240b7834f0da65ee9c6ea813a095659f3a8020ba604051610d45906114c6565b60405180910390a1565b6001600081905550565b610d61610ba2565b6000600160006101000a81548160ff0219169083151502179055507f5db9ee0a495bf2e6ff9c91a7834c1ba4fdd244a5e8aa4e537bd38aeae4b073aa610da5610dbc565b604051610db29190611413565b60405180910390a1565b600033905090565b6000819050919050565b7f4e487b7100000000000000000000000000000000000000000000000000000000600052601160045260246000fd5b6000610e0882610dc4565b9150610e1383610dc4565b9250828201905080821115610e2b57610e2a610dce565b5b92915050565b610e3a81610dc4565b82525050565b6000602082019050610e556000830184610e31565b92915050565b60008115159050919050565b610e7081610e5b565b82525050565b6000602082019050610e8b6000830184610e67565b92915050565b6000604082019050610ea66000830185610e67565b610eb36020830184610e31565b9392505050565b6000604051905090565b600080fd5b600080fd5b600080fd5b600080fd5b6000601f19601f8301169050919050565b7f4e487b7100000000000000000000000000000000000000000000000000000000600052604160045260246000fd5b610f2182610ed8565b810181811067ffffffffffffffff82111715610f4057610f3f610ee9565b5b80604052505050565b6000610f53610eba565b9050610f5f8282610f18565b919050565b600067ffffffffffffffff821115610f7f57610f7e610ee9565b5b610f8882610ed8565b9050602081019050919050565b82818337600083830152505050565b6000610fb7610fb284610f64565b610f49565b905082815260208101848484011115610fd357610fd2610ed3565b5b610fde848285610f95565b509392505050565b600082601f830112610ffb57610ffa610ece565b5b813561100b848260208601610fa4565b91505092915050565b60006020828403121561102a57611029610ec4565b5b600082013567ffffffffffffffff81111561104857611047610ec9565b5b61105484828501610fe6565b91505092915050565b600073ffffffffffffffffffffffffffffffffffffffff82169050919050565b60006110888261105d565b9050919050565b6110988161107d565b81146110a357600080fd5b50565b6000813590506110b58161108f565b92915050565b6110c481610dc4565b81146110cf57600080fd5b50565b6000813590506110e1816110bb565b92915050565b600080604083850312156110fe576110fd610ec4565b5b600061110c858286016110a6565b925050602061111d858286016110d2565b9150509250929050565b60006020828403121561113d5761113c610ec4565b5b600061114b848285016110d2565b91505092915050565b600081519050919050565b600081905092915050565b60005b8381101561118857808201518184015260208101905061116d565b60008484015250505050565b600061119f82611154565b6111a9818561115f565b93506111b981856020860161116a565b80840191505092915050565b60006111d18284611194565b915081905092915050565b600082825260208201905092915050565b7f4163636f756e7420686173206265656e20756e66726f7a656e2073756363657360008201527f7366756c6c792e00000000000000000000000000000000000000000000000000602082015250565b60006112496027836111dc565b9150611254826111ed565b604082019050919050565b600060208201905081810360008301526112788161123c565b9050919050565b600061128a82610dc4565b915061129583610dc4565b92508282039050818111156112ad576112ac610dce565b5b92915050565b60006112be82610dc4565b91507fffffffffffffffffffffffffffffffffffffffffffffffffffffffffffffffff82036112f0576112ef610dce565b5b600182019050919050565b60006040820190506113106000830185610e31565b61131d6020830184610e31565b9392505050565b600081905092915050565b50565b600061133f600083611324565b915061134a8261132f565b600082019050919050565b600061136082611332565b9150819050919050565b6000819050919050565b600061138f61138a6113858461105d565b61136a565b61105d565b9050919050565b60006113a182611374565b9050919050565b60006113b382611396565b9050919050565b6113c3816113a8565b82525050565b60006040820190506113de60008301856113ba565b6113eb6020830184610e31565b9392505050565b60006113fd8261105d565b9050919050565b61140d816113f2565b82525050565b60006020820190506114286000830184611404565b92915050565b7f596f7572206163636f756e742069732066726f7a656e2064756520746f20737460008201527f72616e6765206265686176696f72206f72206120706f74656e7469616c20617460208201527f7461636b2e000000000000000000000000000000000000000000000000000000604082015250565b60006114b06045836111dc565b91506114bb8261142e565b606082019050919050565b600060208201905081810360008301526114df816114a3565b905091905056fea264697066735822122035ca34d41720a07e4ac5a19c0913cbedec6f498995df1861f492e8b99a77c15364736f6c63430008180033",
  "linkReferences": {},
  "deployedLinkReferences": {}
}