{
  "_format": "hh-sol-artifact-1",
  "contractName": "StakingPool",
  "sourceName": "contracts/StakingPool.sol",
  "abi": [
    {
      "inputs": [
        {
          "internalType": "address",
          "name": "_pool",
          "type": "address"
        },
        {
          "internalType": "address",
          "name": "_weth",
          "type": "address"
        }
      ],
      "stateMutability": "nonpayable",
      "type": "constructor"
    },
    {
      "inputs": [],
      "name": "EnforcedPause",
      "type": "error"
    },
    {
      "inputs": [],
      "name": "ExpectedPause",
      "type": "error"
    },
    {
      "inputs": [],
      "name": "ReentrancyGuardReentrantCall",
      "type": "error"
    },
    {
      "anonymous": false,
      "inputs": [
        {
          "indexed": false,
          "internalType": "address",
          "name": "admin",
          "type": "address"
        },
        {
          "indexed": false,
          "internalType": "uint256",
          "name": "amount",
          "type": "uint256"
        },
        {
          "indexed": false,
          "internalType": "uint256",
          "name": "timestamp",
          "type": "uint256"
        }
      ],
      "name": "EmergencyWithdrawal",
      "type": "event"
    },
    {
      "anonymous": false,
      "inputs": [
        {
          "indexed": false,
          "internalType": "address",
          "name": "account",
          "type": "address"
        }
      ],
      "name": "EthReceived",
      "type": "event"
    },
    {
      "anonymous": false,
      "inputs": [
        {
          "indexed": false,
          "internalType": "address",
          "name": "account",
          "type": "address"
        }
      ],
      "name": "Paused",
      "type": "event"
    },
    {
      "anonymous": false,
      "inputs": [
        {
          "indexed": false,
          "internalType": "uint256",
          "name": "newRate",
          "type": "uint256"
        },
        {
          "indexed": false,
          "internalType": "address",
          "name": "updatedBy",
          "type": "address"
        }
      ],
      "name": "RewardRateUpdated",
      "type": "event"
    },
    {
      "anonymous": false,
      "inputs": [
        {
          "indexed": true,
          "internalType": "address",
          "name": "user",
          "type": "address"
        },
        {
          "indexed": false,
          "internalType": "uint256",
          "name": "reward",
          "type": "uint256"
        },
        {
          "indexed": false,
          "internalType": "uint256",
          "name": "timestamp",
          "type": "uint256"
        }
      ],
      "name": "RewardsClaimed",
      "type": "event"
    },
    {
      "anonymous": false,
      "inputs": [
        {
          "indexed": true,
          "internalType": "address",
          "name": "user",
          "type": "address"
        },
        {
          "indexed": false,
          "internalType": "uint256",
          "name": "amount",
          "type": "uint256"
        },
        {
          "indexed": false,
          "internalType": "uint256",
          "name": "timestamp",
          "type": "uint256"
        }
      ],
      "name": "Staked",
      "type": "event"
    },
    {
      "anonymous": false,
      "inputs": [
        {
          "indexed": false,
          "internalType": "address",
          "name": "account",
          "type": "address"
        }
      ],
      "name": "Unpaused",
      "type": "event"
    },
    {
      "anonymous": false,
      "inputs": [
        {
          "indexed": true,
          "internalType": "address",
          "name": "user",
          "type": "address"
        },
        {
          "indexed": false,
          "internalType": "uint256",
          "name": "amount",
          "type": "uint256"
        },
        {
          "indexed": false,
          "internalType": "uint256",
          "name": "timestamp",
          "type": "uint256"
        }
      ],
      "name": "Withdrawn",
      "type": "event"
    },
    {
      "stateMutability": "payable",
      "type": "fallback"
    },
    {
      "inputs": [],
      "name": "claimRewards",
      "outputs": [],
      "stateMutability": "nonpayable",
      "type": "function"
    },
    {
      "inputs": [],
      "name": "getAmount",
      "outputs": [
        {
          "internalType": "uint256",
          "name": "",
          "type": "uint256"
        }
      ],
      "stateMutability": "nonpayable",
      "type": "function"
    },
    {
      "inputs": [],
      "name": "getRewards",
      "outputs": [
        {
          "internalType": "uint256",
          "name": "",
          "type": "uint256"
        }
      ],
      "stateMutability": "nonpayable",
      "type": "function"
    },
    {
      "inputs": [],
      "name": "lastRewardTime",
      "outputs": [
        {
          "internalType": "uint256",
          "name": "",
          "type": "uint256"
        }
      ],
      "stateMutability": "view",
      "type": "function"
    },
    {
      "inputs": [],
      "name": "pause",
      "outputs": [],
      "stateMutability": "nonpayable",
      "type": "function"
    },
    {
      "inputs": [],
      "name": "paused",
      "outputs": [
        {
          "internalType": "bool",
          "name": "",
          "type": "bool"
        }
      ],
      "stateMutability": "view",
      "type": "function"
    },
    {
      "inputs": [],
      "name": "rewardRate",
      "outputs": [
        {
          "internalType": "uint256",
          "name": "",
          "type": "uint256"
        }
      ],
      "stateMutability": "view",
      "type": "function"
    },
    {
      "inputs": [
        {
          "internalType": "uint256",
          "name": "_rate",
          "type": "uint256"
        }
      ],
      "name": "setRewardRate",
      "outputs": [],
      "stateMutability": "nonpayable",
      "type": "function"
    },
    {
      "inputs": [],
      "name": "totalStaked",
      "outputs": [
        {
          "internalType": "uint256",
          "name": "",
          "type": "uint256"
        }
      ],
      "stateMutability": "view",
      "type": "function"
    },
    {
      "inputs": [],
      "name": "unpause",
      "outputs": [],
      "stateMutability": "nonpayable",
      "type": "function"
    },
    {
      "inputs": [
        {
          "internalType": "address",
          "name": "",
          "type": "address"
        }
      ],
      "name": "userStakes",
      "outputs": [
        {
          "internalType": "uint256",
          "name": "amount",
          "type": "uint256"
        },
        {
          "internalType": "uint256",
          "name": "rewardDebt",
          "type": "uint256"
        },
        {
          "internalType": "uint256",
          "name": "lastStakeTime",
          "type": "uint256"
        }
      ],
      "stateMutability": "view",
      "type": "function"
    },
    {
      "inputs": [
        {
          "internalType": "uint256",
          "name": "amount",
          "type": "uint256"
        }
      ],
      "name": "withdraw",
      "outputs": [],
      "stateMutability": "nonpayable",
      "type": "function"
    },
    {
      "stateMutability": "payable",
      "type": "receive"
    }
  ],
  "bytecode": "0x6080604052617bd46005553480156200001757600080fd5b5060405162001af238038062001af283398181016040528101906200003d919062000193565b60008060006101000a81548160ff0219169083151502179055506001808190555081600260006101000a81548173ffffffffffffffffffffffffffffffffffffffff021916908373ffffffffffffffffffffffffffffffffffffffff16021790555080600360006101000a81548173ffffffffffffffffffffffffffffffffffffffff021916908373ffffffffffffffffffffffffffffffffffffffff16021790555033600760006101000a81548173ffffffffffffffffffffffffffffffffffffffff021916908373ffffffffffffffffffffffffffffffffffffffff1602179055505050620001da565b600080fd5b600073ffffffffffffffffffffffffffffffffffffffff82169050919050565b60006200015b826200012e565b9050919050565b6200016d816200014e565b81146200017957600080fd5b50565b6000815190506200018d8162000162565b92915050565b60008060408385031215620001ad57620001ac62000129565b5b6000620001bd858286016200017c565b9250506020620001d0858286016200017c565b9150509250929050565b61190880620001ea6000396000f3fe6080604052600436106100ab5760003560e01c8063817b1cd211610064578063817b1cd21461019c5780638456cb59146101c75780638da7ad23146101de5780639231cf741461021d5780639e447fc614610248578063d321fe2914610271576100ba565b80630572b0cc146100c45780632e1a7d4d146100ef578063372500ab146101185780633f4ba83a1461012f5780635c975abb146101465780637b0a47ee14610171576100ba565b366100ba576100b861029c565b005b6100c261029c565b005b3480156100d057600080fd5b506100d9610611565b6040516100e69190611116565b60405180910390f35b3480156100fb57600080fd5b5061011660048036038101906101119190611162565b610664565b005b34801561012457600080fd5b5061012d610914565b005b34801561013b57600080fd5b50610144610b4a565b005b34801561015257600080fd5b5061015b610c1b565b60405161016891906111aa565b60405180910390f35b34801561017d57600080fd5b50610186610c31565b6040516101939190611116565b60405180910390f35b3480156101a857600080fd5b506101b1610c37565b6040516101be9190611116565b60405180910390f35b3480156101d357600080fd5b506101dc610c3d565b005b3480156101ea57600080fd5b5061020560048036038101906102009190611223565b610d0e565b60405161021493929190611250565b60405180910390f35b34801561022957600080fd5b50610232610d38565b60405161023f9190611116565b60405180910390f35b34801561025457600080fd5b5061026f600480360381019061026a9190611162565b610d3e565b005b34801561027d57600080fd5b50610286610e11565b6040516102939190611116565b60405180910390f35b6102a4610e64565b6102ac610ea5565b600034116102ef576040517f08c379a00000000000000000000000000000000000000000000000000000000081526004016102e69061130a565b60405180910390fd5b6102f833610eeb565b600360009054906101000a900473ffffffffffffffffffffffffffffffffffffffff1673ffffffffffffffffffffffffffffffffffffffff1663d0e30db0346040518263ffffffff1660e01b81526004016000604051808303818588803b15801561036257600080fd5b505af1158015610376573d6000803e3d6000fd5b5050505050600360009054906101000a900473ffffffffffffffffffffffffffffffffffffffff1673ffffffffffffffffffffffffffffffffffffffff1663095ea7b3600260009054906101000a900473ffffffffffffffffffffffffffffffffffffffff1669021e19e0c9bab24000006040518363ffffffff1660e01b815260040161040492919061137e565b6020604051808303816000875af1158015610423573d6000803e3d6000fd5b505050506040513d601f19601f8201168201806040525081019061044791906113d3565b50600260009054906101000a900473ffffffffffffffffffffffffffffffffffffffff1673ffffffffffffffffffffffffffffffffffffffff1663e8eda9df600360009054906101000a900473ffffffffffffffffffffffffffffffffffffffff16343060006040518563ffffffff1660e01b81526004016104cc9493929190611449565b600060405180830381600087803b1580156104e657600080fd5b505af11580156104fa573d6000803e3d6000fd5b5050505034600960003373ffffffffffffffffffffffffffffffffffffffff1673ffffffffffffffffffffffffffffffffffffffff168152602001908152602001600020600001600082825461055091906114bd565b92505081905550346004600082825461056991906114bd565b9250508190555042600960003373ffffffffffffffffffffffffffffffffffffffff1673ffffffffffffffffffffffffffffffffffffffff168152602001908152602001600020600201819055503373ffffffffffffffffffffffffffffffffffffffff167f1449c6dd7851abc30abf37f57715f492010519147cc2652fbc38202c18a6ee9034426040516105ff9291906114f1565b60405180910390a261060f610fe8565b565b600061061c33610eeb565b600960003373ffffffffffffffffffffffffffffffffffffffff1673ffffffffffffffffffffffffffffffffffffffff16815260200190815260200160002060010154905090565b600081116106a7576040517f08c379a000000000000000000000000000000000000000000000000000000000815260040161069e9061158c565b60405180910390fd5b6000600960003373ffffffffffffffffffffffffffffffffffffffff1673ffffffffffffffffffffffffffffffffffffffff16815260200190815260200160002090508181600001541015610731576040517f08c379a00000000000000000000000000000000000000000000000000000000081526004016107289061161e565b60405180910390fd5b61073a33610eeb565b8181600001600082825461074e919061163e565b925050819055508160046000828254610767919061163e565b92505081905550600260009054906101000a900473ffffffffffffffffffffffffffffffffffffffff1673ffffffffffffffffffffffffffffffffffffffff166369328dec600360009054906101000a900473ffffffffffffffffffffffffffffffffffffffff1684306040518463ffffffff1660e01b81526004016107ef93929190611672565b6020604051808303816000875af115801561080e573d6000803e3d6000fd5b505050506040513d601f19601f8201168201806040525081019061083291906116be565b50600360009054906101000a900473ffffffffffffffffffffffffffffffffffffffff1673ffffffffffffffffffffffffffffffffffffffff16632e1a7d4d836040518263ffffffff1660e01b815260040161088e9190611116565b600060405180830381600087803b1580156108a857600080fd5b505af11580156108bc573d6000803e3d6000fd5b505050503373ffffffffffffffffffffffffffffffffffffffff167f92ccf450a286a957af52509bc1c9939d1a6a481783e142e41e2499f0bb66ebc683426040516109089291906114f1565b60405180910390a25050565b61091c610ea5565b61092533610eeb565b6000600960003373ffffffffffffffffffffffffffffffffffffffff1673ffffffffffffffffffffffffffffffffffffffff168152602001908152602001600020600101549050600081116109af576040517f08c379a00000000000000000000000000000000000000000000000000000000081526004016109a690611737565b60405180910390fd5b600360009054906101000a900473ffffffffffffffffffffffffffffffffffffffff1673ffffffffffffffffffffffffffffffffffffffff166340c10f19600260009054906101000a900473ffffffffffffffffffffffffffffffffffffffff16836040518363ffffffff1660e01b8152600401610a2e929190611757565b600060405180830381600087803b158015610a4857600080fd5b505af1158015610a5c573d6000803e3d6000fd5b505050506000600960003373ffffffffffffffffffffffffffffffffffffffff1673ffffffffffffffffffffffffffffffffffffffff168152602001908152602001600020600101819055503373ffffffffffffffffffffffffffffffffffffffff166108fc829081150290604051600060405180830381858888f19350505050158015610aee573d6000803e3d6000fd5b503373ffffffffffffffffffffffffffffffffffffffff167fdacbdde355ba930696a362ea6738feb9f8bd52dfb3d81947558fd3217e23e3258242604051610b379291906114f1565b60405180910390a250610b48610fe8565b565b600760009054906101000a900473ffffffffffffffffffffffffffffffffffffffff1673ffffffffffffffffffffffffffffffffffffffff163373ffffffffffffffffffffffffffffffffffffffff1614610bda576040517f08c379a0000000000000000000000000000000000000000000000000000000008152600401610bd1906117cc565b60405180910390fd5b610be2610ff1565b7f5db9ee0a495bf2e6ff9c91a7834c1ba4fdd244a5e8aa4e537bd38aeae4b073aa33604051610c1191906117ec565b60405180910390a1565b60008060009054906101000a900460ff16905090565b60055481565b60045481565b600760009054906101000a900473ffffffffffffffffffffffffffffffffffffffff1673ffffffffffffffffffffffffffffffffffffffff163373ffffffffffffffffffffffffffffffffffffffff1614610ccd576040517f08c379a0000000000000000000000000000000000000000000000000000000008152600401610cc4906117cc565b60405180910390fd5b610cd5611053565b7f62e78cea01bee320cd4e420270b5ea74000d11b0c9f74754ebdbfc544b05a25833604051610d0491906117ec565b60405180910390a1565b60096020528060005260406000206000915090508060000154908060010154908060020154905083565b60065481565b600760009054906101000a900473ffffffffffffffffffffffffffffffffffffffff1673ffffffffffffffffffffffffffffffffffffffff163373ffffffffffffffffffffffffffffffffffffffff1614610dce576040517f08c379a0000000000000000000000000000000000000000000000000000000008152600401610dc5906117cc565b60405180910390fd5b806005819055507fef41ee5751b56586e052b6b86bdfd7a85375d72e81e13b2136afd694fb8f8a548133604051610e06929190611807565b60405180910390a150565b6000610e1c33610eeb565b600960003373ffffffffffffffffffffffffffffffffffffffff1673ffffffffffffffffffffffffffffffffffffffff16815260200190815260200160002060000154905090565b610e6c610c1b565b15610ea3576040517fd93c066500000000000000000000000000000000000000000000000000000000815260040160405180910390fd5b565b600260015403610ee1576040517f3ee5aeb500000000000000000000000000000000000000000000000000000000815260040160405180910390fd5b6002600181905550565b600060065442610efb919061163e565b905060006064905060006301e133809050600061271082610f1c9190611830565b8484600960008973ffffffffffffffffffffffffffffffffffffffff1673ffffffffffffffffffffffffffffffffffffffff16815260200190815260200160002060000154610f6b9190611830565b610f759190611830565b610f7f91906118a1565b905080600960008773ffffffffffffffffffffffffffffffffffffffff1673ffffffffffffffffffffffffffffffffffffffff1681526020019081526020016000206001016000828254610fd391906114bd565b92505081905550426006819055505050505050565b60018081905550565b610ff96110b5565b60008060006101000a81548160ff0219169083151502179055507f5db9ee0a495bf2e6ff9c91a7834c1ba4fdd244a5e8aa4e537bd38aeae4b073aa61103c6110f5565b60405161104991906117ec565b60405180910390a1565b61105b610e64565b60016000806101000a81548160ff0219169083151502179055507f62e78cea01bee320cd4e420270b5ea74000d11b0c9f74754ebdbfc544b05a25861109e6110f5565b6040516110ab91906117ec565b60405180910390a1565b6110bd610c1b565b6110f3576040517f8dfc202b00000000000000000000000000000000000000000000000000000000815260040160405180910390fd5b565b600033905090565b6000819050919050565b611110816110fd565b82525050565b600060208201905061112b6000830184611107565b92915050565b600080fd5b61113f816110fd565b811461114a57600080fd5b50565b60008135905061115c81611136565b92915050565b60006020828403121561117857611177611131565b5b60006111868482850161114d565b91505092915050565b60008115159050919050565b6111a48161118f565b82525050565b60006020820190506111bf600083018461119b565b92915050565b600073ffffffffffffffffffffffffffffffffffffffff82169050919050565b60006111f0826111c5565b9050919050565b611200816111e5565b811461120b57600080fd5b50565b60008135905061121d816111f7565b92915050565b60006020828403121561123957611238611131565b5b60006112478482850161120e565b91505092915050565b60006060820190506112656000830186611107565b6112726020830185611107565b61127f6040830184611107565b949350505050565b600082825260208201905092915050565b7f5374616b696e67506f6f6c3a204d7573742073656e642045544820746f20737460008201527f616b650000000000000000000000000000000000000000000000000000000000602082015250565b60006112f4602383611287565b91506112ff82611298565b604082019050919050565b60006020820190508181036000830152611323816112e7565b9050919050565b611333816111e5565b82525050565b6000819050919050565b6000819050919050565b600061136861136361135e84611339565b611343565b6110fd565b9050919050565b6113788161134d565b82525050565b6000604082019050611393600083018561132a565b6113a0602083018461136f565b9392505050565b6113b08161118f565b81146113bb57600080fd5b50565b6000815190506113cd816113a7565b92915050565b6000602082840312156113e9576113e8611131565b5b60006113f7848285016113be565b91505092915050565b6000819050919050565b600061ffff82169050919050565b600061143361142e61142984611400565b611343565b61140a565b9050919050565b61144381611418565b82525050565b600060808201905061145e600083018761132a565b61146b6020830186611107565b611478604083018561132a565b611485606083018461143a565b95945050505050565b7f4e487b7100000000000000000000000000000000000000000000000000000000600052601160045260246000fd5b60006114c8826110fd565b91506114d3836110fd565b92508282019050808211156114eb576114ea61148e565b5b92915050565b60006040820190506115066000830185611107565b6115136020830184611107565b9392505050565b7f5374616b696e67506f6f6c3a2043616e6e6f74207769746864726177207a657260008201527f6f20616d6f756e74000000000000000000000000000000000000000000000000602082015250565b6000611576602883611287565b91506115818261151a565b604082019050919050565b600060208201905081810360008301526115a581611569565b9050919050565b7f5374616b696e67506f6f6c3a20496e73756666696369656e742062616c616e6360008201527f6500000000000000000000000000000000000000000000000000000000000000602082015250565b6000611608602183611287565b9150611613826115ac565b604082019050919050565b60006020820190508181036000830152611637816115fb565b9050919050565b6000611649826110fd565b9150611654836110fd565b925082820390508181111561166c5761166b61148e565b5b92915050565b6000606082019050611687600083018661132a565b6116946020830185611107565b6116a1604083018461132a565b949350505050565b6000815190506116b881611136565b92915050565b6000602082840312156116d4576116d3611131565b5b60006116e2848285016116a9565b91505092915050565b7f5374616b696e67506f6f6c3a204e6f207265776172647320746f20636c61696d600082015250565b6000611721602083611287565b915061172c826116eb565b602082019050919050565b6000602082019050818103600083015261175081611714565b9050919050565b600060408201905061176c600083018561132a565b6117796020830184611107565b9392505050565b7f4f6e6c79206f776e6572206973207065726d6974746564000000000000000000600082015250565b60006117b6601783611287565b91506117c182611780565b602082019050919050565b600060208201905081810360008301526117e5816117a9565b9050919050565b6000602082019050611801600083018461132a565b92915050565b600060408201905061181c6000830185611107565b611829602083018461132a565b9392505050565b600061183b826110fd565b9150611846836110fd565b9250828202611854816110fd565b9150828204841483151761186b5761186a61148e565b5b5092915050565b7f4e487b7100000000000000000000000000000000000000000000000000000000600052601260045260246000fd5b60006118ac826110fd565b91506118b7836110fd565b9250826118c7576118c6611872565b5b82820490509291505056fea2646970667358221220b5dfbc19db0ef1f8f5dd1e49e0f1e537972af901a36cd1de2eaa349fd716888264736f6c63430008180033",
  "linkReferences": {},
  "deployedLinkReferences": {}
}