{
  "_format": "hh-sol-artifact-1",
  "contractName": "StakingPool",
  "sourceName": "contracts/StakingPool.sol",
  "abi": [
    {
      "inputs": [
        {
          "internalType": "address",
          "name": "_pool",
          "type": "address"
        },
        {
          "internalType": "address",
          "name": "_weth",
          "type": "address"
        }
      ],
      "stateMutability": "nonpayable",
      "type": "constructor"
    },
    {
      "inputs": [],
      "name": "EnforcedPause",
      "type": "error"
    },
    {
      "inputs": [],
      "name": "ExpectedPause",
      "type": "error"
    },
    {
      "inputs": [],
      "name": "ReentrancyGuardReentrantCall",
      "type": "error"
    },
    {
      "anonymous": false,
      "inputs": [
        {
          "indexed": false,
          "internalType": "address",
          "name": "admin",
          "type": "address"
        },
        {
          "indexed": false,
          "internalType": "uint256",
          "name": "amount",
          "type": "uint256"
        },
        {
          "indexed": false,
          "internalType": "uint256",
          "name": "timestamp",
          "type": "uint256"
        }
      ],
      "name": "EmergencyWithdrawal",
      "type": "event"
    },
    {
      "anonymous": false,
      "inputs": [
        {
          "indexed": false,
          "internalType": "address",
          "name": "account",
          "type": "address"
        }
      ],
      "name": "EthReceived",
      "type": "event"
    },
    {
      "anonymous": false,
      "inputs": [
        {
          "indexed": false,
          "internalType": "address",
          "name": "account",
          "type": "address"
        }
      ],
      "name": "Paused",
      "type": "event"
    },
    {
      "anonymous": false,
      "inputs": [
        {
          "indexed": false,
          "internalType": "uint256",
          "name": "newRate",
          "type": "uint256"
        },
        {
          "indexed": false,
          "internalType": "address",
          "name": "updatedBy",
          "type": "address"
        }
      ],
      "name": "RewardRateUpdated",
      "type": "event"
    },
    {
      "anonymous": false,
      "inputs": [
        {
          "indexed": true,
          "internalType": "address",
          "name": "user",
          "type": "address"
        },
        {
          "indexed": false,
          "internalType": "uint256",
          "name": "reward",
          "type": "uint256"
        },
        {
          "indexed": false,
          "internalType": "uint256",
          "name": "timestamp",
          "type": "uint256"
        }
      ],
      "name": "RewardsClaimed",
      "type": "event"
    },
    {
      "anonymous": false,
      "inputs": [
        {
          "indexed": true,
          "internalType": "address",
          "name": "user",
          "type": "address"
        },
        {
          "indexed": false,
          "internalType": "uint256",
          "name": "amount",
          "type": "uint256"
        },
        {
          "indexed": false,
          "internalType": "uint256",
          "name": "timestamp",
          "type": "uint256"
        }
      ],
      "name": "Staked",
      "type": "event"
    },
    {
      "anonymous": false,
      "inputs": [
        {
          "indexed": false,
          "internalType": "address",
          "name": "account",
          "type": "address"
        }
      ],
      "name": "Unpaused",
      "type": "event"
    },
    {
      "anonymous": false,
      "inputs": [
        {
          "indexed": true,
          "internalType": "address",
          "name": "user",
          "type": "address"
        },
        {
          "indexed": false,
          "internalType": "uint256",
          "name": "amount",
          "type": "uint256"
        },
        {
          "indexed": false,
          "internalType": "uint256",
          "name": "timestamp",
          "type": "uint256"
        }
      ],
      "name": "Withdrawn",
      "type": "event"
    },
    {
      "stateMutability": "payable",
      "type": "fallback"
    },
    {
      "inputs": [],
      "name": "claimRewards",
      "outputs": [],
      "stateMutability": "nonpayable",
      "type": "function"
    },
    {
      "inputs": [],
      "name": "emergencyWithdraw",
      "outputs": [],
      "stateMutability": "nonpayable",
      "type": "function"
    },
    {
      "inputs": [],
      "name": "getAmount",
      "outputs": [
        {
          "internalType": "uint256",
          "name": "",
          "type": "uint256"
        }
      ],
      "stateMutability": "nonpayable",
      "type": "function"
    },
    {
      "inputs": [],
      "name": "getRewards",
      "outputs": [
        {
          "internalType": "uint256",
          "name": "",
          "type": "uint256"
        }
      ],
      "stateMutability": "nonpayable",
      "type": "function"
    },
    {
      "inputs": [],
      "name": "lastRewardTime",
      "outputs": [
        {
          "internalType": "uint256",
          "name": "",
          "type": "uint256"
        }
      ],
      "stateMutability": "view",
      "type": "function"
    },
    {
      "inputs": [],
      "name": "pause",
      "outputs": [],
      "stateMutability": "nonpayable",
      "type": "function"
    },
    {
      "inputs": [],
      "name": "paused",
      "outputs": [
        {
          "internalType": "bool",
          "name": "",
          "type": "bool"
        }
      ],
      "stateMutability": "view",
      "type": "function"
    },
    {
      "inputs": [],
      "name": "rewardRate",
      "outputs": [
        {
          "internalType": "uint256",
          "name": "",
          "type": "uint256"
        }
      ],
      "stateMutability": "view",
      "type": "function"
    },
    {
      "inputs": [
        {
          "internalType": "uint256",
          "name": "_rate",
          "type": "uint256"
        }
      ],
      "name": "setRewardRate",
      "outputs": [],
      "stateMutability": "nonpayable",
      "type": "function"
    },
    {
      "inputs": [],
      "name": "totalStaked",
      "outputs": [
        {
          "internalType": "uint256",
          "name": "",
          "type": "uint256"
        }
      ],
      "stateMutability": "view",
      "type": "function"
    },
    {
      "inputs": [],
      "name": "unpause",
      "outputs": [],
      "stateMutability": "nonpayable",
      "type": "function"
    },
    {
      "inputs": [
        {
          "internalType": "address",
          "name": "",
          "type": "address"
        }
      ],
      "name": "userStakes",
      "outputs": [
        {
          "internalType": "uint256",
          "name": "amount",
          "type": "uint256"
        },
        {
          "internalType": "uint256",
          "name": "rewardDebt",
          "type": "uint256"
        },
        {
          "internalType": "uint256",
          "name": "lastStakeTime",
          "type": "uint256"
        }
      ],
      "stateMutability": "view",
      "type": "function"
    },
    {
      "inputs": [
        {
          "internalType": "uint256",
          "name": "amount",
          "type": "uint256"
        }
      ],
      "name": "withdraw",
      "outputs": [],
      "stateMutability": "nonpayable",
      "type": "function"
    },
    {
      "stateMutability": "payable",
      "type": "receive"
    }
  ],
  "bytecode": "0x6080604052617bd46005553480156200001757600080fd5b5060405162001d1338038062001d1383398181016040528101906200003d919062000193565b60008060006101000a81548160ff0219169083151502179055506001808190555081600260006101000a81548173ffffffffffffffffffffffffffffffffffffffff021916908373ffffffffffffffffffffffffffffffffffffffff16021790555080600360006101000a81548173ffffffffffffffffffffffffffffffffffffffff021916908373ffffffffffffffffffffffffffffffffffffffff16021790555033600760006101000a81548173ffffffffffffffffffffffffffffffffffffffff021916908373ffffffffffffffffffffffffffffffffffffffff1602179055505050620001da565b600080fd5b600073ffffffffffffffffffffffffffffffffffffffff82169050919050565b60006200015b826200012e565b9050919050565b6200016d816200014e565b81146200017957600080fd5b50565b6000815190506200018d8162000162565b92915050565b60008060408385031215620001ad57620001ac62000129565b5b6000620001bd858286016200017c565b9250506020620001d0858286016200017c565b9150509250929050565b611b2980620001ea6000396000f3fe6080604052600436106100c65760003560e01c8063817b1cd21161007f5780639231cf74116100595780639231cf74146102385780639e447fc614610263578063d321fe291461028c578063db2e21bc146102b7576100d5565b8063817b1cd2146101b75780638456cb59146101e25780638da7ad23146101f9576100d5565b80630572b0cc146100df5780632e1a7d4d1461010a578063372500ab146101335780633f4ba83a1461014a5780635c975abb146101615780637b0a47ee1461018c576100d5565b366100d5576100d36102ce565b005b6100dd6102ce565b005b3480156100eb57600080fd5b506100f4610639565b60405161010191906113c4565b60405180910390f35b34801561011657600080fd5b50610131600480360381019061012c9190611410565b61068c565b005b34801561013f57600080fd5b50610148610993565b005b34801561015657600080fd5b5061015f610b18565b005b34801561016d57600080fd5b50610176610be9565b6040516101839190611458565b60405180910390f35b34801561019857600080fd5b506101a1610bff565b6040516101ae91906113c4565b60405180910390f35b3480156101c357600080fd5b506101cc610c05565b6040516101d991906113c4565b60405180910390f35b3480156101ee57600080fd5b506101f7610c0b565b005b34801561020557600080fd5b50610220600480360381019061021b91906114d1565b610cdc565b60405161022f939291906114fe565b60405180910390f35b34801561024457600080fd5b5061024d610d06565b60405161025a91906113c4565b60405180910390f35b34801561026f57600080fd5b5061028a60048036038101906102859190611410565b610d0c565b005b34801561029857600080fd5b506102a1610ddf565b6040516102ae91906113c4565b60405180910390f35b3480156102c357600080fd5b506102cc610e32565b005b6102d661113f565b6102de611180565b60003411610321576040517f08c379a0000000000000000000000000000000000000000000000000000000008152600401610318906115b8565b60405180910390fd5b61032a336111c6565b600360009054906101000a900473ffffffffffffffffffffffffffffffffffffffff1673ffffffffffffffffffffffffffffffffffffffff1663d0e30db0346040518263ffffffff1660e01b81526004016000604051808303818588803b15801561039457600080fd5b505af11580156103a8573d6000803e3d6000fd5b5050505050600360009054906101000a900473ffffffffffffffffffffffffffffffffffffffff1673ffffffffffffffffffffffffffffffffffffffff1663095ea7b3600260009054906101000a900473ffffffffffffffffffffffffffffffffffffffff16346040518363ffffffff1660e01b815260040161042c9291906115e7565b6020604051808303816000875af115801561044b573d6000803e3d6000fd5b505050506040513d601f19601f8201168201806040525081019061046f919061163c565b50600260009054906101000a900473ffffffffffffffffffffffffffffffffffffffff1673ffffffffffffffffffffffffffffffffffffffff1663e8eda9df600360009054906101000a900473ffffffffffffffffffffffffffffffffffffffff16343060006040518563ffffffff1660e01b81526004016104f494939291906116bc565b600060405180830381600087803b15801561050e57600080fd5b505af1158015610522573d6000803e3d6000fd5b5050505034600960003373ffffffffffffffffffffffffffffffffffffffff1673ffffffffffffffffffffffffffffffffffffffff16815260200190815260200160002060000160008282546105789190611730565b9250508190555034600460008282546105919190611730565b9250508190555042600960003373ffffffffffffffffffffffffffffffffffffffff1673ffffffffffffffffffffffffffffffffffffffff168152602001908152602001600020600201819055503373ffffffffffffffffffffffffffffffffffffffff167f1449c6dd7851abc30abf37f57715f492010519147cc2652fbc38202c18a6ee903442604051610627929190611764565b60405180910390a2610637611296565b565b6000610644336111c6565b600960003373ffffffffffffffffffffffffffffffffffffffff1673ffffffffffffffffffffffffffffffffffffffff16815260200190815260200160002060010154905090565b610694611180565b600081116106d7576040517f08c379a00000000000000000000000000000000000000000000000000000000081526004016106ce906117ff565b60405180910390fd5b6000600960003373ffffffffffffffffffffffffffffffffffffffff1673ffffffffffffffffffffffffffffffffffffffff16815260200190815260200160002090508181600001541015610761576040517f08c379a000000000000000000000000000000000000000000000000000000000815260040161075890611891565b60405180910390fd5b61076a336111c6565b8181600001600082825461077e91906118b1565b92505081905550816004600082825461079791906118b1565b92505081905550600260009054906101000a900473ffffffffffffffffffffffffffffffffffffffff1673ffffffffffffffffffffffffffffffffffffffff166369328dec600360009054906101000a900473ffffffffffffffffffffffffffffffffffffffff1684306040518463ffffffff1660e01b815260040161081f939291906118e5565b6020604051808303816000875af115801561083e573d6000803e3d6000fd5b505050506040513d601f19601f820116820180604052508101906108629190611931565b50600360009054906101000a900473ffffffffffffffffffffffffffffffffffffffff1673ffffffffffffffffffffffffffffffffffffffff16632e1a7d4d836040518263ffffffff1660e01b81526004016108be91906113c4565b600060405180830381600087803b1580156108d857600080fd5b505af11580156108ec573d6000803e3d6000fd5b505050503373ffffffffffffffffffffffffffffffffffffffff166108fc839081150290604051600060405180830381858888f19350505050158015610936573d6000803e3d6000fd5b503373ffffffffffffffffffffffffffffffffffffffff167f92ccf450a286a957af52509bc1c9939d1a6a481783e142e41e2499f0bb66ebc6834260405161097f929190611764565b60405180910390a250610990611296565b50565b61099b611180565b6109a4336111c6565b6000600960003373ffffffffffffffffffffffffffffffffffffffff1673ffffffffffffffffffffffffffffffffffffffff16815260200190815260200160002060010154905060008111610a2e576040517f08c379a0000000000000000000000000000000000000000000000000000000008152600401610a25906119aa565b60405180910390fd5b6000600960003373ffffffffffffffffffffffffffffffffffffffff1673ffffffffffffffffffffffffffffffffffffffff168152602001908152602001600020600101819055503373ffffffffffffffffffffffffffffffffffffffff166108fc829081150290604051600060405180830381858888f19350505050158015610abc573d6000803e3d6000fd5b503373ffffffffffffffffffffffffffffffffffffffff167fdacbdde355ba930696a362ea6738feb9f8bd52dfb3d81947558fd3217e23e3258242604051610b05929190611764565b60405180910390a250610b16611296565b565b600760009054906101000a900473ffffffffffffffffffffffffffffffffffffffff1673ffffffffffffffffffffffffffffffffffffffff163373ffffffffffffffffffffffffffffffffffffffff1614610ba8576040517f08c379a0000000000000000000000000000000000000000000000000000000008152600401610b9f90611a16565b60405180910390fd5b610bb061129f565b7f5db9ee0a495bf2e6ff9c91a7834c1ba4fdd244a5e8aa4e537bd38aeae4b073aa33604051610bdf9190611a36565b60405180910390a1565b60008060009054906101000a900460ff16905090565b60055481565b60045481565b600760009054906101000a900473ffffffffffffffffffffffffffffffffffffffff1673ffffffffffffffffffffffffffffffffffffffff163373ffffffffffffffffffffffffffffffffffffffff1614610c9b576040517f08c379a0000000000000000000000000000000000000000000000000000000008152600401610c9290611a16565b60405180910390fd5b610ca3611301565b7f62e78cea01bee320cd4e420270b5ea74000d11b0c9f74754ebdbfc544b05a25833604051610cd29190611a36565b60405180910390a1565b60096020528060005260406000206000915090508060000154908060010154908060020154905083565b60065481565b600760009054906101000a900473ffffffffffffffffffffffffffffffffffffffff1673ffffffffffffffffffffffffffffffffffffffff163373ffffffffffffffffffffffffffffffffffffffff1614610d9c576040517f08c379a0000000000000000000000000000000000000000000000000000000008152600401610d9390611a16565b60405180910390fd5b806005819055507fef41ee5751b56586e052b6b86bdfd7a85375d72e81e13b2136afd694fb8f8a548133604051610dd4929190611a51565b60405180910390a150565b6000610dea336111c6565b600960003373ffffffffffffffffffffffffffffffffffffffff1673ffffffffffffffffffffffffffffffffffffffff16815260200190815260200160002060000154905090565b600760009054906101000a900473ffffffffffffffffffffffffffffffffffffffff1673ffffffffffffffffffffffffffffffffffffffff163373ffffffffffffffffffffffffffffffffffffffff1614610ec2576040517f08c379a0000000000000000000000000000000000000000000000000000000008152600401610eb990611a16565b60405180910390fd5b6000600360009054906101000a900473ffffffffffffffffffffffffffffffffffffffff1673ffffffffffffffffffffffffffffffffffffffff166370a08231306040518263ffffffff1660e01b8152600401610f1f9190611a36565b602060405180830381865afa158015610f3c573d6000803e3d6000fd5b505050506040513d601f19601f82011682018060405250810190610f609190611931565b9050600260009054906101000a900473ffffffffffffffffffffffffffffffffffffffff1673ffffffffffffffffffffffffffffffffffffffff166369328dec600360009054906101000a900473ffffffffffffffffffffffffffffffffffffffff1683306040518463ffffffff1660e01b8152600401610fe3939291906118e5565b6020604051808303816000875af1158015611002573d6000803e3d6000fd5b505050506040513d601f19601f820116820180604052508101906110269190611931565b50600360009054906101000a900473ffffffffffffffffffffffffffffffffffffffff1673ffffffffffffffffffffffffffffffffffffffff16632e1a7d4d826040518263ffffffff1660e01b815260040161108291906113c4565b600060405180830381600087803b15801561109c57600080fd5b505af11580156110b0573d6000803e3d6000fd5b5050505060004790503373ffffffffffffffffffffffffffffffffffffffff166108fc829081150290604051600060405180830381858888f193505050501580156110ff573d6000803e3d6000fd5b507f56da9a5ae0bcf6e7c3fdd78a10550e7d0458de1c39bfb7f6e96a3e92dd344a6833824260405161113393929190611a7a565b60405180910390a15050565b611147610be9565b1561117e576040517fd93c066500000000000000000000000000000000000000000000000000000000815260040160405180910390fd5b565b6002600154036111bc576040517f3ee5aeb500000000000000000000000000000000000000000000000000000000815260040160405180910390fd5b6002600181905550565b6000600960008373ffffffffffffffffffffffffffffffffffffffff1673ffffffffffffffffffffffffffffffffffffffff168152602001908152602001600020600001546005546006544261121c91906118b1565b6112269190611ab1565b6112309190611ab1565b905080600960008473ffffffffffffffffffffffffffffffffffffffff1673ffffffffffffffffffffffffffffffffffffffff16815260200190815260200160002060010160008282546112849190611730565b92505081905550426006819055505050565b60018081905550565b6112a7611363565b60008060006101000a81548160ff0219169083151502179055507f5db9ee0a495bf2e6ff9c91a7834c1ba4fdd244a5e8aa4e537bd38aeae4b073aa6112ea6113a3565b6040516112f79190611a36565b60405180910390a1565b61130961113f565b60016000806101000a81548160ff0219169083151502179055507f62e78cea01bee320cd4e420270b5ea74000d11b0c9f74754ebdbfc544b05a25861134c6113a3565b6040516113599190611a36565b60405180910390a1565b61136b610be9565b6113a1576040517f8dfc202b00000000000000000000000000000000000000000000000000000000815260040160405180910390fd5b565b600033905090565b6000819050919050565b6113be816113ab565b82525050565b60006020820190506113d960008301846113b5565b92915050565b600080fd5b6113ed816113ab565b81146113f857600080fd5b50565b60008135905061140a816113e4565b92915050565b600060208284031215611426576114256113df565b5b6000611434848285016113fb565b91505092915050565b60008115159050919050565b6114528161143d565b82525050565b600060208201905061146d6000830184611449565b92915050565b600073ffffffffffffffffffffffffffffffffffffffff82169050919050565b600061149e82611473565b9050919050565b6114ae81611493565b81146114b957600080fd5b50565b6000813590506114cb816114a5565b92915050565b6000602082840312156114e7576114e66113df565b5b60006114f5848285016114bc565b91505092915050565b600060608201905061151360008301866113b5565b61152060208301856113b5565b61152d60408301846113b5565b949350505050565b600082825260208201905092915050565b7f5374616b696e67506f6f6c3a204d7573742073656e642045544820746f20737460008201527f616b650000000000000000000000000000000000000000000000000000000000602082015250565b60006115a2602383611535565b91506115ad82611546565b604082019050919050565b600060208201905081810360008301526115d181611595565b9050919050565b6115e181611493565b82525050565b60006040820190506115fc60008301856115d8565b61160960208301846113b5565b9392505050565b6116198161143d565b811461162457600080fd5b50565b60008151905061163681611610565b92915050565b600060208284031215611652576116516113df565b5b600061166084828501611627565b91505092915050565b6000819050919050565b600061ffff82169050919050565b6000819050919050565b60006116a66116a161169c84611669565b611681565b611673565b9050919050565b6116b68161168b565b82525050565b60006080820190506116d160008301876115d8565b6116de60208301866113b5565b6116eb60408301856115d8565b6116f860608301846116ad565b95945050505050565b7f4e487b7100000000000000000000000000000000000000000000000000000000600052601160045260246000fd5b600061173b826113ab565b9150611746836113ab565b925082820190508082111561175e5761175d611701565b5b92915050565b600060408201905061177960008301856113b5565b61178660208301846113b5565b9392505050565b7f5374616b696e67506f6f6c3a2043616e6e6f74207769746864726177207a657260008201527f6f20616d6f756e74000000000000000000000000000000000000000000000000602082015250565b60006117e9602883611535565b91506117f48261178d565b604082019050919050565b60006020820190508181036000830152611818816117dc565b9050919050565b7f5374616b696e67506f6f6c3a20496e73756666696369656e742062616c616e6360008201527f6500000000000000000000000000000000000000000000000000000000000000602082015250565b600061187b602183611535565b91506118868261181f565b604082019050919050565b600060208201905081810360008301526118aa8161186e565b9050919050565b60006118bc826113ab565b91506118c7836113ab565b92508282039050818111156118df576118de611701565b5b92915050565b60006060820190506118fa60008301866115d8565b61190760208301856113b5565b61191460408301846115d8565b949350505050565b60008151905061192b816113e4565b92915050565b600060208284031215611947576119466113df565b5b60006119558482850161191c565b91505092915050565b7f5374616b696e67506f6f6c3a204e6f207265776172647320746f20636c61696d600082015250565b6000611994602083611535565b915061199f8261195e565b602082019050919050565b600060208201905081810360008301526119c381611987565b9050919050565b7f4f6e6c79206f776e6572206973207065726d6974746564000000000000000000600082015250565b6000611a00601783611535565b9150611a0b826119ca565b602082019050919050565b60006020820190508181036000830152611a2f816119f3565b9050919050565b6000602082019050611a4b60008301846115d8565b92915050565b6000604082019050611a6660008301856113b5565b611a7360208301846115d8565b9392505050565b6000606082019050611a8f60008301866115d8565b611a9c60208301856113b5565b611aa960408301846113b5565b949350505050565b6000611abc826113ab565b9150611ac7836113ab565b9250828202611ad5816113ab565b91508282048414831517611aec57611aeb611701565b5b509291505056fea2646970667358221220ff654adc5000aba7a914364edc8b88f95b098e26d1284b55755d080cf0679f8a64736f6c63430008180033",
  "linkReferences": {},
  "deployedLinkReferences": {}
}