{"abi":[{"type":"constructor","inputs":[],"stateMutability":"nonpayable"},{"type":"function","name":"createVault","inputs":[{"name":"_owner","type":"address","internalType":"address"},{"name":"_threshold","type":"uint256","internalType":"uint256"},{"name":"_secret","type":"string","internalType":"string"}],"outputs":[],"stateMutability":"nonpayable"},{"type":"function","name":"getVaultAddress","inputs":[{"name":"_owner","type":"address","internalType":"address"}],"outputs":[{"name":"","type":"address","internalType":"contract SecuredVault"}],"stateMutability":"view"},{"type":"function","name":"getVaultBalance","inputs":[{"name":"_owner","type":"address","internalType":"address"}],"outputs":[{"name":"","type":"uint256","internalType":"uint256"}],"stateMutability":"view"},{"type":"function","name":"withdrawFunds","inputs":[{"name":"_owner","type":"address","internalType":"address"},{"name":"_to","type":"address","internalType":"address payable"},{"name":"_amount","type":"uint256","internalType":"uint256"}],"outputs":[],"stateMutability":"nonpayable"},{"type":"error","name":"Manager_VaultAlreadyExisted","inputs":[]},{"type":"error","name":"Manager_VaultDoesNotExist","inputs":[]}],"bytecode":{"object":"0x608060405234801561001057600080fd5b50600080546001600160a01b031916331790556112dc806100326000396000f3fe608060405234801561001057600080fd5b506004361061004c5760003560e01c80631c20fadd1461005157806397680d1c14610066578063d3d7c00214610079578063ef88c31e1461009f575b600080fd5b61006461005f366004610373565b6100ca565b005b6100646100743660046103ca565b610191565b61008c610087366004610497565b610236565b6040519081526020015b60405180910390f35b6100b26100ad366004610497565b6102f2565b6040516001600160a01b039091168152602001610096565b6001600160a01b0380841660009081526001602052604090205484911661010457604051638d07d56d60e01b815260040160405180910390fd5b6001600160a01b03848116600090815260016020526040908190205490516337b211a760e11b8152858316600482015260248101859052911690636f64234e906044016020604051808303816000875af1158015610166573d6000803e3d6000fd5b505050506040513d601f19601f8201168201806040525081019061018a91906104b4565b5050505050565b6001600160a01b0383811660009081526001602052604090205416156101ca5760405163bab0d30960e01b815260040160405180910390fd5b60008383836040516101db9061034e565b6101e7939291906104d6565b604051809103906000f080158015610203573d6000803e3d6000fd5b506001600160a01b03948516600090815260016020526040902080546001600160a01b0319169190951617909355505050565b6001600160a01b03808216600090815260016020526040812054909183911661027257604051638d07d56d60e01b815260040160405180910390fd5b6001600160a01b03808416600090815260016020908152604091829020548251629032ff60e51b815292519316926312065fe09260048082019392918290030181865afa1580156102c7573d6000803e3d6000fd5b505050506040513d601f19601f820116820180604052508101906102eb919061053c565b9392505050565b6001600160a01b03808216600090815260016020526040812054909183911661032e57604051638d07d56d60e01b815260040160405180910390fd5b50506001600160a01b039081166000908152600160205260409020541690565b610d518061055683390190565b6001600160a01b038116811461037057600080fd5b50565b60008060006060848603121561038857600080fd5b83356103938161035b565b925060208401356103a38161035b565b929592945050506040919091013590565b634e487b7160e01b600052604160045260246000fd5b6000806000606084860312156103df57600080fd5b83356103ea8161035b565b925060208401359150604084013567ffffffffffffffff8082111561040e57600080fd5b818601915086601f83011261042257600080fd5b813581811115610434576104346103b4565b604051601f8201601f19908116603f0116810190838211818310171561045c5761045c6103b4565b8160405282815289602084870101111561047557600080fd5b8260208601602083013760006020848301015280955050505050509250925092565b6000602082840312156104a957600080fd5b81356102eb8161035b565b6000602082840312156104c657600080fd5b815180151581146102eb57600080fd5b60018060a01b03841681526000602084602084015260606040840152835180606085015260005b81811015610519578581018301518582016080015282016104fd565b506000608082860101526080601f19601f83011685010192505050949350505050565b60006020828403121561054e57600080fd5b505191905056fe60806040523480156200001157600080fd5b5060405162000d5138038062000d518339810160408190526200003491620000e2565b6001600081815581546001600160a81b0319166101006001600160a01b038716021790915560028390556009805460ff19169055600b556040516200007e908290602001620001c6565b60408051601f198184030181529190528051602090910120600a5550504260085550620001e4565b634e487b7160e01b600052604160045260246000fd5b60005b83811015620000d9578181015183820152602001620000bf565b50506000910152565b600080600060608486031215620000f857600080fd5b83516001600160a01b03811681146200011057600080fd5b6020850151604086015191945092506001600160401b03808211156200013557600080fd5b818601915086601f8301126200014a57600080fd5b8151818111156200015f576200015f620000a6565b604051601f8201601f19908116603f011681019083821181831017156200018a576200018a620000a6565b81604052828152896020848701011115620001a457600080fd5b620001b7836020830160208801620000bc565b80955050505050509250925092565b60008251620001da818460208701620000bc565b9190910192915050565b610b5d80620001f46000396000f3fe6080604052600436106100a05760003560e01c80636e94d6a3116100645780636e94d6a3146101735780636f64234e1461019357806373d80b96146101a65780637ed6c926146101c6578063960bfe04146101e6578063b33712c514610206576100bf565b806312065fe0146100d15780631b7035ea146100f45780634085c84214610118578063439766ce146101445780635c975abb1461015b576100bf565b366100bf5734600760008282546100b791906109a1565b925050819055005b34600760008282546100b791906109a1565b3480156100dd57600080fd5b506007546040519081526020015b60405180910390f35b34801561010057600080fd5b5060095460ff165b60405190151581526020016100eb565b34801561012457600080fd5b5061012d61021b565b6040805192151583526020830191909152016100eb565b34801561015057600080fd5b5061015961029b565b005b34801561016757600080fd5b5060015460ff16610108565b34801561017f57600080fd5b5061015961018e3660046109ca565b6102dd565b6101086101a1366004610a7b565b6103e2565b3480156101b257600080fd5b506101086101c13660046109ca565b610604565b3480156101d257600080fd5b506101596101e13660046109ca565b610669565b3480156101f257600080fd5b50610159610201366004610ab3565b6106c8565b34801561021257600080fd5b506101596106fd565b600154600090819061010090046001600160a01b031633146102505760405163401f871760e01b815260040160405180910390fd5b7fae7513a49469e592cb8b6a61ab965ee6b2099fa1ac677ae4a0b31ec4a1459744600b5460405161028391815260200190565b60405180910390a15050600954600b5460ff90911691565b60015461010090046001600160a01b031633146102cb5760405163401f871760e01b815260040160405180910390fd5b6102d361073d565b6102db610761565b565b60015461010090046001600160a01b0316331461030d5760405163401f871760e01b815260040160405180910390fd5b6103156107b6565b600a54816040516020016103299190610acc565b604051602081830303815290604052805190602001201461035d5760405163334fed4360e21b815260040160405180910390fd5b6009805460ff191690556040517fb1d1b4f20063761c5b740c65649dacab881597c4aafdaa5c6419ff9ed9130373906103d79060208082526027908201527f4163636f756e7420686173206265656e20756e66726f7a656e2073756363657360408201526639b33ab6363c9760c91b606082015260800190565b60405180910390a150565b60015460009061010090046001600160a01b031633146104155760405163401f871760e01b815260040160405180910390fd5b60095460ff161561043957604051633cfd413b60e01b815260040160405180910390fd5b6104416107d9565b61044961073d565b81600754101561046c576040516303c2688f60e21b815260040160405180910390fd5b610474610803565b81600760008282546104869190610afb565b90915550506003805490600061049b83610b0e565b919050555081600460008282546104b291906109a1565b909155505060025460045410610518576104ca6108b1565b7ff7767ff47accadd926d447dddc8bae27b9aa3189effb9098faa7d68398ffa5d8600354600454604051610508929190918252602082015260400190565b60405180910390a15060006105f4565b6000836001600160a01b03168360405160006040518083038185875af1925050503d8060008114610565576040519150601f19603f3d011682016040523d82523d6000602084013e61056a565b606091505b505090508061058c576040516370a9014d60e01b815260040160405180910390fd5b60095460ff16156105af5782600b60008282546105a991906109a1565b90915550505b604080516001600160a01b0386168152602081018590527feaff4b37086828766ad3268786972c0cd24259d4c87a80f9d3963a3c3d999b0d910160405180910390a190505b6105fe6001600055565b92915050565b60015460009061010090046001600160a01b031633146106375760405163401f871760e01b815260040160405180910390fd5b816040516020016106489190610acc565b60405160208183030381529060405280519060200120600a54149050919050565b60015461010090046001600160a01b031633146106995760405163401f871760e01b815260040160405180910390fd5b806040516020016106aa9190610acc565b60408051601f198184030181529190528051602090910120600a5550565b60015461010090046001600160a01b031633146106f85760405163401f871760e01b815260040160405180910390fd5b600255565b60015461010090046001600160a01b0316331461072d5760405163401f871760e01b815260040160405180910390fd5b6107356107b6565b6102db610952565b60015460ff16156102db5760405163d93c066560e01b815260040160405180910390fd5b61076961073d565b6001805460ff1916811790557f62e78cea01bee320cd4e420270b5ea74000d11b0c9f74754ebdbfc544b05a258335b6040516001600160a01b0390911681526020015b60405180910390a1565b60015460ff166102db57604051638dfc202b60e01b815260040160405180910390fd5b6002600054036107fc57604051633ee5aeb560e01b815260040160405180910390fd5b6002600055565b60085442118015610817575060095460ff16155b156108325761082942620151806109a1565b60085560006005555b600654421115610850576108474260016109a1565b60065560006005555b600654421161086f576005805490600061086983610b0e565b91905055505b6003600554106102db576108816108b1565b6040513381527f18d1c7775cebddc9fb19325c3acb932de822df72d8d6505c1325c532c2dc541f906020016107ac565b6009805460ff191660011790556040517ff6690e0b1c00525d6e32bce2240b7834f0da65ee9c6ea813a095659f3a8020ba906107ac9060208082526045908201527f596f7572206163636f756e742069732066726f7a656e2064756520746f20737460408201527f72616e6765206265686176696f72206f72206120706f74656e7469616c2061746060820152643a30b1b59760d91b608082015260a00190565b61095a6107b6565b6001805460ff191690557f5db9ee0a495bf2e6ff9c91a7834c1ba4fdd244a5e8aa4e537bd38aeae4b073aa33610798565b634e487b7160e01b600052601160045260246000fd5b808201808211156105fe576105fe61098b565b634e487b7160e01b600052604160045260246000fd5b6000602082840312156109dc57600080fd5b813567ffffffffffffffff808211156109f457600080fd5b818401915084601f830112610a0857600080fd5b813581811115610a1a57610a1a6109b4565b604051601f8201601f19908116603f01168101908382118183101715610a4257610a426109b4565b81604052828152876020848701011115610a5b57600080fd5b826020860160208301376000928101602001929092525095945050505050565b60008060408385031215610a8e57600080fd5b82356001600160a01b0381168114610aa557600080fd5b946020939093013593505050565b600060208284031215610ac557600080fd5b5035919050565b6000825160005b81811015610aed5760208186018101518583015201610ad3565b506000920191825250919050565b818103818111156105fe576105fe61098b565b600060018201610b2057610b2061098b565b506001019056fea264697066735822122083d98e884bd4a3b73f6e6d78f09935a06344be14dc1eaf4a7c3f727aa7db21e764736f6c63430008180033a2646970667358221220fbdb3c5af9f1a8f18df61c1cb02c389dd5adc0ace7f396bacce4c5af1953f3be64736f6c63430008180033","linkReferences":{}},"methodIdentifiers":{"createVault(address,uint256,string)":"97680d1c","getVaultAddress(address)":"ef88c31e","getVaultBalance(address)":"d3d7c002","withdrawFunds(address,address,uint256)":"1c20fadd"},"id":1}